{
  "_format": "hh-sol-artifact-1",
  "contractName": "Platform",
  "sourceName": "contracts/Platform.sol",
  "abi": [
    {
      "inputs": [
        {
          "internalType": "address",
          "name": "_traderToken",
          "type": "address"
        },
        {
          "internalType": "address",
          "name": "_botManager",
          "type": "address"
        },
        {
          "internalType": "uint256",
          "name": "_subscriptionFee",
          "type": "uint256"
        }
      ],
      "stateMutability": "nonpayable",
      "type": "constructor"
    },
    {
      "inputs": [
        {
          "internalType": "address",
          "name": "owner",
          "type": "address"
        }
      ],
      "name": "OwnableInvalidOwner",
      "type": "error"
    },
    {
      "inputs": [
        {
          "internalType": "address",
          "name": "account",
          "type": "address"
        }
      ],
      "name": "OwnableUnauthorizedAccount",
      "type": "error"
    },
    {
      "inputs": [
        {
          "internalType": "address",
          "name": "token",
          "type": "address"
        }
      ],
      "name": "SafeERC20FailedOperation",
      "type": "error"
    },
    {
      "inputs": [],
      "name": "ZeroAddress",
      "type": "error"
    },
    {
      "anonymous": false,
      "inputs": [
        {
          "indexed": false,
          "internalType": "address",
          "name": "token",
          "type": "address"
        },
        {
          "indexed": false,
          "internalType": "address",
          "name": "manager",
          "type": "address"
        }
      ],
      "name": "AddressesUpdated",
      "type": "event"
    },
    {
      "anonymous": false,
      "inputs": [
        {
          "indexed": false,
          "internalType": "uint256",
          "name": "newFee",
          "type": "uint256"
        }
      ],
      "name": "FeeUpdated",
      "type": "event"
    },
    {
      "anonymous": false,
      "inputs": [
        {
          "indexed": true,
          "internalType": "address",
          "name": "previousOwner",
          "type": "address"
        },
        {
          "indexed": true,
          "internalType": "address",
          "name": "newOwner",
          "type": "address"
        }
      ],
      "name": "OwnershipTransferred",
      "type": "event"
    },
    {
      "anonymous": false,
      "inputs": [
        {
          "indexed": true,
          "internalType": "address",
          "name": "user",
          "type": "address"
        },
        {
          "indexed": false,
          "internalType": "uint256",
          "name": "amount",
          "type": "uint256"
        }
      ],
      "name": "SubscriptionPaid",
      "type": "event"
    },
    {
      "inputs": [],
      "name": "botManager",
      "outputs": [
        {
          "internalType": "contract ITradingBotManager",
          "name": "",
          "type": "address"
        }
      ],
      "stateMutability": "view",
      "type": "function"
    },
    {
      "inputs": [
        {
          "internalType": "address",
          "name": "",
          "type": "address"
        }
      ],
      "name": "hasActiveSubscription",
      "outputs": [
        {
          "internalType": "bool",
          "name": "",
          "type": "bool"
        }
      ],
      "stateMutability": "view",
      "type": "function"
    },
    {
      "inputs": [],
      "name": "owner",
      "outputs": [
        {
          "internalType": "address",
          "name": "",
          "type": "address"
        }
      ],
      "stateMutability": "view",
      "type": "function"
    },
    {
      "inputs": [],
      "name": "pauseBotManager",
      "outputs": [],
      "stateMutability": "nonpayable",
      "type": "function"
    },
    {
      "inputs": [],
      "name": "paySubscription",
      "outputs": [],
      "stateMutability": "nonpayable",
      "type": "function"
    },
    {
      "inputs": [],
      "name": "renounceOwnership",
      "outputs": [],
      "stateMutability": "nonpayable",
      "type": "function"
    },
    {
      "inputs": [
        {
          "internalType": "address",
          "name": "_traderToken",
          "type": "address"
        },
        {
          "internalType": "address",
          "name": "_botManager",
          "type": "address"
        }
      ],
      "name": "setAddresses",
      "outputs": [],
      "stateMutability": "nonpayable",
      "type": "function"
    },
    {
      "inputs": [
        {
          "internalType": "uint256",
          "name": "_fee",
          "type": "uint256"
        }
      ],
      "name": "setSubscriptionFee",
      "outputs": [],
      "stateMutability": "nonpayable",
      "type": "function"
    },
    {
      "inputs": [],
      "name": "subscriptionFee",
      "outputs": [
        {
          "internalType": "uint256",
          "name": "",
          "type": "uint256"
        }
      ],
      "stateMutability": "view",
      "type": "function"
    },
    {
      "inputs": [],
      "name": "traderToken",
      "outputs": [
        {
          "internalType": "contract IERC20",
          "name": "",
          "type": "address"
        }
      ],
      "stateMutability": "view",
      "type": "function"
    },
    {
      "inputs": [
        {
          "internalType": "address",
          "name": "newOwner",
          "type": "address"
        }
      ],
      "name": "transferOwnership",
      "outputs": [],
      "stateMutability": "nonpayable",
      "type": "function"
    },
    {
      "inputs": [],
      "name": "unpauseBotManager",
      "outputs": [],
      "stateMutability": "nonpayable",
      "type": "function"
    },
    {
      "inputs": [
        {
          "internalType": "address",
          "name": "_newExecutor",
          "type": "address"
        }
      ],
      "name": "updateBotManagerExecutor",
      "outputs": [],
      "stateMutability": "nonpayable",
      "type": "function"
    },
    {
      "inputs": [],
      "name": "withdrawFees",
      "outputs": [],
      "stateMutability": "nonpayable",
      "type": "function"
    }
  ],
  "bytecode": "0x60806040523480156200001157600080fd5b50604051620012c4380380620012c483398181016040528101906200003791906200035a565b33600073ffffffffffffffffffffffffffffffffffffffff168173ffffffffffffffffffffffffffffffffffffffff1603620000ad5760006040517f1e4fbdf7000000000000000000000000000000000000000000000000000000008152600401620000a49190620003c7565b60405180910390fd5b620000be81620001f160201b60201c565b50600073ffffffffffffffffffffffffffffffffffffffff168373ffffffffffffffffffffffffffffffffffffffff161480620001275750600073ffffffffffffffffffffffffffffffffffffffff168273ffffffffffffffffffffffffffffffffffffffff16145b156200015f576040517fd92e233d00000000000000000000000000000000000000000000000000000000815260040160405180910390fd5b82600160006101000a81548173ffffffffffffffffffffffffffffffffffffffff021916908373ffffffffffffffffffffffffffffffffffffffff16021790555081600260006101000a81548173ffffffffffffffffffffffffffffffffffffffff021916908373ffffffffffffffffffffffffffffffffffffffff16021790555080600381905550505050620003e4565b60008060009054906101000a900473ffffffffffffffffffffffffffffffffffffffff169050816000806101000a81548173ffffffffffffffffffffffffffffffffffffffff021916908373ffffffffffffffffffffffffffffffffffffffff1602179055508173ffffffffffffffffffffffffffffffffffffffff168173ffffffffffffffffffffffffffffffffffffffff167f8be0079c531659141344cd1fd0a4f28419497f9722a3daafe3b4186f6b6457e060405160405180910390a35050565b600080fd5b600073ffffffffffffffffffffffffffffffffffffffff82169050919050565b6000620002e782620002ba565b9050919050565b620002f981620002da565b81146200030557600080fd5b50565b6000815190506200031981620002ee565b92915050565b6000819050919050565b62000334816200031f565b81146200034057600080fd5b50565b600081519050620003548162000329565b92915050565b600080600060608486031215620003765762000375620002b5565b5b6000620003868682870162000308565b9350506020620003998682870162000308565b9250506040620003ac8682870162000343565b9150509250925092565b620003c181620002da565b82525050565b6000602082019050620003de6000830184620003b6565b92915050565b610ed080620003f46000396000f3fe608060405234801561001057600080fd5b50600436106100ea5760003560e01c80637c6b207b1161008c57806397e18d6e1161006657806397e18d6e146101d9578063bebe4a57146101e3578063f2fde38b14610213578063f6176a9b1461022f576100ea565b80637c6b207b146101815780638da5cb5b1461019f57806390107afe146101bd576100ea565b806350a3238b116100c857806350a3238b146101215780636ac849561461013f5780636ec1689b1461015b578063715018a614610177576100ea565b80630aa0a175146100ef5780631e111de41461010d578063476343ee14610117575b600080fd5b6100f7610239565b6040516101049190610bd5565b60405180910390f35b61011561023f565b005b61011f6102cb565b005b6101296103d4565b6040516101369190610c6f565b60405180910390f35b61015960048036038101906101549190610cbb565b6103fa565b005b61017560048036038101906101709190610d26565b610443565b005b61017f6104db565b005b6101896104ef565b6040516101969190610d74565b60405180910390f35b6101a7610515565b6040516101b49190610d9e565b60405180910390f35b6101d760048036038101906101d29190610db9565b61053e565b005b6101e16106a3565b005b6101fd60048036038101906101f89190610d26565b6107aa565b60405161020a9190610e14565b60405180910390f35b61022d60048036038101906102289190610d26565b6107ca565b005b610237610850565b005b60035481565b6102476108dc565b600260009054906101000a900473ffffffffffffffffffffffffffffffffffffffff1673ffffffffffffffffffffffffffffffffffffffff16638456cb596040518163ffffffff1660e01b8152600401600060405180830381600087803b1580156102b157600080fd5b505af11580156102c5573d6000803e3d6000fd5b50505050565b6102d36108dc565b6000600160009054906101000a900473ffffffffffffffffffffffffffffffffffffffff1673ffffffffffffffffffffffffffffffffffffffff166370a08231306040518263ffffffff1660e01b81526004016103309190610d9e565b602060405180830381865afa15801561034d573d6000803e3d6000fd5b505050506040513d601f19601f820116820180604052508101906103719190610e44565b905060008111156103d1576103d0610387610515565b82600160009054906101000a900473ffffffffffffffffffffffffffffffffffffffff1673ffffffffffffffffffffffffffffffffffffffff166109639092919063ffffffff16565b5b50565b600260009054906101000a900473ffffffffffffffffffffffffffffffffffffffff1681565b6104026108dc565b806003819055507f8c4d35e54a3f2ef1134138fd8ea3daee6a3c89e10d2665996babdf70261e2c76816040516104389190610bd5565b60405180910390a150565b61044b6108dc565b600260009054906101000a900473ffffffffffffffffffffffffffffffffffffffff1673ffffffffffffffffffffffffffffffffffffffff16635767c659826040518263ffffffff1660e01b81526004016104a69190610d9e565b600060405180830381600087803b1580156104c057600080fd5b505af11580156104d4573d6000803e3d6000fd5b5050505050565b6104e36108dc565b6104ed60006109b6565b565b600160009054906101000a900473ffffffffffffffffffffffffffffffffffffffff1681565b60008060009054906101000a900473ffffffffffffffffffffffffffffffffffffffff16905090565b6105466108dc565b600073ffffffffffffffffffffffffffffffffffffffff168273ffffffffffffffffffffffffffffffffffffffff1614806105ad5750600073ffffffffffffffffffffffffffffffffffffffff168173ffffffffffffffffffffffffffffffffffffffff16145b156105e4576040517fd92e233d00000000000000000000000000000000000000000000000000000000815260040160405180910390fd5b81600160006101000a81548173ffffffffffffffffffffffffffffffffffffffff021916908373ffffffffffffffffffffffffffffffffffffffff16021790555080600260006101000a81548173ffffffffffffffffffffffffffffffffffffffff021916908373ffffffffffffffffffffffffffffffffffffffff1602179055507fc651c70f44278e4b6b346230d2fcc09308ad801d6dc8b9c055f45581b36090758282604051610697929190610e71565b60405180910390a15050565b60006003541115610700576106ff3330600354600160009054906101000a900473ffffffffffffffffffffffffffffffffffffffff1673ffffffffffffffffffffffffffffffffffffffff16610a7a909392919063ffffffff16565b5b6001600460003373ffffffffffffffffffffffffffffffffffffffff1673ffffffffffffffffffffffffffffffffffffffff16815260200190815260200160002060006101000a81548160ff0219169083151502179055503373ffffffffffffffffffffffffffffffffffffffff167f933b45663ad96e847d50499c3cbce55133a62ad2bced2d654becdc785c6d2bb56003546040516107a09190610bd5565b60405180910390a2565b60046020528060005260406000206000915054906101000a900460ff1681565b6107d26108dc565b600073ffffffffffffffffffffffffffffffffffffffff168173ffffffffffffffffffffffffffffffffffffffff16036108445760006040517f1e4fbdf700000000000000000000000000000000000000000000000000000000815260040161083b9190610d9e565b60405180910390fd5b61084d816109b6565b50565b6108586108dc565b600260009054906101000a900473ffffffffffffffffffffffffffffffffffffffff1673ffffffffffffffffffffffffffffffffffffffff16633f4ba83a6040518163ffffffff1660e01b8152600401600060405180830381600087803b1580156108c257600080fd5b505af11580156108d6573d6000803e3d6000fd5b50505050565b6108e4610acf565b73ffffffffffffffffffffffffffffffffffffffff16610902610515565b73ffffffffffffffffffffffffffffffffffffffff161461096157610925610acf565b6040517f118cdaa70000000000000000000000000000000000000000000000000000000081526004016109589190610d9e565b60405180910390fd5b565b6109708383836001610ad7565b6109b157826040517f5274afe70000000000000000000000000000000000000000000000000000000081526004016109a89190610d9e565b60405180910390fd5b505050565b60008060009054906101000a900473ffffffffffffffffffffffffffffffffffffffff169050816000806101000a81548173ffffffffffffffffffffffffffffffffffffffff021916908373ffffffffffffffffffffffffffffffffffffffff1602179055508173ffffffffffffffffffffffffffffffffffffffff168173ffffffffffffffffffffffffffffffffffffffff167f8be0079c531659141344cd1fd0a4f28419497f9722a3daafe3b4186f6b6457e060405160405180910390a35050565b610a88848484846001610b41565b610ac957836040517f5274afe7000000000000000000000000000000000000000000000000000000008152600401610ac09190610d9e565b60405180910390fd5b50505050565b600033905090565b60008063a9059cbb60e01b90506040518160005260001960601c8616600452846024526020600060446000808b5af192506001600051148316610b33578383151615610b26573d6000823e3d81fd5b6000873b113d1516831692505b806040525050949350505050565b6000806323b872dd60e01b90506040518160005260001960601c871660045260001960601c8616602452846044526020600060646000808c5af192506001600051148316610ba8578383151615610b9b573d6000823e3d81fd5b6000883b113d1516831692505b806040526000606052505095945050505050565b6000819050919050565b610bcf81610bbc565b82525050565b6000602082019050610bea6000830184610bc6565b92915050565b600073ffffffffffffffffffffffffffffffffffffffff82169050919050565b6000819050919050565b6000610c35610c30610c2b84610bf0565b610c10565b610bf0565b9050919050565b6000610c4782610c1a565b9050919050565b6000610c5982610c3c565b9050919050565b610c6981610c4e565b82525050565b6000602082019050610c846000830184610c60565b92915050565b600080fd5b610c9881610bbc565b8114610ca357600080fd5b50565b600081359050610cb581610c8f565b92915050565b600060208284031215610cd157610cd0610c8a565b5b6000610cdf84828501610ca6565b91505092915050565b6000610cf382610bf0565b9050919050565b610d0381610ce8565b8114610d0e57600080fd5b50565b600081359050610d2081610cfa565b92915050565b600060208284031215610d3c57610d3b610c8a565b5b6000610d4a84828501610d11565b91505092915050565b6000610d5e82610c3c565b9050919050565b610d6e81610d53565b82525050565b6000602082019050610d896000830184610d65565b92915050565b610d9881610ce8565b82525050565b6000602082019050610db36000830184610d8f565b92915050565b60008060408385031215610dd057610dcf610c8a565b5b6000610dde85828601610d11565b9250506020610def85828601610d11565b9150509250929050565b60008115159050919050565b610e0e81610df9565b82525050565b6000602082019050610e296000830184610e05565b92915050565b600081519050610e3e81610c8f565b92915050565b600060208284031215610e5a57610e59610c8a565b5b6000610e6884828501610e2f565b91505092915050565b6000604082019050610e866000830185610d8f565b610e936020830184610d8f565b939250505056fea2646970667358221220df19bf157b030308350292712e09fe9dfb8b212efe3e0127bd3a8ba2370efcc964736f6c63430008180033",
  "linkReferences": {},
  "deployedLinkReferences": {}
}