{
  "_format": "hh-sol-artifact-1",
  "contractName": "TradingBotManager",
  "sourceName": "contracts/TradingBotManager.sol",
  "abi": [
    {
      "inputs": [],
      "stateMutability": "nonpayable",
      "type": "constructor"
    },
    {
      "inputs": [],
      "name": "BalanceOverflow",
      "type": "error"
    },
    {
      "inputs": [],
      "name": "BotAlreadyInactive",
      "type": "error"
    },
    {
      "inputs": [],
      "name": "BotDoesNotExist",
      "type": "error"
    },
    {
      "inputs": [],
      "name": "BotInactive",
      "type": "error"
    },
    {
      "inputs": [],
      "name": "ContractPaused",
      "type": "error"
    },
    {
      "inputs": [],
      "name": "ExecutorNotSet",
      "type": "error"
    },
    {
      "inputs": [],
      "name": "Insolvent",
      "type": "error"
    },
    {
      "inputs": [],
      "name": "InvalidAmount",
      "type": "error"
    },
    {
      "inputs": [],
      "name": "OwnerOnly",
      "type": "error"
    },
    {
      "inputs": [],
      "name": "Reentrancy",
      "type": "error"
    },
    {
      "inputs": [],
      "name": "TransferFailed",
      "type": "error"
    },
    {
      "inputs": [],
      "name": "Unauthorized",
      "type": "error"
    },
    {
      "anonymous": false,
      "inputs": [
        {
          "indexed": true,
          "internalType": "uint256",
          "name": "botId",
          "type": "uint256"
        },
        {
          "indexed": true,
          "internalType": "address",
          "name": "owner",
          "type": "address"
        }
      ],
      "name": "BotCreated",
      "type": "event"
    },
    {
      "anonymous": false,
      "inputs": [
        {
          "indexed": true,
          "internalType": "uint256",
          "name": "botId",
          "type": "uint256"
        },
        {
          "indexed": false,
          "internalType": "uint256",
          "name": "amount",
          "type": "uint256"
        }
      ],
      "name": "BotCredited",
      "type": "event"
    },
    {
      "anonymous": false,
      "inputs": [
        {
          "indexed": true,
          "internalType": "uint256",
          "name": "botId",
          "type": "uint256"
        }
      ],
      "name": "BotDeactivated",
      "type": "event"
    },
    {
      "anonymous": false,
      "inputs": [
        {
          "indexed": true,
          "internalType": "uint256",
          "name": "botId",
          "type": "uint256"
        },
        {
          "indexed": false,
          "internalType": "uint256",
          "name": "amount",
          "type": "uint256"
        }
      ],
      "name": "BotDebited",
      "type": "event"
    },
    {
      "anonymous": false,
      "inputs": [
        {
          "indexed": true,
          "internalType": "uint256",
          "name": "botId",
          "type": "uint256"
        },
        {
          "indexed": true,
          "internalType": "address",
          "name": "owner",
          "type": "address"
        },
        {
          "indexed": false,
          "internalType": "uint256",
          "name": "amount",
          "type": "uint256"
        },
        {
          "indexed": false,
          "internalType": "uint256",
          "name": "newBalance",
          "type": "uint256"
        }
      ],
      "name": "Deposited",
      "type": "event"
    },
    {
      "anonymous": false,
      "inputs": [
        {
          "indexed": true,
          "internalType": "uint256",
          "name": "botId",
          "type": "uint256"
        },
        {
          "indexed": true,
          "internalType": "address",
          "name": "owner",
          "type": "address"
        },
        {
          "indexed": false,
          "internalType": "uint256",
          "name": "amount",
          "type": "uint256"
        }
      ],
      "name": "EmergencyWithdraw",
      "type": "event"
    },
    {
      "anonymous": false,
      "inputs": [
        {
          "indexed": true,
          "internalType": "address",
          "name": "oldOwner",
          "type": "address"
        },
        {
          "indexed": true,
          "internalType": "address",
          "name": "newOwner",
          "type": "address"
        }
      ],
      "name": "OwnershipTransferred",
      "type": "event"
    },
    {
      "anonymous": false,
      "inputs": [],
      "name": "Paused",
      "type": "event"
    },
    {
      "anonymous": false,
      "inputs": [
        {
          "indexed": true,
          "internalType": "address",
          "name": "executor",
          "type": "address"
        }
      ],
      "name": "TradeExecutorUpdated",
      "type": "event"
    },
    {
      "anonymous": false,
      "inputs": [],
      "name": "Unpaused",
      "type": "event"
    },
    {
      "anonymous": false,
      "inputs": [
        {
          "indexed": true,
          "internalType": "uint256",
          "name": "botId",
          "type": "uint256"
        },
        {
          "indexed": true,
          "internalType": "address",
          "name": "receiver",
          "type": "address"
        },
        {
          "indexed": false,
          "internalType": "uint256",
          "name": "amount",
          "type": "uint256"
        }
      ],
      "name": "Withdrawn",
      "type": "event"
    },
    {
      "inputs": [],
      "name": "botCount",
      "outputs": [
        {
          "internalType": "uint256",
          "name": "",
          "type": "uint256"
        }
      ],
      "stateMutability": "view",
      "type": "function"
    },
    {
      "inputs": [
        {
          "internalType": "uint256",
          "name": "",
          "type": "uint256"
        }
      ],
      "name": "bots",
      "outputs": [
        {
          "internalType": "address",
          "name": "owner",
          "type": "address"
        },
        {
          "internalType": "uint96",
          "name": "balance",
          "type": "uint96"
        },
        {
          "internalType": "bool",
          "name": "active",
          "type": "bool"
        }
      ],
      "stateMutability": "view",
      "type": "function"
    },
    {
      "inputs": [],
      "name": "createBot",
      "outputs": [
        {
          "internalType": "uint256",
          "name": "botId",
          "type": "uint256"
        }
      ],
      "stateMutability": "nonpayable",
      "type": "function"
    },
    {
      "inputs": [
        {
          "internalType": "uint256",
          "name": "botId",
          "type": "uint256"
        }
      ],
      "name": "creditBot",
      "outputs": [],
      "stateMutability": "payable",
      "type": "function"
    },
    {
      "inputs": [
        {
          "internalType": "uint256",
          "name": "botId",
          "type": "uint256"
        }
      ],
      "name": "deactivateBot",
      "outputs": [],
      "stateMutability": "nonpayable",
      "type": "function"
    },
    {
      "inputs": [
        {
          "internalType": "uint256",
          "name": "botId",
          "type": "uint256"
        },
        {
          "internalType": "uint256",
          "name": "amount",
          "type": "uint256"
        }
      ],
      "name": "debitBot",
      "outputs": [],
      "stateMutability": "nonpayable",
      "type": "function"
    },
    {
      "inputs": [
        {
          "internalType": "uint256",
          "name": "botId",
          "type": "uint256"
        }
      ],
      "name": "deposit",
      "outputs": [],
      "stateMutability": "payable",
      "type": "function"
    },
    {
      "inputs": [
        {
          "internalType": "uint256",
          "name": "botId",
          "type": "uint256"
        }
      ],
      "name": "emergencyWithdraw",
      "outputs": [],
      "stateMutability": "nonpayable",
      "type": "function"
    },
    {
      "inputs": [
        {
          "internalType": "address",
          "name": "user",
          "type": "address"
        }
      ],
      "name": "getUserBots",
      "outputs": [
        {
          "internalType": "uint256[]",
          "name": "",
          "type": "uint256[]"
        }
      ],
      "stateMutability": "view",
      "type": "function"
    },
    {
      "inputs": [],
      "name": "isSolvent",
      "outputs": [
        {
          "internalType": "bool",
          "name": "",
          "type": "bool"
        }
      ],
      "stateMutability": "view",
      "type": "function"
    },
    {
      "inputs": [],
      "name": "owner",
      "outputs": [
        {
          "internalType": "address",
          "name": "",
          "type": "address"
        }
      ],
      "stateMutability": "view",
      "type": "function"
    },
    {
      "inputs": [],
      "name": "pause",
      "outputs": [],
      "stateMutability": "nonpayable",
      "type": "function"
    },
    {
      "inputs": [],
      "name": "paused",
      "outputs": [
        {
          "internalType": "bool",
          "name": "",
          "type": "bool"
        }
      ],
      "stateMutability": "view",
      "type": "function"
    },
    {
      "inputs": [
        {
          "internalType": "address",
          "name": "executor",
          "type": "address"
        }
      ],
      "name": "setTradeExecutor",
      "outputs": [],
      "stateMutability": "nonpayable",
      "type": "function"
    },
    {
      "inputs": [],
      "name": "totalFunds",
      "outputs": [
        {
          "internalType": "uint256",
          "name": "",
          "type": "uint256"
        }
      ],
      "stateMutability": "view",
      "type": "function"
    },
    {
      "inputs": [],
      "name": "tradeExecutor",
      "outputs": [
        {
          "internalType": "address",
          "name": "",
          "type": "address"
        }
      ],
      "stateMutability": "view",
      "type": "function"
    },
    {
      "inputs": [
        {
          "internalType": "address",
          "name": "newOwner",
          "type": "address"
        }
      ],
      "name": "transferOwnership",
      "outputs": [],
      "stateMutability": "nonpayable",
      "type": "function"
    },
    {
      "inputs": [],
      "name": "unpause",
      "outputs": [],
      "stateMutability": "nonpayable",
      "type": "function"
    },
    {
      "inputs": [
        {
          "internalType": "uint256",
          "name": "botId",
          "type": "uint256"
        }
      ],
      "name": "withdraw",
      "outputs": [],
      "stateMutability": "nonpayable",
      "type": "function"
    },
    {
      "inputs": [
        {
          "internalType": "uint256",
          "name": "botId",
          "type": "uint256"
        },
        {
          "internalType": "address",
          "name": "to",
          "type": "address"
        }
      ],
      "name": "withdrawTo",
      "outputs": [],
      "stateMutability": "nonpayable",
      "type": "function"
    },
    {
      "stateMutability": "payable",
      "type": "receive"
    }
  ],
  "bytecode": "0x6080604052600160065534801561001557600080fd5b5033600360016101000a81548173ffffffffffffffffffffffffffffffffffffffff021916908373ffffffffffffffffffffffffffffffffffffffff16021790555061253a806100666000396000f3fe6080604052600436106101235760003560e01c80638456cb59116100a0578063b26bf5a011610064578063b26bf5a01461038a578063b6b55f25146103b3578063c86283c8146103cf578063f221ddb9146103f8578063f2fde38b146104375761012d565b80638456cb59146102d65780638da5cb5b146102ed578063968ed600146103185780639d992eeb14610343578063a7f070111461035f5761012d565b80635312ea8e116100e75780635312ea8e146102055780635767c6591461022e5780635c975abb146102575780635ce23950146102825780636c667ab1146102ad5761012d565b80632e1a7d4d1461013257806334c1d4291461015b5780633f4ba83a14610198578063428b8617146101af578063494adbda146101da5761012d565b3661012d57600080fd5b600080fd5b34801561013e57600080fd5b50610159600480360381019061015491906120be565b610460565b005b34801561016757600080fd5b50610182600480360381019061017d9190612149565b61074b565b60405161018f9190612234565b60405180910390f35b3480156101a457600080fd5b506101ad6107e2565b005b3480156101bb57600080fd5b506101c46108b2565b6040516101d19190612265565b60405180910390f35b3480156101e657600080fd5b506101ef6108b8565b6040516101fc9190612265565b60405180910390f35b34801561021157600080fd5b5061022c600480360381019061022791906120be565b610abb565b005b34801561023a57600080fd5b5061025560048036038101906102509190612149565b610dc3565b005b34801561026357600080fd5b5061026c610f37565b604051610279919061229b565b60405180910390f35b34801561028e57600080fd5b50610297610f4a565b6040516102a4919061229b565b60405180910390f35b3480156102b957600080fd5b506102d460048036038101906102cf91906122b6565b610f57565b005b3480156102e257600080fd5b506102eb611215565b005b3480156102f957600080fd5b506103026112e5565b60405161030f9190612305565b60405180910390f35b34801561032457600080fd5b5061032d61130b565b60405161033a9190612265565b60405180910390f35b61035d600480360381019061035891906120be565b611311565b005b34801561036b57600080fd5b506103746115bf565b6040516103819190612305565b60405180910390f35b34801561039657600080fd5b506103b160048036038101906103ac91906120be565b6115e5565b005b6103cd60048036038101906103c891906120be565b611817565b005b3480156103db57600080fd5b506103f660048036038101906103f19190612320565b611b0f565b005b34801561040457600080fd5b5061041f600480360381019061041a91906120be565b611e61565b60405161042e93929190612387565b60405180910390f35b34801561044357600080fd5b5061045e60048036038101906104599190612149565b611ed0565b005b80600054811061049c576040517f761f992600000000000000000000000000000000000000000000000000000000815260040160405180910390fd5b813373ffffffffffffffffffffffffffffffffffffffff166001600083815260200190815260200160002060000160009054906101000a900473ffffffffffffffffffffffffffffffffffffffff1673ffffffffffffffffffffffffffffffffffffffff1614610538576040517f82b4290000000000000000000000000000000000000000000000000000000000815260040160405180910390fd5b600260065403610574576040517fab143c0600000000000000000000000000000000000000000000000000000000815260040160405180910390fd5b6002600681905550600060016000858152602001908152602001600020905060008160000160149054906101000a90046bffffffffffffffffffffffff166bffffffffffffffffffffffff169050600081036105fc576040517f2c5211c600000000000000000000000000000000000000000000000000000000815260040160405180910390fd5b60008260000160146101000a8154816bffffffffffffffffffffffff02191690836bffffffffffffffffffffffff160217905550806005600082825461064291906123ed565b9250508190555060003373ffffffffffffffffffffffffffffffffffffffff168260405161066f90612452565b60006040518083038185875af1925050503d80600081146106ac576040519150601f19603f3d011682016040523d82523d6000602084013e6106b1565b606091505b50509050806106ec576040517f90b8ec1800000000000000000000000000000000000000000000000000000000815260040160405180910390fd5b3373ffffffffffffffffffffffffffffffffffffffff16867fcf7d23a3cbe4e8b36ff82fd1b05b1b17373dc7804b4ebbd6e2356716ef202372846040516107339190612265565b60405180910390a35050506001600681905550505050565b6060600260008373ffffffffffffffffffffffffffffffffffffffff1673ffffffffffffffffffffffffffffffffffffffff1681526020019081526020016000208054806020026020016040519081016040528092919081815260200182805480156107d657602002820191906000526020600020905b8154815260200190600101908083116107c2575b50505050509050919050565b600360019054906101000a900473ffffffffffffffffffffffffffffffffffffffff1673ffffffffffffffffffffffffffffffffffffffff163373ffffffffffffffffffffffffffffffffffffffff1614610869576040517f596dcdb800000000000000000000000000000000000000000000000000000000815260040160405180910390fd5b6000600360006101000a81548160ff0219169083151502179055507fa45f47fdea8a1efdd9029a5691c7f759c32b7c698632b563573e155625d1693360405160405180910390a1565b60005481565b6000600360009054906101000a900460ff1615610901576040517fab35696f00000000000000000000000000000000000000000000000000000000815260040160405180910390fd5b600054905060405180606001604052803373ffffffffffffffffffffffffffffffffffffffff16815260200160006bffffffffffffffffffffffff168152602001600115158152506001600083815260200190815260200160002060008201518160000160006101000a81548173ffffffffffffffffffffffffffffffffffffffff021916908373ffffffffffffffffffffffffffffffffffffffff16021790555060208201518160000160146101000a8154816bffffffffffffffffffffffff02191690836bffffffffffffffffffffffff16021790555060408201518160010160006101000a81548160ff021916908315150217905550905050600260003373ffffffffffffffffffffffffffffffffffffffff1673ffffffffffffffffffffffffffffffffffffffff1681526020019081526020016000208190806001815401808255809150506001900390600052602060002001600090919091909150553373ffffffffffffffffffffffffffffffffffffffff16817ffbcb41b70b98a06a28a222d724ad892a88f60e58b19254f27ac2e030e37c1fb560405160405180910390a3600080815480929190600101919050555090565b806000548110610af7576040517f761f992600000000000000000000000000000000000000000000000000000000815260040160405180910390fd5b813373ffffffffffffffffffffffffffffffffffffffff166001600083815260200190815260200160002060000160009054906101000a900473ffffffffffffffffffffffffffffffffffffffff1673ffffffffffffffffffffffffffffffffffffffff1614610b93576040517f82b4290000000000000000000000000000000000000000000000000000000000815260040160405180910390fd5b600260065403610bcf576040517fab143c0600000000000000000000000000000000000000000000000000000000815260040160405180910390fd5b6002600681905550600060016000858152602001908152602001600020905060008160000160149054906101000a90046bffffffffffffffffffffffff166bffffffffffffffffffffffff16905060008103610c57576040517f2c5211c600000000000000000000000000000000000000000000000000000000815260040160405180910390fd5b60008260000160146101000a8154816bffffffffffffffffffffffff02191690836bffffffffffffffffffffffff16021790555060008260010160006101000a81548160ff0219169083151502179055508060056000828254610cba91906123ed565b9250508190555060003373ffffffffffffffffffffffffffffffffffffffff1682604051610ce790612452565b60006040518083038185875af1925050503d8060008114610d24576040519150601f19603f3d011682016040523d82523d6000602084013e610d29565b606091505b5050905080610d64576040517f90b8ec1800000000000000000000000000000000000000000000000000000000815260040160405180910390fd5b3373ffffffffffffffffffffffffffffffffffffffff16867f947a9dc0c5e62cc9756634ec0a89afea37eb0305933925040b9bda820044002084604051610dab9190612265565b60405180910390a35050506001600681905550505050565b600360019054906101000a900473ffffffffffffffffffffffffffffffffffffffff1673ffffffffffffffffffffffffffffffffffffffff163373ffffffffffffffffffffffffffffffffffffffff1614610e4a576040517f596dcdb800000000000000000000000000000000000000000000000000000000815260040160405180910390fd5b600073ffffffffffffffffffffffffffffffffffffffff168173ffffffffffffffffffffffffffffffffffffffff1603610eb0576040517f82b4290000000000000000000000000000000000000000000000000000000000815260040160405180910390fd5b80600460006101000a81548173ffffffffffffffffffffffffffffffffffffffff021916908373ffffffffffffffffffffffffffffffffffffffff1602179055508073ffffffffffffffffffffffffffffffffffffffff167fcfe0a21b69993d4730cb79d451e4641024555e34ef92a8ada9eb288f33c65b0160405160405180910390a250565b600360009054906101000a900460ff1681565b6000600554471015905090565b600073ffffffffffffffffffffffffffffffffffffffff16600460009054906101000a900473ffffffffffffffffffffffffffffffffffffffff1673ffffffffffffffffffffffffffffffffffffffff1603610fdf576040517faf47ef4300000000000000000000000000000000000000000000000000000000815260040160405180910390fd5b600460009054906101000a900473ffffffffffffffffffffffffffffffffffffffff1673ffffffffffffffffffffffffffffffffffffffff163373ffffffffffffffffffffffffffffffffffffffff1614611066576040517f82b4290000000000000000000000000000000000000000000000000000000000815260040160405180910390fd5b8160005481106110a2576040517f761f992600000000000000000000000000000000000000000000000000000000815260040160405180910390fd5b60006001600085815260200190815260200160002090508060010160009054906101000a900460ff16611101576040517f93f4d5f800000000000000000000000000000000000000000000000000000000815260040160405180910390fd5b828160000160149054906101000a90046bffffffffffffffffffffffff166bffffffffffffffffffffffff161015611165576040517f2c5211c600000000000000000000000000000000000000000000000000000000815260040160405180910390fd5b828160000160148282829054906101000a90046bffffffffffffffffffffffff166111909190612467565b92506101000a8154816bffffffffffffffffffffffff02191690836bffffffffffffffffffffffff16021790555082600560008282546111d091906123ed565b92505081905550837f60c162fb59529eb1ea9d337024774f5616170137b0af02f3944752cee06466ba846040516112079190612265565b60405180910390a250505050565b600360019054906101000a900473ffffffffffffffffffffffffffffffffffffffff1673ffffffffffffffffffffffffffffffffffffffff163373ffffffffffffffffffffffffffffffffffffffff161461129c576040517f596dcdb800000000000000000000000000000000000000000000000000000000815260040160405180910390fd5b6001600360006101000a81548160ff0219169083151502179055507f9e87fac88ff661f02d44f95383c817fece4bce600a3dab7a54406878b965e75260405160405180910390a1565b600360019054906101000a900473ffffffffffffffffffffffffffffffffffffffff1681565b60055481565b600073ffffffffffffffffffffffffffffffffffffffff16600460009054906101000a900473ffffffffffffffffffffffffffffffffffffffff1673ffffffffffffffffffffffffffffffffffffffff1603611399576040517faf47ef4300000000000000000000000000000000000000000000000000000000815260040160405180910390fd5b600460009054906101000a900473ffffffffffffffffffffffffffffffffffffffff1673ffffffffffffffffffffffffffffffffffffffff163373ffffffffffffffffffffffffffffffffffffffff1614611420576040517f82b4290000000000000000000000000000000000000000000000000000000000815260040160405180910390fd5b80600054811061145c576040517f761f992600000000000000000000000000000000000000000000000000000000815260040160405180910390fd5b60003490506000810361149b576040517f2c5211c600000000000000000000000000000000000000000000000000000000815260040160405180910390fd5b60006001600085815260200190815260200160002090506000828260000160149054906101000a90046bffffffffffffffffffffffff166bffffffffffffffffffffffff166114ea91906124a7565b90506bffffffffffffffffffffffff8016811115611534576040517f89560ca100000000000000000000000000000000000000000000000000000000815260040160405180910390fd5b808260000160146101000a8154816bffffffffffffffffffffffff02191690836bffffffffffffffffffffffff160217905550826005600082825461157991906124a7565b92505081905550847fad46a8c18099204c0673ef4c15c33a4fd3e0c71ad38c6f5bcc46a766fd590f3b846040516115b09190612265565b60405180910390a25050505050565b600460009054906101000a900473ffffffffffffffffffffffffffffffffffffffff1681565b600360009054906101000a900460ff161561162c576040517fab35696f00000000000000000000000000000000000000000000000000000000815260040160405180910390fd5b806000548110611668576040517f761f992600000000000000000000000000000000000000000000000000000000815260040160405180910390fd5b813373ffffffffffffffffffffffffffffffffffffffff166001600083815260200190815260200160002060000160009054906101000a900473ffffffffffffffffffffffffffffffffffffffff1673ffffffffffffffffffffffffffffffffffffffff1614611704576040517f82b4290000000000000000000000000000000000000000000000000000000000815260040160405180910390fd5b60006001600085815260200190815260200160002090508060010160009054906101000a900460ff16611763576040517ff0e69a2c00000000000000000000000000000000000000000000000000000000815260040160405180910390fd5b60008160000160149054906101000a90046bffffffffffffffffffffffff166bffffffffffffffffffffffff16146117c7576040517f2c5211c600000000000000000000000000000000000000000000000000000000815260040160405180910390fd5b60008160010160006101000a81548160ff021916908315150217905550837fe44bdfa26b034aa005128b97a175350b04c733c4cb0343dd46d6cd10558311d460405160405180910390a250505050565b600360009054906101000a900460ff161561185e576040517fab35696f00000000000000000000000000000000000000000000000000000000815260040160405180910390fd5b80600054811061189a576040517f761f992600000000000000000000000000000000000000000000000000000000815260040160405180910390fd5b813373ffffffffffffffffffffffffffffffffffffffff166001600083815260200190815260200160002060000160009054906101000a900473ffffffffffffffffffffffffffffffffffffffff1673ffffffffffffffffffffffffffffffffffffffff1614611936576040517f82b4290000000000000000000000000000000000000000000000000000000000815260040160405180910390fd5b826001600082815260200190815260200160002060010160009054906101000a900460ff16611991576040517f93f4d5f800000000000000000000000000000000000000000000000000000000815260040160405180910390fd5b6000349050600081036119d0576040517f2c5211c600000000000000000000000000000000000000000000000000000000815260040160405180910390fd5b60006001600087815260200190815260200160002090506000828260000160149054906101000a90046bffffffffffffffffffffffff166bffffffffffffffffffffffff16611a1f91906124a7565b90506bffffffffffffffffffffffff8016811115611a69576040517f89560ca100000000000000000000000000000000000000000000000000000000815260040160405180910390fd5b808260000160146101000a8154816bffffffffffffffffffffffff02191690836bffffffffffffffffffffffff1602179055508260056000828254611aae91906124a7565b925050819055503373ffffffffffffffffffffffffffffffffffffffff16877fad5b4075b97dbf75ad5c78f7afac948e4ae611c4fdf2825e2ce3c6c96925bf3b8584604051611afe9291906124db565b60405180910390a350505050505050565b816000548110611b4b576040517f761f992600000000000000000000000000000000000000000000000000000000815260040160405180910390fd5b823373ffffffffffffffffffffffffffffffffffffffff166001600083815260200190815260200160002060000160009054906101000a900473ffffffffffffffffffffffffffffffffffffffff1673ffffffffffffffffffffffffffffffffffffffff1614611be7576040517f82b4290000000000000000000000000000000000000000000000000000000000815260040160405180910390fd5b600260065403611c23576040517fab143c0600000000000000000000000000000000000000000000000000000000815260040160405180910390fd5b6002600681905550600073ffffffffffffffffffffffffffffffffffffffff168373ffffffffffffffffffffffffffffffffffffffff1603611c91576040517f82b4290000000000000000000000000000000000000000000000000000000000815260040160405180910390fd5b600060016000868152602001908152602001600020905060008160000160149054906101000a90046bffffffffffffffffffffffff166bffffffffffffffffffffffff16905060008103611d11576040517f2c5211c600000000000000000000000000000000000000000000000000000000815260040160405180910390fd5b60008260000160146101000a8154816bffffffffffffffffffffffff02191690836bffffffffffffffffffffffff1602179055508060056000828254611d5791906123ed565b9250508190555060008573ffffffffffffffffffffffffffffffffffffffff1682604051611d8490612452565b60006040518083038185875af1925050503d8060008114611dc1576040519150601f19603f3d011682016040523d82523d6000602084013e611dc6565b606091505b5050905080611e01576040517f90b8ec1800000000000000000000000000000000000000000000000000000000815260040160405180910390fd5b8573ffffffffffffffffffffffffffffffffffffffff16877fcf7d23a3cbe4e8b36ff82fd1b05b1b17373dc7804b4ebbd6e2356716ef20237284604051611e489190612265565b60405180910390a3505050600160068190555050505050565b60016020528060005260406000206000915090508060000160009054906101000a900473ffffffffffffffffffffffffffffffffffffffff16908060000160149054906101000a90046bffffffffffffffffffffffff16908060010160009054906101000a900460ff16905083565b600360019054906101000a900473ffffffffffffffffffffffffffffffffffffffff1673ffffffffffffffffffffffffffffffffffffffff163373ffffffffffffffffffffffffffffffffffffffff1614611f57576040517f596dcdb800000000000000000000000000000000000000000000000000000000815260040160405180910390fd5b600073ffffffffffffffffffffffffffffffffffffffff168173ffffffffffffffffffffffffffffffffffffffff1603611fbd576040517f82b4290000000000000000000000000000000000000000000000000000000000815260040160405180910390fd5b6000600360019054906101000a900473ffffffffffffffffffffffffffffffffffffffff16905081600360016101000a81548173ffffffffffffffffffffffffffffffffffffffff021916908373ffffffffffffffffffffffffffffffffffffffff1602179055508173ffffffffffffffffffffffffffffffffffffffff168173ffffffffffffffffffffffffffffffffffffffff167f8be0079c531659141344cd1fd0a4f28419497f9722a3daafe3b4186f6b6457e060405160405180910390a35050565b600080fd5b6000819050919050565b61209b81612088565b81146120a657600080fd5b50565b6000813590506120b881612092565b92915050565b6000602082840312156120d4576120d3612083565b5b60006120e2848285016120a9565b91505092915050565b600073ffffffffffffffffffffffffffffffffffffffff82169050919050565b6000612116826120eb565b9050919050565b6121268161210b565b811461213157600080fd5b50565b6000813590506121438161211d565b92915050565b60006020828403121561215f5761215e612083565b5b600061216d84828501612134565b91505092915050565b600081519050919050565b600082825260208201905092915050565b6000819050602082019050919050565b6121ab81612088565b82525050565b60006121bd83836121a2565b60208301905092915050565b6000602082019050919050565b60006121e182612176565b6121eb8185612181565b93506121f683612192565b8060005b8381101561222757815161220e88826121b1565b9750612219836121c9565b9250506001810190506121fa565b5085935050505092915050565b6000602082019050818103600083015261224e81846121d6565b905092915050565b61225f81612088565b82525050565b600060208201905061227a6000830184612256565b92915050565b60008115159050919050565b61229581612280565b82525050565b60006020820190506122b0600083018461228c565b92915050565b600080604083850312156122cd576122cc612083565b5b60006122db858286016120a9565b92505060206122ec858286016120a9565b9150509250929050565b6122ff8161210b565b82525050565b600060208201905061231a60008301846122f6565b92915050565b6000806040838503121561233757612336612083565b5b6000612345858286016120a9565b925050602061235685828601612134565b9150509250929050565b60006bffffffffffffffffffffffff82169050919050565b61238181612360565b82525050565b600060608201905061239c60008301866122f6565b6123a96020830185612378565b6123b6604083018461228c565b949350505050565b7f4e487b7100000000000000000000000000000000000000000000000000000000600052601160045260246000fd5b60006123f882612088565b915061240383612088565b925082820390508181111561241b5761241a6123be565b5b92915050565b600081905092915050565b50565b600061243c600083612421565b91506124478261242c565b600082019050919050565b600061245d8261242f565b9150819050919050565b600061247282612360565b915061247d83612360565b925082820390506bffffffffffffffffffffffff8111156124a1576124a06123be565b5b92915050565b60006124b282612088565b91506124bd83612088565b92508282019050808211156124d5576124d46123be565b5b92915050565b60006040820190506124f06000830185612256565b6124fd6020830184612256565b939250505056fea2646970667358221220f51f962e5cf841ec7394cd8891ef09e261b493b7b427dade4cda2983e07cfb9a64736f6c63430008180033",
  "linkReferences": {},
  "deployedLinkReferences": {}
}