{
  "_format": "hh-sol-artifact-1",
  "contractName": "TradeExecutor",
  "sourceName": "contracts/TradeExecutor.sol",
  "abi": [
    {
      "inputs": [
        {
          "internalType": "address",
          "name": "_botManager",
          "type": "address"
        },
        {
          "internalType": "address",
          "name": "_priceFeed",
          "type": "address"
        }
      ],
      "stateMutability": "nonpayable",
      "type": "constructor"
    },
    {
      "inputs": [],
      "name": "InsufficientExecutorBalance",
      "type": "error"
    },
    {
      "inputs": [],
      "name": "InvalidBot",
      "type": "error"
    },
    {
      "inputs": [],
      "name": "InvalidPrice",
      "type": "error"
    },
    {
      "inputs": [
        {
          "internalType": "address",
          "name": "owner",
          "type": "address"
        }
      ],
      "name": "OwnableInvalidOwner",
      "type": "error"
    },
    {
      "inputs": [
        {
          "internalType": "address",
          "name": "account",
          "type": "address"
        }
      ],
      "name": "OwnableUnauthorizedAccount",
      "type": "error"
    },
    {
      "inputs": [],
      "name": "ZeroAddress",
      "type": "error"
    },
    {
      "anonymous": false,
      "inputs": [
        {
          "indexed": false,
          "internalType": "address",
          "name": "botManager",
          "type": "address"
        },
        {
          "indexed": false,
          "internalType": "address",
          "name": "priceFeed",
          "type": "address"
        }
      ],
      "name": "AddressesUpdated",
      "type": "event"
    },
    {
      "anonymous": false,
      "inputs": [
        {
          "indexed": true,
          "internalType": "address",
          "name": "previousOwner",
          "type": "address"
        },
        {
          "indexed": true,
          "internalType": "address",
          "name": "newOwner",
          "type": "address"
        }
      ],
      "name": "OwnershipTransferred",
      "type": "event"
    },
    {
      "anonymous": false,
      "inputs": [
        {
          "indexed": true,
          "internalType": "uint256",
          "name": "botId",
          "type": "uint256"
        },
        {
          "indexed": false,
          "internalType": "int256",
          "name": "currentPrice",
          "type": "int256"
        },
        {
          "indexed": false,
          "internalType": "bool",
          "name": "isWin",
          "type": "bool"
        },
        {
          "indexed": false,
          "internalType": "uint256",
          "name": "impactAmount",
          "type": "uint256"
        }
      ],
      "name": "TradeExecuted",
      "type": "event"
    },
    {
      "inputs": [],
      "name": "botManager",
      "outputs": [
        {
          "internalType": "contract ITradingBotManager",
          "name": "",
          "type": "address"
        }
      ],
      "stateMutability": "view",
      "type": "function"
    },
    {
      "inputs": [
        {
          "internalType": "uint256",
          "name": "botId",
          "type": "uint256"
        },
        {
          "internalType": "uint256",
          "name": "tradeAmount",
          "type": "uint256"
        },
        {
          "internalType": "bool",
          "name": "direction",
          "type": "bool"
        },
        {
          "internalType": "int256",
          "name": "referencePrice",
          "type": "int256"
        }
      ],
      "name": "executeSimulatedTrade",
      "outputs": [],
      "stateMutability": "nonpayable",
      "type": "function"
    },
    {
      "inputs": [],
      "name": "getLatestPrice",
      "outputs": [
        {
          "internalType": "int256",
          "name": "",
          "type": "int256"
        }
      ],
      "stateMutability": "view",
      "type": "function"
    },
    {
      "inputs": [],
      "name": "lossPercentage",
      "outputs": [
        {
          "internalType": "uint256",
          "name": "",
          "type": "uint256"
        }
      ],
      "stateMutability": "view",
      "type": "function"
    },
    {
      "inputs": [],
      "name": "owner",
      "outputs": [
        {
          "internalType": "address",
          "name": "",
          "type": "address"
        }
      ],
      "stateMutability": "view",
      "type": "function"
    },
    {
      "inputs": [],
      "name": "priceFeed",
      "outputs": [
        {
          "internalType": "contract AggregatorV3Interface",
          "name": "",
          "type": "address"
        }
      ],
      "stateMutability": "view",
      "type": "function"
    },
    {
      "inputs": [],
      "name": "renounceOwnership",
      "outputs": [],
      "stateMutability": "nonpayable",
      "type": "function"
    },
    {
      "inputs": [],
      "name": "rewardPercentage",
      "outputs": [
        {
          "internalType": "uint256",
          "name": "",
          "type": "uint256"
        }
      ],
      "stateMutability": "view",
      "type": "function"
    },
    {
      "inputs": [
        {
          "internalType": "address",
          "name": "_botManager",
          "type": "address"
        },
        {
          "internalType": "address",
          "name": "_priceFeed",
          "type": "address"
        }
      ],
      "name": "setAddresses",
      "outputs": [],
      "stateMutability": "nonpayable",
      "type": "function"
    },
    {
      "inputs": [
        {
          "internalType": "address",
          "name": "newOwner",
          "type": "address"
        }
      ],
      "name": "transferOwnership",
      "outputs": [],
      "stateMutability": "nonpayable",
      "type": "function"
    },
    {
      "inputs": [
        {
          "internalType": "uint256",
          "name": "amount",
          "type": "uint256"
        }
      ],
      "name": "withdrawLiquidity",
      "outputs": [],
      "stateMutability": "nonpayable",
      "type": "function"
    },
    {
      "stateMutability": "payable",
      "type": "receive"
    }
  ],
  "bytecode": "0x6080604052600560035560056004553480156200001b57600080fd5b506040516200174c3803806200174c833981810160405281019062000041919062000321565b33600073ffffffffffffffffffffffffffffffffffffffff168173ffffffffffffffffffffffffffffffffffffffff1603620000b75760006040517f1e4fbdf7000000000000000000000000000000000000000000000000000000008152600401620000ae919062000379565b60405180910390fd5b620000c881620001f360201b60201c565b50600073ffffffffffffffffffffffffffffffffffffffff168273ffffffffffffffffffffffffffffffffffffffff161480620001315750600073ffffffffffffffffffffffffffffffffffffffff168173ffffffffffffffffffffffffffffffffffffffff16145b1562000169576040517fd92e233d00000000000000000000000000000000000000000000000000000000815260040160405180910390fd5b81600160006101000a81548173ffffffffffffffffffffffffffffffffffffffff021916908373ffffffffffffffffffffffffffffffffffffffff16021790555080600260006101000a81548173ffffffffffffffffffffffffffffffffffffffff021916908373ffffffffffffffffffffffffffffffffffffffff160217905550505062000396565b60008060009054906101000a900473ffffffffffffffffffffffffffffffffffffffff169050816000806101000a81548173ffffffffffffffffffffffffffffffffffffffff021916908373ffffffffffffffffffffffffffffffffffffffff1602179055508173ffffffffffffffffffffffffffffffffffffffff168173ffffffffffffffffffffffffffffffffffffffff167f8be0079c531659141344cd1fd0a4f28419497f9722a3daafe3b4186f6b6457e060405160405180910390a35050565b600080fd5b600073ffffffffffffffffffffffffffffffffffffffff82169050919050565b6000620002e982620002bc565b9050919050565b620002fb81620002dc565b81146200030757600080fd5b50565b6000815190506200031b81620002f0565b92915050565b600080604083850312156200033b576200033a620002b7565b5b60006200034b858286016200030a565b92505060206200035e858286016200030a565b9150509250929050565b6200037381620002dc565b82525050565b600060208201905062000390600083018462000368565b92915050565b6113a680620003a66000396000f3fe6080604052600436106100a05760003560e01c80638da5cb5b116100645780638da5cb5b1461016d5780638e15f4731461019857806390107afe146101c3578063a81183b5146101ec578063e7c01d8614610215578063f2fde38b14610240576100a7565b80630a861f2a146100ac57806350a3238b146100d557806352d472eb14610100578063715018a61461012b578063741bef1a14610142576100a7565b366100a757005b600080fd5b3480156100b857600080fd5b506100d360048036038101906100ce9190610b50565b610269565b005b3480156100e157600080fd5b506100ea610305565b6040516100f79190610bfc565b60405180910390f35b34801561010c57600080fd5b5061011561032b565b6040516101229190610c26565b60405180910390f35b34801561013757600080fd5b50610140610331565b005b34801561014e57600080fd5b50610157610345565b6040516101649190610c62565b60405180910390f35b34801561017957600080fd5b5061018261036b565b60405161018f9190610c9e565b60405180910390f35b3480156101a457600080fd5b506101ad610394565b6040516101ba9190610cd2565b60405180910390f35b3480156101cf57600080fd5b506101ea60048036038101906101e59190610d19565b610435565b005b3480156101f857600080fd5b50610213600480360381019061020e9190610dbd565b61059a565b005b34801561022157600080fd5b5061022a610927565b6040516102379190610c26565b60405180910390f35b34801561024c57600080fd5b5061026760048036038101906102629190610e24565b61092d565b005b6102716109b3565b804710156102b4576040517f08c379a00000000000000000000000000000000000000000000000000000000081526004016102ab90610eae565b60405180910390fd5b6102bc61036b565b73ffffffffffffffffffffffffffffffffffffffff166108fc829081150290604051600060405180830381858888f19350505050158015610301573d6000803e3d6000fd5b5050565b600160009054906101000a900473ffffffffffffffffffffffffffffffffffffffff1681565b60035481565b6103396109b3565b6103436000610a3a565b565b600260009054906101000a900473ffffffffffffffffffffffffffffffffffffffff1681565b60008060009054906101000a900473ffffffffffffffffffffffffffffffffffffffff16905090565b600080600260009054906101000a900473ffffffffffffffffffffffffffffffffffffffff1673ffffffffffffffffffffffffffffffffffffffff1663feaf968c6040518163ffffffff1660e01b815260040160a060405180830381865afa158015610404573d6000803e3d6000fd5b505050506040513d601f19601f820116820180604052508101906104289190610f3a565b5050509150508091505090565b61043d6109b3565b600073ffffffffffffffffffffffffffffffffffffffff168273ffffffffffffffffffffffffffffffffffffffff1614806104a45750600073ffffffffffffffffffffffffffffffffffffffff168173ffffffffffffffffffffffffffffffffffffffff16145b156104db576040517fd92e233d00000000000000000000000000000000000000000000000000000000815260040160405180910390fd5b81600160006101000a81548173ffffffffffffffffffffffffffffffffffffffff021916908373ffffffffffffffffffffffffffffffffffffffff16021790555080600260006101000a81548173ffffffffffffffffffffffffffffffffffffffff021916908373ffffffffffffffffffffffffffffffffffffffff1602179055507fc651c70f44278e4b6b346230d2fcc09308ad801d6dc8b9c055f45581b3609075828260405161058e929190610fb5565b60405180910390a15050565b6105a26109b3565b600080600160009054906101000a900473ffffffffffffffffffffffffffffffffffffffff1673ffffffffffffffffffffffffffffffffffffffff1663f221ddb9876040518263ffffffff1660e01b81526004016106009190610c26565b600060405180830381865afa15801561061d573d6000803e3d6000fd5b505050506040513d6000823e3d601f19601f8201168201806040525081019061064691906111ad565b935093505050801580610666575084826bffffffffffffffffffffffff16105b806106715750600085145b156106a8576040517fc7fcc46100000000000000000000000000000000000000000000000000000000815260040160405180910390fd5b60006106b2610394565b9050600081136106ed576040517ebfc92100000000000000000000000000000000000000000000000000000000815260040160405180910390fd5b6000856106fc57848212610700565b8482135b9050801561083157600060646003548961071a919061125f565b61072491906112d0565b905080471015610760576040517f5bc29c9a00000000000000000000000000000000000000000000000000000000815260040160405180910390fd5b600160009054906101000a900473ffffffffffffffffffffffffffffffffffffffff1673ffffffffffffffffffffffffffffffffffffffff16639d992eeb828b6040518363ffffffff1660e01b81526004016107bc9190610c26565b6000604051808303818588803b1580156107d557600080fd5b505af11580156107e9573d6000803e3d6000fd5b5050505050887fc0ef5ad693c2a94e3a1480eccf40ff4f8d061571fde27bcdfa129e63051296f68460018460405161082393929190611310565b60405180910390a25061091d565b6000606460045489610843919061125f565b61084d91906112d0565b9050600160009054906101000a900473ffffffffffffffffffffffffffffffffffffffff1673ffffffffffffffffffffffffffffffffffffffff16636c667ab18a836040518363ffffffff1660e01b81526004016108ac929190611347565b600060405180830381600087803b1580156108c657600080fd5b505af11580156108da573d6000803e3d6000fd5b50505050887fc0ef5ad693c2a94e3a1480eccf40ff4f8d061571fde27bcdfa129e63051296f68460008460405161091393929190611310565b60405180910390a2505b5050505050505050565b60045481565b6109356109b3565b600073ffffffffffffffffffffffffffffffffffffffff168173ffffffffffffffffffffffffffffffffffffffff16036109a75760006040517f1e4fbdf700000000000000000000000000000000000000000000000000000000815260040161099e9190610c9e565b60405180910390fd5b6109b081610a3a565b50565b6109bb610afe565b73ffffffffffffffffffffffffffffffffffffffff166109d961036b565b73ffffffffffffffffffffffffffffffffffffffff1614610a38576109fc610afe565b6040517f118cdaa7000000000000000000000000000000000000000000000000000000008152600401610a2f9190610c9e565b60405180910390fd5b565b60008060009054906101000a900473ffffffffffffffffffffffffffffffffffffffff169050816000806101000a81548173ffffffffffffffffffffffffffffffffffffffff021916908373ffffffffffffffffffffffffffffffffffffffff1602179055508173ffffffffffffffffffffffffffffffffffffffff168173ffffffffffffffffffffffffffffffffffffffff167f8be0079c531659141344cd1fd0a4f28419497f9722a3daafe3b4186f6b6457e060405160405180910390a35050565b600033905090565b6000604051905090565b600080fd5b600080fd5b6000819050919050565b610b2d81610b1a565b8114610b3857600080fd5b50565b600081359050610b4a81610b24565b92915050565b600060208284031215610b6657610b65610b10565b5b6000610b7484828501610b3b565b91505092915050565b600073ffffffffffffffffffffffffffffffffffffffff82169050919050565b6000819050919050565b6000610bc2610bbd610bb884610b7d565b610b9d565b610b7d565b9050919050565b6000610bd482610ba7565b9050919050565b6000610be682610bc9565b9050919050565b610bf681610bdb565b82525050565b6000602082019050610c116000830184610bed565b92915050565b610c2081610b1a565b82525050565b6000602082019050610c3b6000830184610c17565b92915050565b6000610c4c82610bc9565b9050919050565b610c5c81610c41565b82525050565b6000602082019050610c776000830184610c53565b92915050565b6000610c8882610b7d565b9050919050565b610c9881610c7d565b82525050565b6000602082019050610cb36000830184610c8f565b92915050565b6000819050919050565b610ccc81610cb9565b82525050565b6000602082019050610ce76000830184610cc3565b92915050565b610cf681610c7d565b8114610d0157600080fd5b50565b600081359050610d1381610ced565b92915050565b60008060408385031215610d3057610d2f610b10565b5b6000610d3e85828601610d04565b9250506020610d4f85828601610d04565b9150509250929050565b60008115159050919050565b610d6e81610d59565b8114610d7957600080fd5b50565b600081359050610d8b81610d65565b92915050565b610d9a81610cb9565b8114610da557600080fd5b50565b600081359050610db781610d91565b92915050565b60008060008060808587031215610dd757610dd6610b10565b5b6000610de587828801610b3b565b9450506020610df687828801610b3b565b9350506040610e0787828801610d7c565b9250506060610e1887828801610da8565b91505092959194509250565b600060208284031215610e3a57610e39610b10565b5b6000610e4884828501610d04565b91505092915050565b600082825260208201905092915050565b7f496e73756666696369656e742062616c616e6365000000000000000000000000600082015250565b6000610e98601483610e51565b9150610ea382610e62565b602082019050919050565b60006020820190508181036000830152610ec781610e8b565b9050919050565b600069ffffffffffffffffffff82169050919050565b610eed81610ece565b8114610ef857600080fd5b50565b600081519050610f0a81610ee4565b92915050565b600081519050610f1f81610d91565b92915050565b600081519050610f3481610b24565b92915050565b600080600080600060a08688031215610f5657610f55610b10565b5b6000610f6488828901610efb565b9550506020610f7588828901610f10565b9450506040610f8688828901610f25565b9350506060610f9788828901610f25565b9250506080610fa888828901610efb565b9150509295509295909350565b6000604082019050610fca6000830185610c8f565b610fd76020830184610c8f565b9392505050565b600081519050610fed81610ced565b92915050565b600080fd5b600080fd5b6000601f19601f8301169050919050565b7f4e487b7100000000000000000000000000000000000000000000000000000000600052604160045260246000fd5b61104682610ffd565b810181811067ffffffffffffffff821117156110655761106461100e565b5b80604052505050565b6000611078610b06565b9050611084828261103d565b919050565b600067ffffffffffffffff8211156110a4576110a361100e565b5b6110ad82610ffd565b9050602081019050919050565b60005b838110156110d85780820151818401526020810190506110bd565b60008484015250505050565b60006110f76110f284611089565b61106e565b90508281526020810184848401111561111357611112610ff8565b5b61111e8482856110ba565b509392505050565b600082601f83011261113b5761113a610ff3565b5b815161114b8482602086016110e4565b91505092915050565b60006bffffffffffffffffffffffff82169050919050565b61117581611154565b811461118057600080fd5b50565b6000815190506111928161116c565b92915050565b6000815190506111a781610d65565b92915050565b600080600080608085870312156111c7576111c6610b10565b5b60006111d587828801610fde565b945050602085015167ffffffffffffffff8111156111f6576111f5610b15565b5b61120287828801611126565b935050604061121387828801611183565b925050606061122487828801611198565b91505092959194509250565b7f4e487b7100000000000000000000000000000000000000000000000000000000600052601160045260246000fd5b600061126a82610b1a565b915061127583610b1a565b925082820261128381610b1a565b9150828204841483151761129a57611299611230565b5b5092915050565b7f4e487b7100000000000000000000000000000000000000000000000000000000600052601260045260246000fd5b60006112db82610b1a565b91506112e683610b1a565b9250826112f6576112f56112a1565b5b828204905092915050565b61130a81610d59565b82525050565b60006060820190506113256000830186610cc3565b6113326020830185611301565b61133f6040830184610c17565b949350505050565b600060408201905061135c6000830185610c17565b6113696020830184610c17565b939250505056fea26469706673582212209c29026098b5fd93cadbfcac159ee10142c4ca0b630007c7a8f11f64c7aadba264736f6c63430008180033",
  "linkReferences": {},
  "deployedLinkReferences": {}
}