{
  "_format": "hh-sol-artifact-1",
  "contractName": "TradingBotManager",
  "sourceName": "contracts/TradingBotManager.sol",
  "abi": [
    {
      "inputs": [],
      "stateMutability": "nonpayable",
      "type": "constructor"
    },
    {
      "inputs": [],
      "name": "BalanceOverflow",
      "type": "error"
    },
    {
      "inputs": [],
      "name": "BotAlreadyInactive",
      "type": "error"
    },
    {
      "inputs": [],
      "name": "BotDoesNotExist",
      "type": "error"
    },
    {
      "inputs": [],
      "name": "BotInactive",
      "type": "error"
    },
    {
      "inputs": [],
      "name": "ContractPaused",
      "type": "error"
    },
    {
      "inputs": [],
      "name": "ExecutorNotSet",
      "type": "error"
    },
    {
      "inputs": [],
      "name": "Insolvent",
      "type": "error"
    },
    {
      "inputs": [],
      "name": "InvalidAmount",
      "type": "error"
    },
    {
      "inputs": [],
      "name": "OwnerOnly",
      "type": "error"
    },
    {
      "inputs": [],
      "name": "Reentrancy",
      "type": "error"
    },
    {
      "inputs": [],
      "name": "TransferFailed",
      "type": "error"
    },
    {
      "inputs": [],
      "name": "Unauthorized",
      "type": "error"
    },
    {
      "anonymous": false,
      "inputs": [
        {
          "indexed": true,
          "internalType": "uint256",
          "name": "botId",
          "type": "uint256"
        },
        {
          "indexed": true,
          "internalType": "address",
          "name": "owner",
          "type": "address"
        }
      ],
      "name": "BotCreated",
      "type": "event"
    },
    {
      "anonymous": false,
      "inputs": [
        {
          "indexed": true,
          "internalType": "uint256",
          "name": "botId",
          "type": "uint256"
        },
        {
          "indexed": false,
          "internalType": "uint256",
          "name": "amount",
          "type": "uint256"
        }
      ],
      "name": "BotCredited",
      "type": "event"
    },
    {
      "anonymous": false,
      "inputs": [
        {
          "indexed": true,
          "internalType": "uint256",
          "name": "botId",
          "type": "uint256"
        }
      ],
      "name": "BotDeactivated",
      "type": "event"
    },
    {
      "anonymous": false,
      "inputs": [
        {
          "indexed": true,
          "internalType": "uint256",
          "name": "botId",
          "type": "uint256"
        },
        {
          "indexed": false,
          "internalType": "uint256",
          "name": "amount",
          "type": "uint256"
        }
      ],
      "name": "BotDebited",
      "type": "event"
    },
    {
      "anonymous": false,
      "inputs": [
        {
          "indexed": true,
          "internalType": "uint256",
          "name": "botId",
          "type": "uint256"
        },
        {
          "indexed": true,
          "internalType": "address",
          "name": "owner",
          "type": "address"
        },
        {
          "indexed": false,
          "internalType": "uint256",
          "name": "amount",
          "type": "uint256"
        },
        {
          "indexed": false,
          "internalType": "uint256",
          "name": "newBalance",
          "type": "uint256"
        }
      ],
      "name": "Deposited",
      "type": "event"
    },
    {
      "anonymous": false,
      "inputs": [
        {
          "indexed": true,
          "internalType": "uint256",
          "name": "botId",
          "type": "uint256"
        },
        {
          "indexed": true,
          "internalType": "address",
          "name": "owner",
          "type": "address"
        },
        {
          "indexed": false,
          "internalType": "uint256",
          "name": "amount",
          "type": "uint256"
        }
      ],
      "name": "EmergencyWithdraw",
      "type": "event"
    },
    {
      "anonymous": false,
      "inputs": [
        {
          "indexed": true,
          "internalType": "address",
          "name": "oldOwner",
          "type": "address"
        },
        {
          "indexed": true,
          "internalType": "address",
          "name": "newOwner",
          "type": "address"
        }
      ],
      "name": "OwnershipTransferred",
      "type": "event"
    },
    {
      "anonymous": false,
      "inputs": [],
      "name": "Paused",
      "type": "event"
    },
    {
      "anonymous": false,
      "inputs": [
        {
          "indexed": true,
          "internalType": "address",
          "name": "executor",
          "type": "address"
        }
      ],
      "name": "TradeExecutorUpdated",
      "type": "event"
    },
    {
      "anonymous": false,
      "inputs": [],
      "name": "Unpaused",
      "type": "event"
    },
    {
      "anonymous": false,
      "inputs": [
        {
          "indexed": true,
          "internalType": "uint256",
          "name": "botId",
          "type": "uint256"
        },
        {
          "indexed": true,
          "internalType": "address",
          "name": "receiver",
          "type": "address"
        },
        {
          "indexed": false,
          "internalType": "uint256",
          "name": "amount",
          "type": "uint256"
        }
      ],
      "name": "Withdrawn",
      "type": "event"
    },
    {
      "inputs": [],
      "name": "botCount",
      "outputs": [
        {
          "internalType": "uint256",
          "name": "",
          "type": "uint256"
        }
      ],
      "stateMutability": "view",
      "type": "function"
    },
    {
      "inputs": [
        {
          "internalType": "uint256",
          "name": "",
          "type": "uint256"
        }
      ],
      "name": "bots",
      "outputs": [
        {
          "internalType": "address",
          "name": "owner",
          "type": "address"
        },
        {
          "internalType": "string",
          "name": "configCid",
          "type": "string"
        },
        {
          "internalType": "uint96",
          "name": "balance",
          "type": "uint96"
        },
        {
          "internalType": "bool",
          "name": "active",
          "type": "bool"
        }
      ],
      "stateMutability": "view",
      "type": "function"
    },
    {
      "inputs": [
        {
          "internalType": "string",
          "name": "cid",
          "type": "string"
        }
      ],
      "name": "createBot",
      "outputs": [
        {
          "internalType": "uint256",
          "name": "botId",
          "type": "uint256"
        }
      ],
      "stateMutability": "nonpayable",
      "type": "function"
    },
    {
      "inputs": [
        {
          "internalType": "uint256",
          "name": "botId",
          "type": "uint256"
        }
      ],
      "name": "creditBot",
      "outputs": [],
      "stateMutability": "payable",
      "type": "function"
    },
    {
      "inputs": [
        {
          "internalType": "uint256",
          "name": "botId",
          "type": "uint256"
        }
      ],
      "name": "deactivateBot",
      "outputs": [],
      "stateMutability": "nonpayable",
      "type": "function"
    },
    {
      "inputs": [
        {
          "internalType": "uint256",
          "name": "botId",
          "type": "uint256"
        },
        {
          "internalType": "uint256",
          "name": "amount",
          "type": "uint256"
        }
      ],
      "name": "debitBot",
      "outputs": [],
      "stateMutability": "nonpayable",
      "type": "function"
    },
    {
      "inputs": [
        {
          "internalType": "uint256",
          "name": "botId",
          "type": "uint256"
        }
      ],
      "name": "deposit",
      "outputs": [],
      "stateMutability": "payable",
      "type": "function"
    },
    {
      "inputs": [
        {
          "internalType": "uint256",
          "name": "botId",
          "type": "uint256"
        }
      ],
      "name": "emergencyWithdraw",
      "outputs": [],
      "stateMutability": "nonpayable",
      "type": "function"
    },
    {
      "inputs": [
        {
          "internalType": "address",
          "name": "user",
          "type": "address"
        }
      ],
      "name": "getUserBots",
      "outputs": [
        {
          "internalType": "uint256[]",
          "name": "",
          "type": "uint256[]"
        }
      ],
      "stateMutability": "view",
      "type": "function"
    },
    {
      "inputs": [],
      "name": "isSolvent",
      "outputs": [
        {
          "internalType": "bool",
          "name": "",
          "type": "bool"
        }
      ],
      "stateMutability": "view",
      "type": "function"
    },
    {
      "inputs": [],
      "name": "owner",
      "outputs": [
        {
          "internalType": "address",
          "name": "",
          "type": "address"
        }
      ],
      "stateMutability": "view",
      "type": "function"
    },
    {
      "inputs": [],
      "name": "pause",
      "outputs": [],
      "stateMutability": "nonpayable",
      "type": "function"
    },
    {
      "inputs": [],
      "name": "paused",
      "outputs": [
        {
          "internalType": "bool",
          "name": "",
          "type": "bool"
        }
      ],
      "stateMutability": "view",
      "type": "function"
    },
    {
      "inputs": [
        {
          "internalType": "address",
          "name": "executor",
          "type": "address"
        }
      ],
      "name": "setTradeExecutor",
      "outputs": [],
      "stateMutability": "nonpayable",
      "type": "function"
    },
    {
      "inputs": [],
      "name": "totalFunds",
      "outputs": [
        {
          "internalType": "uint256",
          "name": "",
          "type": "uint256"
        }
      ],
      "stateMutability": "view",
      "type": "function"
    },
    {
      "inputs": [],
      "name": "tradeExecutor",
      "outputs": [
        {
          "internalType": "address",
          "name": "",
          "type": "address"
        }
      ],
      "stateMutability": "view",
      "type": "function"
    },
    {
      "inputs": [
        {
          "internalType": "address",
          "name": "newOwner",
          "type": "address"
        }
      ],
      "name": "transferOwnership",
      "outputs": [],
      "stateMutability": "nonpayable",
      "type": "function"
    },
    {
      "inputs": [],
      "name": "unpause",
      "outputs": [],
      "stateMutability": "nonpayable",
      "type": "function"
    },
    {
      "inputs": [
        {
          "internalType": "uint256",
          "name": "botId",
          "type": "uint256"
        }
      ],
      "name": "withdraw",
      "outputs": [],
      "stateMutability": "nonpayable",
      "type": "function"
    },
    {
      "inputs": [
        {
          "internalType": "uint256",
          "name": "botId",
          "type": "uint256"
        },
        {
          "internalType": "address",
          "name": "to",
          "type": "address"
        }
      ],
      "name": "withdrawTo",
      "outputs": [],
      "stateMutability": "nonpayable",
      "type": "function"
    },
    {
      "stateMutability": "payable",
      "type": "receive"
    }
  ],
  "bytecode": "0x6080604052600160065534801561001557600080fd5b5033600360016101000a81548173ffffffffffffffffffffffffffffffffffffffff021916908373ffffffffffffffffffffffffffffffffffffffff160217905550612aa7806100666000396000f3fe6080604052600436106101235760003560e01c80638da5cb5b116100a0578063b26bf5a011610064578063b26bf5a01461039c578063b6b55f25146103c5578063c86283c8146103e1578063f221ddb91461040a578063f2fde38b1461044a5761012d565b80638da5cb5b146102c2578063968ed600146102ed5780639cbd141c146103185780639d992eeb14610355578063a7f07011146103715761012d565b80635767c659116100e75780635767c659146102035780635c975abb1461022c5780635ce23950146102575780636c667ab1146102825780638456cb59146102ab5761012d565b80632e1a7d4d1461013257806334c1d4291461015b5780633f4ba83a14610198578063428b8617146101af5780635312ea8e146101da5761012d565b3661012d57600080fd5b600080fd5b34801561013e57600080fd5b50610159600480360381019061015491906121c7565b610473565b005b34801561016757600080fd5b50610182600480360381019061017d9190612252565b61075e565b60405161018f919061233d565b60405180910390f35b3480156101a457600080fd5b506101ad6107f5565b005b3480156101bb57600080fd5b506101c46108c5565b6040516101d1919061236e565b60405180910390f35b3480156101e657600080fd5b5061020160048036038101906101fc91906121c7565b6108cb565b005b34801561020f57600080fd5b5061022a60048036038101906102259190612252565b610bd3565b005b34801561023857600080fd5b50610241610d47565b60405161024e91906123a4565b60405180910390f35b34801561026357600080fd5b5061026c610d5a565b60405161027991906123a4565b60405180910390f35b34801561028e57600080fd5b506102a960048036038101906102a491906123bf565b610d67565b005b3480156102b757600080fd5b506102c0611025565b005b3480156102ce57600080fd5b506102d76110f5565b6040516102e4919061240e565b60405180910390f35b3480156102f957600080fd5b5061030261111b565b60405161030f919061236e565b60405180910390f35b34801561032457600080fd5b5061033f600480360381019061033a919061248e565b611121565b60405161034c919061236e565b60405180910390f35b61036f600480360381019061036a91906121c7565b611387565b005b34801561037d57600080fd5b50610386611635565b604051610393919061240e565b60405180910390f35b3480156103a857600080fd5b506103c360048036038101906103be91906121c7565b61165b565b005b6103df60048036038101906103da91906121c7565b61188d565b005b3480156103ed57600080fd5b50610408600480360381019061040391906124db565b611b85565b005b34801561041657600080fd5b50610431600480360381019061042c91906121c7565b611ed7565b60405161044194939291906125d2565b60405180910390f35b34801561045657600080fd5b50610471600480360381019061046c9190612252565b611fd4565b005b8060005481106104af576040517f761f992600000000000000000000000000000000000000000000000000000000815260040160405180910390fd5b813373ffffffffffffffffffffffffffffffffffffffff166001600083815260200190815260200160002060000160009054906101000a900473ffffffffffffffffffffffffffffffffffffffff1673ffffffffffffffffffffffffffffffffffffffff161461054b576040517f82b4290000000000000000000000000000000000000000000000000000000000815260040160405180910390fd5b600260065403610587576040517fab143c0600000000000000000000000000000000000000000000000000000000815260040160405180910390fd5b6002600681905550600060016000858152602001908152602001600020905060008160020160009054906101000a90046bffffffffffffffffffffffff166bffffffffffffffffffffffff1690506000810361060f576040517f2c5211c600000000000000000000000000000000000000000000000000000000815260040160405180910390fd5b60008260020160006101000a8154816bffffffffffffffffffffffff02191690836bffffffffffffffffffffffff1602179055508060056000828254610655919061264d565b9250508190555060003373ffffffffffffffffffffffffffffffffffffffff1682604051610682906126b2565b60006040518083038185875af1925050503d80600081146106bf576040519150601f19603f3d011682016040523d82523d6000602084013e6106c4565b606091505b50509050806106ff576040517f90b8ec1800000000000000000000000000000000000000000000000000000000815260040160405180910390fd5b3373ffffffffffffffffffffffffffffffffffffffff16867fcf7d23a3cbe4e8b36ff82fd1b05b1b17373dc7804b4ebbd6e2356716ef20237284604051610746919061236e565b60405180910390a35050506001600681905550505050565b6060600260008373ffffffffffffffffffffffffffffffffffffffff1673ffffffffffffffffffffffffffffffffffffffff1681526020019081526020016000208054806020026020016040519081016040528092919081815260200182805480156107e957602002820191906000526020600020905b8154815260200190600101908083116107d5575b50505050509050919050565b600360019054906101000a900473ffffffffffffffffffffffffffffffffffffffff1673ffffffffffffffffffffffffffffffffffffffff163373ffffffffffffffffffffffffffffffffffffffff161461087c576040517f596dcdb800000000000000000000000000000000000000000000000000000000815260040160405180910390fd5b6000600360006101000a81548160ff0219169083151502179055507fa45f47fdea8a1efdd9029a5691c7f759c32b7c698632b563573e155625d1693360405160405180910390a1565b60005481565b806000548110610907576040517f761f992600000000000000000000000000000000000000000000000000000000815260040160405180910390fd5b813373ffffffffffffffffffffffffffffffffffffffff166001600083815260200190815260200160002060000160009054906101000a900473ffffffffffffffffffffffffffffffffffffffff1673ffffffffffffffffffffffffffffffffffffffff16146109a3576040517f82b4290000000000000000000000000000000000000000000000000000000000815260040160405180910390fd5b6002600654036109df576040517fab143c0600000000000000000000000000000000000000000000000000000000815260040160405180910390fd5b6002600681905550600060016000858152602001908152602001600020905060008160020160009054906101000a90046bffffffffffffffffffffffff166bffffffffffffffffffffffff16905060008103610a67576040517f2c5211c600000000000000000000000000000000000000000000000000000000815260040160405180910390fd5b60008260020160006101000a8154816bffffffffffffffffffffffff02191690836bffffffffffffffffffffffff160217905550600082600201600c6101000a81548160ff0219169083151502179055508060056000828254610aca919061264d565b9250508190555060003373ffffffffffffffffffffffffffffffffffffffff1682604051610af7906126b2565b60006040518083038185875af1925050503d8060008114610b34576040519150601f19603f3d011682016040523d82523d6000602084013e610b39565b606091505b5050905080610b74576040517f90b8ec1800000000000000000000000000000000000000000000000000000000815260040160405180910390fd5b3373ffffffffffffffffffffffffffffffffffffffff16867f947a9dc0c5e62cc9756634ec0a89afea37eb0305933925040b9bda820044002084604051610bbb919061236e565b60405180910390a35050506001600681905550505050565b600360019054906101000a900473ffffffffffffffffffffffffffffffffffffffff1673ffffffffffffffffffffffffffffffffffffffff163373ffffffffffffffffffffffffffffffffffffffff1614610c5a576040517f596dcdb800000000000000000000000000000000000000000000000000000000815260040160405180910390fd5b600073ffffffffffffffffffffffffffffffffffffffff168173ffffffffffffffffffffffffffffffffffffffff1603610cc0576040517f82b4290000000000000000000000000000000000000000000000000000000000815260040160405180910390fd5b80600460006101000a81548173ffffffffffffffffffffffffffffffffffffffff021916908373ffffffffffffffffffffffffffffffffffffffff1602179055508073ffffffffffffffffffffffffffffffffffffffff167fcfe0a21b69993d4730cb79d451e4641024555e34ef92a8ada9eb288f33c65b0160405160405180910390a250565b600360009054906101000a900460ff1681565b6000600554471015905090565b600073ffffffffffffffffffffffffffffffffffffffff16600460009054906101000a900473ffffffffffffffffffffffffffffffffffffffff1673ffffffffffffffffffffffffffffffffffffffff1603610def576040517faf47ef4300000000000000000000000000000000000000000000000000000000815260040160405180910390fd5b600460009054906101000a900473ffffffffffffffffffffffffffffffffffffffff1673ffffffffffffffffffffffffffffffffffffffff163373ffffffffffffffffffffffffffffffffffffffff1614610e76576040517f82b4290000000000000000000000000000000000000000000000000000000000815260040160405180910390fd5b816000548110610eb2576040517f761f992600000000000000000000000000000000000000000000000000000000815260040160405180910390fd5b600060016000858152602001908152602001600020905080600201600c9054906101000a900460ff16610f11576040517f93f4d5f800000000000000000000000000000000000000000000000000000000815260040160405180910390fd5b828160020160009054906101000a90046bffffffffffffffffffffffff166bffffffffffffffffffffffff161015610f75576040517f2c5211c600000000000000000000000000000000000000000000000000000000815260040160405180910390fd5b828160020160008282829054906101000a90046bffffffffffffffffffffffff16610fa091906126c7565b92506101000a8154816bffffffffffffffffffffffff02191690836bffffffffffffffffffffffff1602179055508260056000828254610fe0919061264d565b92505081905550837f60c162fb59529eb1ea9d337024774f5616170137b0af02f3944752cee06466ba84604051611017919061236e565b60405180910390a250505050565b600360019054906101000a900473ffffffffffffffffffffffffffffffffffffffff1673ffffffffffffffffffffffffffffffffffffffff163373ffffffffffffffffffffffffffffffffffffffff16146110ac576040517f596dcdb800000000000000000000000000000000000000000000000000000000815260040160405180910390fd5b6001600360006101000a81548160ff0219169083151502179055507f9e87fac88ff661f02d44f95383c817fece4bce600a3dab7a54406878b965e75260405160405180910390a1565b600360019054906101000a900473ffffffffffffffffffffffffffffffffffffffff1681565b60055481565b6000600360009054906101000a900460ff161561116a576040517fab35696f00000000000000000000000000000000000000000000000000000000815260040160405180910390fd5b600054905060405180608001604052803373ffffffffffffffffffffffffffffffffffffffff16815260200184848080601f016020809104026020016040519081016040528093929190818152602001838380828437600081840152601f19601f82011690508083019250505050505050815260200160006bffffffffffffffffffffffff168152602001600115158152506001600083815260200190815260200160002060008201518160000160006101000a81548173ffffffffffffffffffffffffffffffffffffffff021916908373ffffffffffffffffffffffffffffffffffffffff160217905550602082015181600101908161126b9190612942565b5060408201518160020160006101000a8154816bffffffffffffffffffffffff02191690836bffffffffffffffffffffffff160217905550606082015181600201600c6101000a81548160ff021916908315150217905550905050600260003373ffffffffffffffffffffffffffffffffffffffff1673ffffffffffffffffffffffffffffffffffffffff1681526020019081526020016000208190806001815401808255809150506001900390600052602060002001600090919091909150553373ffffffffffffffffffffffffffffffffffffffff16817ffbcb41b70b98a06a28a222d724ad892a88f60e58b19254f27ac2e030e37c1fb560405160405180910390a3600080815480929190600101919050555092915050565b600073ffffffffffffffffffffffffffffffffffffffff16600460009054906101000a900473ffffffffffffffffffffffffffffffffffffffff1673ffffffffffffffffffffffffffffffffffffffff160361140f576040517faf47ef4300000000000000000000000000000000000000000000000000000000815260040160405180910390fd5b600460009054906101000a900473ffffffffffffffffffffffffffffffffffffffff1673ffffffffffffffffffffffffffffffffffffffff163373ffffffffffffffffffffffffffffffffffffffff1614611496576040517f82b4290000000000000000000000000000000000000000000000000000000000815260040160405180910390fd5b8060005481106114d2576040517f761f992600000000000000000000000000000000000000000000000000000000815260040160405180910390fd5b600034905060008103611511576040517f2c5211c600000000000000000000000000000000000000000000000000000000815260040160405180910390fd5b60006001600085815260200190815260200160002090506000828260020160009054906101000a90046bffffffffffffffffffffffff166bffffffffffffffffffffffff166115609190612a14565b90506bffffffffffffffffffffffff80168111156115aa576040517f89560ca100000000000000000000000000000000000000000000000000000000815260040160405180910390fd5b808260020160006101000a8154816bffffffffffffffffffffffff02191690836bffffffffffffffffffffffff16021790555082600560008282546115ef9190612a14565b92505081905550847fad46a8c18099204c0673ef4c15c33a4fd3e0c71ad38c6f5bcc46a766fd590f3b84604051611626919061236e565b60405180910390a25050505050565b600460009054906101000a900473ffffffffffffffffffffffffffffffffffffffff1681565b600360009054906101000a900460ff16156116a2576040517fab35696f00000000000000000000000000000000000000000000000000000000815260040160405180910390fd5b8060005481106116de576040517f761f992600000000000000000000000000000000000000000000000000000000815260040160405180910390fd5b813373ffffffffffffffffffffffffffffffffffffffff166001600083815260200190815260200160002060000160009054906101000a900473ffffffffffffffffffffffffffffffffffffffff1673ffffffffffffffffffffffffffffffffffffffff161461177a576040517f82b4290000000000000000000000000000000000000000000000000000000000815260040160405180910390fd5b600060016000858152602001908152602001600020905080600201600c9054906101000a900460ff166117d9576040517ff0e69a2c00000000000000000000000000000000000000000000000000000000815260040160405180910390fd5b60008160020160009054906101000a90046bffffffffffffffffffffffff166bffffffffffffffffffffffff161461183d576040517f2c5211c600000000000000000000000000000000000000000000000000000000815260040160405180910390fd5b600081600201600c6101000a81548160ff021916908315150217905550837fe44bdfa26b034aa005128b97a175350b04c733c4cb0343dd46d6cd10558311d460405160405180910390a250505050565b600360009054906101000a900460ff16156118d4576040517fab35696f00000000000000000000000000000000000000000000000000000000815260040160405180910390fd5b806000548110611910576040517f761f992600000000000000000000000000000000000000000000000000000000815260040160405180910390fd5b813373ffffffffffffffffffffffffffffffffffffffff166001600083815260200190815260200160002060000160009054906101000a900473ffffffffffffffffffffffffffffffffffffffff1673ffffffffffffffffffffffffffffffffffffffff16146119ac576040517f82b4290000000000000000000000000000000000000000000000000000000000815260040160405180910390fd5b8260016000828152602001908152602001600020600201600c9054906101000a900460ff16611a07576040517f93f4d5f800000000000000000000000000000000000000000000000000000000815260040160405180910390fd5b600034905060008103611a46576040517f2c5211c600000000000000000000000000000000000000000000000000000000815260040160405180910390fd5b60006001600087815260200190815260200160002090506000828260020160009054906101000a90046bffffffffffffffffffffffff166bffffffffffffffffffffffff16611a959190612a14565b90506bffffffffffffffffffffffff8016811115611adf576040517f89560ca100000000000000000000000000000000000000000000000000000000815260040160405180910390fd5b808260020160006101000a8154816bffffffffffffffffffffffff02191690836bffffffffffffffffffffffff1602179055508260056000828254611b249190612a14565b925050819055503373ffffffffffffffffffffffffffffffffffffffff16877fad5b4075b97dbf75ad5c78f7afac948e4ae611c4fdf2825e2ce3c6c96925bf3b8584604051611b74929190612a48565b60405180910390a350505050505050565b816000548110611bc1576040517f761f992600000000000000000000000000000000000000000000000000000000815260040160405180910390fd5b823373ffffffffffffffffffffffffffffffffffffffff166001600083815260200190815260200160002060000160009054906101000a900473ffffffffffffffffffffffffffffffffffffffff1673ffffffffffffffffffffffffffffffffffffffff1614611c5d576040517f82b4290000000000000000000000000000000000000000000000000000000000815260040160405180910390fd5b600260065403611c99576040517fab143c0600000000000000000000000000000000000000000000000000000000815260040160405180910390fd5b6002600681905550600073ffffffffffffffffffffffffffffffffffffffff168373ffffffffffffffffffffffffffffffffffffffff1603611d07576040517f82b4290000000000000000000000000000000000000000000000000000000000815260040160405180910390fd5b600060016000868152602001908152602001600020905060008160020160009054906101000a90046bffffffffffffffffffffffff166bffffffffffffffffffffffff16905060008103611d87576040517f2c5211c600000000000000000000000000000000000000000000000000000000815260040160405180910390fd5b60008260020160006101000a8154816bffffffffffffffffffffffff02191690836bffffffffffffffffffffffff1602179055508060056000828254611dcd919061264d565b9250508190555060008573ffffffffffffffffffffffffffffffffffffffff1682604051611dfa906126b2565b60006040518083038185875af1925050503d8060008114611e37576040519150601f19603f3d011682016040523d82523d6000602084013e611e3c565b606091505b5050905080611e77576040517f90b8ec1800000000000000000000000000000000000000000000000000000000815260040160405180910390fd5b8573ffffffffffffffffffffffffffffffffffffffff16877fcf7d23a3cbe4e8b36ff82fd1b05b1b17373dc7804b4ebbd6e2356716ef20237284604051611ebe919061236e565b60405180910390a3505050600160068190555050505050565b60016020528060005260406000206000915090508060000160009054906101000a900473ffffffffffffffffffffffffffffffffffffffff1690806001018054611f2090612765565b80601f0160208091040260200160405190810160405280929190818152602001828054611f4c90612765565b8015611f995780601f10611f6e57610100808354040283529160200191611f99565b820191906000526020600020905b815481529060010190602001808311611f7c57829003601f168201915b5050505050908060020160009054906101000a90046bffffffffffffffffffffffff169080600201600c9054906101000a900460ff16905084565b600360019054906101000a900473ffffffffffffffffffffffffffffffffffffffff1673ffffffffffffffffffffffffffffffffffffffff163373ffffffffffffffffffffffffffffffffffffffff161461205b576040517f596dcdb800000000000000000000000000000000000000000000000000000000815260040160405180910390fd5b600073ffffffffffffffffffffffffffffffffffffffff168173ffffffffffffffffffffffffffffffffffffffff16036120c1576040517f82b4290000000000000000000000000000000000000000000000000000000000815260040160405180910390fd5b6000600360019054906101000a900473ffffffffffffffffffffffffffffffffffffffff16905081600360016101000a81548173ffffffffffffffffffffffffffffffffffffffff021916908373ffffffffffffffffffffffffffffffffffffffff1602179055508173ffffffffffffffffffffffffffffffffffffffff168173ffffffffffffffffffffffffffffffffffffffff167f8be0079c531659141344cd1fd0a4f28419497f9722a3daafe3b4186f6b6457e060405160405180910390a35050565b600080fd5b600080fd5b6000819050919050565b6121a481612191565b81146121af57600080fd5b50565b6000813590506121c18161219b565b92915050565b6000602082840312156121dd576121dc612187565b5b60006121eb848285016121b2565b91505092915050565b600073ffffffffffffffffffffffffffffffffffffffff82169050919050565b600061221f826121f4565b9050919050565b61222f81612214565b811461223a57600080fd5b50565b60008135905061224c81612226565b92915050565b60006020828403121561226857612267612187565b5b60006122768482850161223d565b91505092915050565b600081519050919050565b600082825260208201905092915050565b6000819050602082019050919050565b6122b481612191565b82525050565b60006122c683836122ab565b60208301905092915050565b6000602082019050919050565b60006122ea8261227f565b6122f4818561228a565b93506122ff8361229b565b8060005b8381101561233057815161231788826122ba565b9750612322836122d2565b925050600181019050612303565b5085935050505092915050565b6000602082019050818103600083015261235781846122df565b905092915050565b61236881612191565b82525050565b6000602082019050612383600083018461235f565b92915050565b60008115159050919050565b61239e81612389565b82525050565b60006020820190506123b96000830184612395565b92915050565b600080604083850312156123d6576123d5612187565b5b60006123e4858286016121b2565b92505060206123f5858286016121b2565b9150509250929050565b61240881612214565b82525050565b600060208201905061242360008301846123ff565b92915050565b600080fd5b600080fd5b600080fd5b60008083601f84011261244e5761244d612429565b5b8235905067ffffffffffffffff81111561246b5761246a61242e565b5b60208301915083600182028301111561248757612486612433565b5b9250929050565b600080602083850312156124a5576124a4612187565b5b600083013567ffffffffffffffff8111156124c3576124c261218c565b5b6124cf85828601612438565b92509250509250929050565b600080604083850312156124f2576124f1612187565b5b6000612500858286016121b2565b92505060206125118582860161223d565b9150509250929050565b600081519050919050565b600082825260208201905092915050565b60005b8381101561255557808201518184015260208101905061253a565b60008484015250505050565b6000601f19601f8301169050919050565b600061257d8261251b565b6125878185612526565b9350612597818560208601612537565b6125a081612561565b840191505092915050565b60006bffffffffffffffffffffffff82169050919050565b6125cc816125ab565b82525050565b60006080820190506125e760008301876123ff565b81810360208301526125f98186612572565b905061260860408301856125c3565b6126156060830184612395565b95945050505050565b7f4e487b7100000000000000000000000000000000000000000000000000000000600052601160045260246000fd5b600061265882612191565b915061266383612191565b925082820390508181111561267b5761267a61261e565b5b92915050565b600081905092915050565b50565b600061269c600083612681565b91506126a78261268c565b600082019050919050565b60006126bd8261268f565b9150819050919050565b60006126d2826125ab565b91506126dd836125ab565b925082820390506bffffffffffffffffffffffff8111156127015761270061261e565b5b92915050565b7f4e487b7100000000000000000000000000000000000000000000000000000000600052604160045260246000fd5b7f4e487b7100000000000000000000000000000000000000000000000000000000600052602260045260246000fd5b6000600282049050600182168061277d57607f821691505b6020821081036127905761278f612736565b5b50919050565b60008190508160005260206000209050919050565b60006020601f8301049050919050565b600082821b905092915050565b6000600883026127f87fffffffffffffffffffffffffffffffffffffffffffffffffffffffffffffffff826127bb565b61280286836127bb565b95508019841693508086168417925050509392505050565b6000819050919050565b600061283f61283a61283584612191565b61281a565b612191565b9050919050565b6000819050919050565b61285983612824565b61286d61286582612846565b8484546127c8565b825550505050565b600090565b612882612875565b61288d818484612850565b505050565b5b818110156128b1576128a660008261287a565b600181019050612893565b5050565b601f8211156128f6576128c781612796565b6128d0846127ab565b810160208510156128df578190505b6128f36128eb856127ab565b830182612892565b50505b505050565b600082821c905092915050565b6000612919600019846008026128fb565b1980831691505092915050565b60006129328383612908565b9150826002028217905092915050565b61294b8261251b565b67ffffffffffffffff81111561296457612963612707565b5b61296e8254612765565b6129798282856128b5565b600060209050601f8311600181146129ac576000841561299a578287015190505b6129a48582612926565b865550612a0c565b601f1984166129ba86612796565b60005b828110156129e2578489015182556001820191506020850194506020810190506129bd565b868310156129ff57848901516129fb601f891682612908565b8355505b6001600288020188555050505b505050505050565b6000612a1f82612191565b9150612a2a83612191565b9250828201905080821115612a4257612a4161261e565b5b92915050565b6000604082019050612a5d600083018561235f565b612a6a602083018461235f565b939250505056fea26469706673582212201bb3382b4a3baf29447225568c53ba4de5ac9a64bc5b7347f0030c89b71937c064736f6c63430008180033",
  "linkReferences": {},
  "deployedLinkReferences": {}
}