{
  "contracts/TradingBotManager.sol": {
    "TradingBotManager": {
      "abi": [
        {
          "inputs": [],
          "stateMutability": "nonpayable",
          "type": "constructor"
        },
        {
          "inputs": [],
          "name": "BalanceOverflow",
          "type": "error"
        },
        {
          "inputs": [],
          "name": "BotAlreadyInactive",
          "type": "error"
        },
        {
          "inputs": [],
          "name": "BotDoesNotExist",
          "type": "error"
        },
        {
          "inputs": [],
          "name": "BotInactive",
          "type": "error"
        },
        {
          "inputs": [],
          "name": "ContractPaused",
          "type": "error"
        },
        {
          "inputs": [],
          "name": "ExecutorNotSet",
          "type": "error"
        },
        {
          "inputs": [],
          "name": "Insolvent",
          "type": "error"
        },
        {
          "inputs": [],
          "name": "InvalidAmount",
          "type": "error"
        },
        {
          "inputs": [],
          "name": "OwnerOnly",
          "type": "error"
        },
        {
          "inputs": [],
          "name": "Reentrancy",
          "type": "error"
        },
        {
          "inputs": [],
          "name": "TransferFailed",
          "type": "error"
        },
        {
          "inputs": [],
          "name": "Unauthorized",
          "type": "error"
        },
        {
          "anonymous": false,
          "inputs": [
            {
              "indexed": true,
              "internalType": "uint256",
              "name": "botId",
              "type": "uint256"
            },
            {
              "indexed": true,
              "internalType": "address",
              "name": "owner",
              "type": "address"
            }
          ],
          "name": "BotCreated",
          "type": "event"
        },
        {
          "anonymous": false,
          "inputs": [
            {
              "indexed": true,
              "internalType": "uint256",
              "name": "botId",
              "type": "uint256"
            },
            {
              "indexed": false,
              "internalType": "uint256",
              "name": "amount",
              "type": "uint256"
            }
          ],
          "name": "BotCredited",
          "type": "event"
        },
        {
          "anonymous": false,
          "inputs": [
            {
              "indexed": true,
              "internalType": "uint256",
              "name": "botId",
              "type": "uint256"
            }
          ],
          "name": "BotDeactivated",
          "type": "event"
        },
        {
          "anonymous": false,
          "inputs": [
            {
              "indexed": true,
              "internalType": "uint256",
              "name": "botId",
              "type": "uint256"
            },
            {
              "indexed": false,
              "internalType": "uint256",
              "name": "amount",
              "type": "uint256"
            }
          ],
          "name": "BotDebited",
          "type": "event"
        },
        {
          "anonymous": false,
          "inputs": [
            {
              "indexed": true,
              "internalType": "uint256",
              "name": "botId",
              "type": "uint256"
            },
            {
              "indexed": true,
              "internalType": "address",
              "name": "owner",
              "type": "address"
            },
            {
              "indexed": false,
              "internalType": "uint256",
              "name": "amount",
              "type": "uint256"
            },
            {
              "indexed": false,
              "internalType": "uint256",
              "name": "newBalance",
              "type": "uint256"
            }
          ],
          "name": "Deposited",
          "type": "event"
        },
        {
          "anonymous": false,
          "inputs": [
            {
              "indexed": true,
              "internalType": "uint256",
              "name": "botId",
              "type": "uint256"
            },
            {
              "indexed": true,
              "internalType": "address",
              "name": "owner",
              "type": "address"
            },
            {
              "indexed": false,
              "internalType": "uint256",
              "name": "amount",
              "type": "uint256"
            }
          ],
          "name": "EmergencyWithdraw",
          "type": "event"
        },
        {
          "anonymous": false,
          "inputs": [
            {
              "indexed": true,
              "internalType": "address",
              "name": "oldOwner",
              "type": "address"
            },
            {
              "indexed": true,
              "internalType": "address",
              "name": "newOwner",
              "type": "address"
            }
          ],
          "name": "OwnershipTransferred",
          "type": "event"
        },
        {
          "anonymous": false,
          "inputs": [],
          "name": "Paused",
          "type": "event"
        },
        {
          "anonymous": false,
          "inputs": [
            {
              "indexed": true,
              "internalType": "address",
              "name": "executor",
              "type": "address"
            }
          ],
          "name": "TradeExecutorUpdated",
          "type": "event"
        },
        {
          "anonymous": false,
          "inputs": [],
          "name": "Unpaused",
          "type": "event"
        },
        {
          "anonymous": false,
          "inputs": [
            {
              "indexed": true,
              "internalType": "uint256",
              "name": "botId",
              "type": "uint256"
            },
            {
              "indexed": true,
              "internalType": "address",
              "name": "receiver",
              "type": "address"
            },
            {
              "indexed": false,
              "internalType": "uint256",
              "name": "amount",
              "type": "uint256"
            }
          ],
          "name": "Withdrawn",
          "type": "event"
        },
        {
          "inputs": [],
          "name": "botCount",
          "outputs": [
            {
              "internalType": "uint256",
              "name": "",
              "type": "uint256"
            }
          ],
          "stateMutability": "view",
          "type": "function"
        },
        {
          "inputs": [
            {
              "internalType": "uint256",
              "name": "",
              "type": "uint256"
            }
          ],
          "name": "bots",
          "outputs": [
            {
              "internalType": "address",
              "name": "owner",
              "type": "address"
            },
            {
              "internalType": "string",
              "name": "configCid",
              "type": "string"
            },
            {
              "internalType": "uint96",
              "name": "balance",
              "type": "uint96"
            },
            {
              "internalType": "bool",
              "name": "active",
              "type": "bool"
            }
          ],
          "stateMutability": "view",
          "type": "function"
        },
        {
          "inputs": [
            {
              "internalType": "string",
              "name": "cid",
              "type": "string"
            }
          ],
          "name": "createBot",
          "outputs": [
            {
              "internalType": "uint256",
              "name": "botId",
              "type": "uint256"
            }
          ],
          "stateMutability": "nonpayable",
          "type": "function"
        },
        {
          "inputs": [
            {
              "internalType": "uint256",
              "name": "botId",
              "type": "uint256"
            }
          ],
          "name": "creditBot",
          "outputs": [],
          "stateMutability": "payable",
          "type": "function"
        },
        {
          "inputs": [
            {
              "internalType": "uint256",
              "name": "botId",
              "type": "uint256"
            }
          ],
          "name": "deactivateBot",
          "outputs": [],
          "stateMutability": "nonpayable",
          "type": "function"
        },
        {
          "inputs": [
            {
              "internalType": "uint256",
              "name": "botId",
              "type": "uint256"
            },
            {
              "internalType": "uint256",
              "name": "amount",
              "type": "uint256"
            }
          ],
          "name": "debitBot",
          "outputs": [],
          "stateMutability": "nonpayable",
          "type": "function"
        },
        {
          "inputs": [
            {
              "internalType": "uint256",
              "name": "botId",
              "type": "uint256"
            }
          ],
          "name": "deposit",
          "outputs": [],
          "stateMutability": "payable",
          "type": "function"
        },
        {
          "inputs": [
            {
              "internalType": "uint256",
              "name": "botId",
              "type": "uint256"
            }
          ],
          "name": "emergencyWithdraw",
          "outputs": [],
          "stateMutability": "nonpayable",
          "type": "function"
        },
        {
          "inputs": [
            {
              "internalType": "address",
              "name": "user",
              "type": "address"
            }
          ],
          "name": "getUserBots",
          "outputs": [
            {
              "internalType": "uint256[]",
              "name": "",
              "type": "uint256[]"
            }
          ],
          "stateMutability": "view",
          "type": "function"
        },
        {
          "inputs": [],
          "name": "isSolvent",
          "outputs": [
            {
              "internalType": "bool",
              "name": "",
              "type": "bool"
            }
          ],
          "stateMutability": "view",
          "type": "function"
        },
        {
          "inputs": [],
          "name": "owner",
          "outputs": [
            {
              "internalType": "address",
              "name": "",
              "type": "address"
            }
          ],
          "stateMutability": "view",
          "type": "function"
        },
        {
          "inputs": [],
          "name": "pause",
          "outputs": [],
          "stateMutability": "nonpayable",
          "type": "function"
        },
        {
          "inputs": [],
          "name": "paused",
          "outputs": [
            {
              "internalType": "bool",
              "name": "",
              "type": "bool"
            }
          ],
          "stateMutability": "view",
          "type": "function"
        },
        {
          "inputs": [
            {
              "internalType": "address",
              "name": "executor",
              "type": "address"
            }
          ],
          "name": "setTradeExecutor",
          "outputs": [],
          "stateMutability": "nonpayable",
          "type": "function"
        },
        {
          "inputs": [],
          "name": "totalFunds",
          "outputs": [
            {
              "internalType": "uint256",
              "name": "",
              "type": "uint256"
            }
          ],
          "stateMutability": "view",
          "type": "function"
        },
        {
          "inputs": [],
          "name": "tradeExecutor",
          "outputs": [
            {
              "internalType": "address",
              "name": "",
              "type": "address"
            }
          ],
          "stateMutability": "view",
          "type": "function"
        },
        {
          "inputs": [
            {
              "internalType": "address",
              "name": "newOwner",
              "type": "address"
            }
          ],
          "name": "transferOwnership",
          "outputs": [],
          "stateMutability": "nonpayable",
          "type": "function"
        },
        {
          "inputs": [],
          "name": "unpause",
          "outputs": [],
          "stateMutability": "nonpayable",
          "type": "function"
        },
        {
          "inputs": [
            {
              "internalType": "uint256",
              "name": "botId",
              "type": "uint256"
            }
          ],
          "name": "withdraw",
          "outputs": [],
          "stateMutability": "nonpayable",
          "type": "function"
        },
        {
          "inputs": [
            {
              "internalType": "uint256",
              "name": "botId",
              "type": "uint256"
            },
            {
              "internalType": "address",
              "name": "to",
              "type": "address"
            }
          ],
          "name": "withdrawTo",
          "outputs": [],
          "stateMutability": "nonpayable",
          "type": "function"
        },
        {
          "stateMutability": "payable",
          "type": "receive"
        }
      ],
      "evm": {
        "bytecode": {
          "linkReferences": {},
          "object": "6080604052600160065534801561001557600080fd5b5033600360016101000a81548173ffffffffffffffffffffffffffffffffffffffff021916908373ffffffffffffffffffffffffffffffffffffffff160217905550612aa7806100666000396000f3fe6080604052600436106101235760003560e01c80638da5cb5b116100a0578063b26bf5a011610064578063b26bf5a01461039c578063b6b55f25146103c5578063c86283c8146103e1578063f221ddb91461040a578063f2fde38b1461044a5761012d565b80638da5cb5b146102c2578063968ed600146102ed5780639cbd141c146103185780639d992eeb14610355578063a7f07011146103715761012d565b80635767c659116100e75780635767c659146102035780635c975abb1461022c5780635ce23950146102575780636c667ab1146102825780638456cb59146102ab5761012d565b80632e1a7d4d1461013257806334c1d4291461015b5780633f4ba83a14610198578063428b8617146101af5780635312ea8e146101da5761012d565b3661012d57600080fd5b600080fd5b34801561013e57600080fd5b50610159600480360381019061015491906121c7565b610473565b005b34801561016757600080fd5b50610182600480360381019061017d9190612252565b61075e565b60405161018f919061233d565b60405180910390f35b3480156101a457600080fd5b506101ad6107f5565b005b3480156101bb57600080fd5b506101c46108c5565b6040516101d1919061236e565b60405180910390f35b3480156101e657600080fd5b5061020160048036038101906101fc91906121c7565b6108cb565b005b34801561020f57600080fd5b5061022a60048036038101906102259190612252565b610bd3565b005b34801561023857600080fd5b50610241610d47565b60405161024e91906123a4565b60405180910390f35b34801561026357600080fd5b5061026c610d5a565b60405161027991906123a4565b60405180910390f35b34801561028e57600080fd5b506102a960048036038101906102a491906123bf565b610d67565b005b3480156102b757600080fd5b506102c0611025565b005b3480156102ce57600080fd5b506102d76110f5565b6040516102e4919061240e565b60405180910390f35b3480156102f957600080fd5b5061030261111b565b60405161030f919061236e565b60405180910390f35b34801561032457600080fd5b5061033f600480360381019061033a919061248e565b611121565b60405161034c919061236e565b60405180910390f35b61036f600480360381019061036a91906121c7565b611387565b005b34801561037d57600080fd5b50610386611635565b604051610393919061240e565b60405180910390f35b3480156103a857600080fd5b506103c360048036038101906103be91906121c7565b61165b565b005b6103df60048036038101906103da91906121c7565b61188d565b005b3480156103ed57600080fd5b50610408600480360381019061040391906124db565b611b85565b005b34801561041657600080fd5b50610431600480360381019061042c91906121c7565b611ed7565b60405161044194939291906125d2565b60405180910390f35b34801561045657600080fd5b50610471600480360381019061046c9190612252565b611fd4565b005b8060005481106104af576040517f761f992600000000000000000000000000000000000000000000000000000000815260040160405180910390fd5b813373ffffffffffffffffffffffffffffffffffffffff166001600083815260200190815260200160002060000160009054906101000a900473ffffffffffffffffffffffffffffffffffffffff1673ffffffffffffffffffffffffffffffffffffffff161461054b576040517f82b4290000000000000000000000000000000000000000000000000000000000815260040160405180910390fd5b600260065403610587576040517fab143c0600000000000000000000000000000000000000000000000000000000815260040160405180910390fd5b6002600681905550600060016000858152602001908152602001600020905060008160020160009054906101000a90046bffffffffffffffffffffffff166bffffffffffffffffffffffff1690506000810361060f576040517f2c5211c600000000000000000000000000000000000000000000000000000000815260040160405180910390fd5b60008260020160006101000a8154816bffffffffffffffffffffffff02191690836bffffffffffffffffffffffff1602179055508060056000828254610655919061264d565b9250508190555060003373ffffffffffffffffffffffffffffffffffffffff1682604051610682906126b2565b60006040518083038185875af1925050503d80600081146106bf576040519150601f19603f3d011682016040523d82523d6000602084013e6106c4565b606091505b50509050806106ff576040517f90b8ec1800000000000000000000000000000000000000000000000000000000815260040160405180910390fd5b3373ffffffffffffffffffffffffffffffffffffffff16867fcf7d23a3cbe4e8b36ff82fd1b05b1b17373dc7804b4ebbd6e2356716ef20237284604051610746919061236e565b60405180910390a35050506001600681905550505050565b6060600260008373ffffffffffffffffffffffffffffffffffffffff1673ffffffffffffffffffffffffffffffffffffffff1681526020019081526020016000208054806020026020016040519081016040528092919081815260200182805480156107e957602002820191906000526020600020905b8154815260200190600101908083116107d5575b50505050509050919050565b600360019054906101000a900473ffffffffffffffffffffffffffffffffffffffff1673ffffffffffffffffffffffffffffffffffffffff163373ffffffffffffffffffffffffffffffffffffffff161461087c576040517f596dcdb800000000000000000000000000000000000000000000000000000000815260040160405180910390fd5b6000600360006101000a81548160ff0219169083151502179055507fa45f47fdea8a1efdd9029a5691c7f759c32b7c698632b563573e155625d1693360405160405180910390a1565b60005481565b806000548110610907576040517f761f992600000000000000000000000000000000000000000000000000000000815260040160405180910390fd5b813373ffffffffffffffffffffffffffffffffffffffff166001600083815260200190815260200160002060000160009054906101000a900473ffffffffffffffffffffffffffffffffffffffff1673ffffffffffffffffffffffffffffffffffffffff16146109a3576040517f82b4290000000000000000000000000000000000000000000000000000000000815260040160405180910390fd5b6002600654036109df576040517fab143c0600000000000000000000000000000000000000000000000000000000815260040160405180910390fd5b6002600681905550600060016000858152602001908152602001600020905060008160020160009054906101000a90046bffffffffffffffffffffffff166bffffffffffffffffffffffff16905060008103610a67576040517f2c5211c600000000000000000000000000000000000000000000000000000000815260040160405180910390fd5b60008260020160006101000a8154816bffffffffffffffffffffffff02191690836bffffffffffffffffffffffff160217905550600082600201600c6101000a81548160ff0219169083151502179055508060056000828254610aca919061264d565b9250508190555060003373ffffffffffffffffffffffffffffffffffffffff1682604051610af7906126b2565b60006040518083038185875af1925050503d8060008114610b34576040519150601f19603f3d011682016040523d82523d6000602084013e610b39565b606091505b5050905080610b74576040517f90b8ec1800000000000000000000000000000000000000000000000000000000815260040160405180910390fd5b3373ffffffffffffffffffffffffffffffffffffffff16867f947a9dc0c5e62cc9756634ec0a89afea37eb0305933925040b9bda820044002084604051610bbb919061236e565b60405180910390a35050506001600681905550505050565b600360019054906101000a900473ffffffffffffffffffffffffffffffffffffffff1673ffffffffffffffffffffffffffffffffffffffff163373ffffffffffffffffffffffffffffffffffffffff1614610c5a576040517f596dcdb800000000000000000000000000000000000000000000000000000000815260040160405180910390fd5b600073ffffffffffffffffffffffffffffffffffffffff168173ffffffffffffffffffffffffffffffffffffffff1603610cc0576040517f82b4290000000000000000000000000000000000000000000000000000000000815260040160405180910390fd5b80600460006101000a81548173ffffffffffffffffffffffffffffffffffffffff021916908373ffffffffffffffffffffffffffffffffffffffff1602179055508073ffffffffffffffffffffffffffffffffffffffff167fcfe0a21b69993d4730cb79d451e4641024555e34ef92a8ada9eb288f33c65b0160405160405180910390a250565b600360009054906101000a900460ff1681565b6000600554471015905090565b600073ffffffffffffffffffffffffffffffffffffffff16600460009054906101000a900473ffffffffffffffffffffffffffffffffffffffff1673ffffffffffffffffffffffffffffffffffffffff1603610def576040517faf47ef4300000000000000000000000000000000000000000000000000000000815260040160405180910390fd5b600460009054906101000a900473ffffffffffffffffffffffffffffffffffffffff1673ffffffffffffffffffffffffffffffffffffffff163373ffffffffffffffffffffffffffffffffffffffff1614610e76576040517f82b4290000000000000000000000000000000000000000000000000000000000815260040160405180910390fd5b816000548110610eb2576040517f761f992600000000000000000000000000000000000000000000000000000000815260040160405180910390fd5b600060016000858152602001908152602001600020905080600201600c9054906101000a900460ff16610f11576040517f93f4d5f800000000000000000000000000000000000000000000000000000000815260040160405180910390fd5b828160020160009054906101000a90046bffffffffffffffffffffffff166bffffffffffffffffffffffff161015610f75576040517f2c5211c600000000000000000000000000000000000000000000000000000000815260040160405180910390fd5b828160020160008282829054906101000a90046bffffffffffffffffffffffff16610fa091906126c7565b92506101000a8154816bffffffffffffffffffffffff02191690836bffffffffffffffffffffffff1602179055508260056000828254610fe0919061264d565b92505081905550837f60c162fb59529eb1ea9d337024774f5616170137b0af02f3944752cee06466ba84604051611017919061236e565b60405180910390a250505050565b600360019054906101000a900473ffffffffffffffffffffffffffffffffffffffff1673ffffffffffffffffffffffffffffffffffffffff163373ffffffffffffffffffffffffffffffffffffffff16146110ac576040517f596dcdb800000000000000000000000000000000000000000000000000000000815260040160405180910390fd5b6001600360006101000a81548160ff0219169083151502179055507f9e87fac88ff661f02d44f95383c817fece4bce600a3dab7a54406878b965e75260405160405180910390a1565b600360019054906101000a900473ffffffffffffffffffffffffffffffffffffffff1681565b60055481565b6000600360009054906101000a900460ff161561116a576040517fab35696f00000000000000000000000000000000000000000000000000000000815260040160405180910390fd5b600054905060405180608001604052803373ffffffffffffffffffffffffffffffffffffffff16815260200184848080601f016020809104026020016040519081016040528093929190818152602001838380828437600081840152601f19601f82011690508083019250505050505050815260200160006bffffffffffffffffffffffff168152602001600115158152506001600083815260200190815260200160002060008201518160000160006101000a81548173ffffffffffffffffffffffffffffffffffffffff021916908373ffffffffffffffffffffffffffffffffffffffff160217905550602082015181600101908161126b9190612942565b5060408201518160020160006101000a8154816bffffffffffffffffffffffff02191690836bffffffffffffffffffffffff160217905550606082015181600201600c6101000a81548160ff021916908315150217905550905050600260003373ffffffffffffffffffffffffffffffffffffffff1673ffffffffffffffffffffffffffffffffffffffff1681526020019081526020016000208190806001815401808255809150506001900390600052602060002001600090919091909150553373ffffffffffffffffffffffffffffffffffffffff16817ffbcb41b70b98a06a28a222d724ad892a88f60e58b19254f27ac2e030e37c1fb560405160405180910390a3600080815480929190600101919050555092915050565b600073ffffffffffffffffffffffffffffffffffffffff16600460009054906101000a900473ffffffffffffffffffffffffffffffffffffffff1673ffffffffffffffffffffffffffffffffffffffff160361140f576040517faf47ef4300000000000000000000000000000000000000000000000000000000815260040160405180910390fd5b600460009054906101000a900473ffffffffffffffffffffffffffffffffffffffff1673ffffffffffffffffffffffffffffffffffffffff163373ffffffffffffffffffffffffffffffffffffffff1614611496576040517f82b4290000000000000000000000000000000000000000000000000000000000815260040160405180910390fd5b8060005481106114d2576040517f761f992600000000000000000000000000000000000000000000000000000000815260040160405180910390fd5b600034905060008103611511576040517f2c5211c600000000000000000000000000000000000000000000000000000000815260040160405180910390fd5b60006001600085815260200190815260200160002090506000828260020160009054906101000a90046bffffffffffffffffffffffff166bffffffffffffffffffffffff166115609190612a14565b90506bffffffffffffffffffffffff80168111156115aa576040517f89560ca100000000000000000000000000000000000000000000000000000000815260040160405180910390fd5b808260020160006101000a8154816bffffffffffffffffffffffff02191690836bffffffffffffffffffffffff16021790555082600560008282546115ef9190612a14565b92505081905550847fad46a8c18099204c0673ef4c15c33a4fd3e0c71ad38c6f5bcc46a766fd590f3b84604051611626919061236e565b60405180910390a25050505050565b600460009054906101000a900473ffffffffffffffffffffffffffffffffffffffff1681565b600360009054906101000a900460ff16156116a2576040517fab35696f00000000000000000000000000000000000000000000000000000000815260040160405180910390fd5b8060005481106116de576040517f761f992600000000000000000000000000000000000000000000000000000000815260040160405180910390fd5b813373ffffffffffffffffffffffffffffffffffffffff166001600083815260200190815260200160002060000160009054906101000a900473ffffffffffffffffffffffffffffffffffffffff1673ffffffffffffffffffffffffffffffffffffffff161461177a576040517f82b4290000000000000000000000000000000000000000000000000000000000815260040160405180910390fd5b600060016000858152602001908152602001600020905080600201600c9054906101000a900460ff166117d9576040517ff0e69a2c00000000000000000000000000000000000000000000000000000000815260040160405180910390fd5b60008160020160009054906101000a90046bffffffffffffffffffffffff166bffffffffffffffffffffffff161461183d576040517f2c5211c600000000000000000000000000000000000000000000000000000000815260040160405180910390fd5b600081600201600c6101000a81548160ff021916908315150217905550837fe44bdfa26b034aa005128b97a175350b04c733c4cb0343dd46d6cd10558311d460405160405180910390a250505050565b600360009054906101000a900460ff16156118d4576040517fab35696f00000000000000000000000000000000000000000000000000000000815260040160405180910390fd5b806000548110611910576040517f761f992600000000000000000000000000000000000000000000000000000000815260040160405180910390fd5b813373ffffffffffffffffffffffffffffffffffffffff166001600083815260200190815260200160002060000160009054906101000a900473ffffffffffffffffffffffffffffffffffffffff1673ffffffffffffffffffffffffffffffffffffffff16146119ac576040517f82b4290000000000000000000000000000000000000000000000000000000000815260040160405180910390fd5b8260016000828152602001908152602001600020600201600c9054906101000a900460ff16611a07576040517f93f4d5f800000000000000000000000000000000000000000000000000000000815260040160405180910390fd5b600034905060008103611a46576040517f2c5211c600000000000000000000000000000000000000000000000000000000815260040160405180910390fd5b60006001600087815260200190815260200160002090506000828260020160009054906101000a90046bffffffffffffffffffffffff166bffffffffffffffffffffffff16611a959190612a14565b90506bffffffffffffffffffffffff8016811115611adf576040517f89560ca100000000000000000000000000000000000000000000000000000000815260040160405180910390fd5b808260020160006101000a8154816bffffffffffffffffffffffff02191690836bffffffffffffffffffffffff1602179055508260056000828254611b249190612a14565b925050819055503373ffffffffffffffffffffffffffffffffffffffff16877fad5b4075b97dbf75ad5c78f7afac948e4ae611c4fdf2825e2ce3c6c96925bf3b8584604051611b74929190612a48565b60405180910390a350505050505050565b816000548110611bc1576040517f761f992600000000000000000000000000000000000000000000000000000000815260040160405180910390fd5b823373ffffffffffffffffffffffffffffffffffffffff166001600083815260200190815260200160002060000160009054906101000a900473ffffffffffffffffffffffffffffffffffffffff1673ffffffffffffffffffffffffffffffffffffffff1614611c5d576040517f82b4290000000000000000000000000000000000000000000000000000000000815260040160405180910390fd5b600260065403611c99576040517fab143c0600000000000000000000000000000000000000000000000000000000815260040160405180910390fd5b6002600681905550600073ffffffffffffffffffffffffffffffffffffffff168373ffffffffffffffffffffffffffffffffffffffff1603611d07576040517f82b4290000000000000000000000000000000000000000000000000000000000815260040160405180910390fd5b600060016000868152602001908152602001600020905060008160020160009054906101000a90046bffffffffffffffffffffffff166bffffffffffffffffffffffff16905060008103611d87576040517f2c5211c600000000000000000000000000000000000000000000000000000000815260040160405180910390fd5b60008260020160006101000a8154816bffffffffffffffffffffffff02191690836bffffffffffffffffffffffff1602179055508060056000828254611dcd919061264d565b9250508190555060008573ffffffffffffffffffffffffffffffffffffffff1682604051611dfa906126b2565b60006040518083038185875af1925050503d8060008114611e37576040519150601f19603f3d011682016040523d82523d6000602084013e611e3c565b606091505b5050905080611e77576040517f90b8ec1800000000000000000000000000000000000000000000000000000000815260040160405180910390fd5b8573ffffffffffffffffffffffffffffffffffffffff16877fcf7d23a3cbe4e8b36ff82fd1b05b1b17373dc7804b4ebbd6e2356716ef20237284604051611ebe919061236e565b60405180910390a3505050600160068190555050505050565b60016020528060005260406000206000915090508060000160009054906101000a900473ffffffffffffffffffffffffffffffffffffffff1690806001018054611f2090612765565b80601f0160208091040260200160405190810160405280929190818152602001828054611f4c90612765565b8015611f995780601f10611f6e57610100808354040283529160200191611f99565b820191906000526020600020905b815481529060010190602001808311611f7c57829003601f168201915b5050505050908060020160009054906101000a90046bffffffffffffffffffffffff169080600201600c9054906101000a900460ff16905084565b600360019054906101000a900473ffffffffffffffffffffffffffffffffffffffff1673ffffffffffffffffffffffffffffffffffffffff163373ffffffffffffffffffffffffffffffffffffffff161461205b576040517f596dcdb800000000000000000000000000000000000000000000000000000000815260040160405180910390fd5b600073ffffffffffffffffffffffffffffffffffffffff168173ffffffffffffffffffffffffffffffffffffffff16036120c1576040517f82b4290000000000000000000000000000000000000000000000000000000000815260040160405180910390fd5b6000600360019054906101000a900473ffffffffffffffffffffffffffffffffffffffff16905081600360016101000a81548173ffffffffffffffffffffffffffffffffffffffff021916908373ffffffffffffffffffffffffffffffffffffffff1602179055508173ffffffffffffffffffffffffffffffffffffffff168173ffffffffffffffffffffffffffffffffffffffff167f8be0079c531659141344cd1fd0a4f28419497f9722a3daafe3b4186f6b6457e060405160405180910390a35050565b600080fd5b600080fd5b6000819050919050565b6121a481612191565b81146121af57600080fd5b50565b6000813590506121c18161219b565b92915050565b6000602082840312156121dd576121dc612187565b5b60006121eb848285016121b2565b91505092915050565b600073ffffffffffffffffffffffffffffffffffffffff82169050919050565b600061221f826121f4565b9050919050565b61222f81612214565b811461223a57600080fd5b50565b60008135905061224c81612226565b92915050565b60006020828403121561226857612267612187565b5b60006122768482850161223d565b91505092915050565b600081519050919050565b600082825260208201905092915050565b6000819050602082019050919050565b6122b481612191565b82525050565b60006122c683836122ab565b60208301905092915050565b6000602082019050919050565b60006122ea8261227f565b6122f4818561228a565b93506122ff8361229b565b8060005b8381101561233057815161231788826122ba565b9750612322836122d2565b925050600181019050612303565b5085935050505092915050565b6000602082019050818103600083015261235781846122df565b905092915050565b61236881612191565b82525050565b6000602082019050612383600083018461235f565b92915050565b60008115159050919050565b61239e81612389565b82525050565b60006020820190506123b96000830184612395565b92915050565b600080604083850312156123d6576123d5612187565b5b60006123e4858286016121b2565b92505060206123f5858286016121b2565b9150509250929050565b61240881612214565b82525050565b600060208201905061242360008301846123ff565b92915050565b600080fd5b600080fd5b600080fd5b60008083601f84011261244e5761244d612429565b5b8235905067ffffffffffffffff81111561246b5761246a61242e565b5b60208301915083600182028301111561248757612486612433565b5b9250929050565b600080602083850312156124a5576124a4612187565b5b600083013567ffffffffffffffff8111156124c3576124c261218c565b5b6124cf85828601612438565b92509250509250929050565b600080604083850312156124f2576124f1612187565b5b6000612500858286016121b2565b92505060206125118582860161223d565b9150509250929050565b600081519050919050565b600082825260208201905092915050565b60005b8381101561255557808201518184015260208101905061253a565b60008484015250505050565b6000601f19601f8301169050919050565b600061257d8261251b565b6125878185612526565b9350612597818560208601612537565b6125a081612561565b840191505092915050565b60006bffffffffffffffffffffffff82169050919050565b6125cc816125ab565b82525050565b60006080820190506125e760008301876123ff565b81810360208301526125f98186612572565b905061260860408301856125c3565b6126156060830184612395565b95945050505050565b7f4e487b7100000000000000000000000000000000000000000000000000000000600052601160045260246000fd5b600061265882612191565b915061266383612191565b925082820390508181111561267b5761267a61261e565b5b92915050565b600081905092915050565b50565b600061269c600083612681565b91506126a78261268c565b600082019050919050565b60006126bd8261268f565b9150819050919050565b60006126d2826125ab565b91506126dd836125ab565b925082820390506bffffffffffffffffffffffff8111156127015761270061261e565b5b92915050565b7f4e487b7100000000000000000000000000000000000000000000000000000000600052604160045260246000fd5b7f4e487b7100000000000000000000000000000000000000000000000000000000600052602260045260246000fd5b6000600282049050600182168061277d57607f821691505b6020821081036127905761278f612736565b5b50919050565b60008190508160005260206000209050919050565b60006020601f8301049050919050565b600082821b905092915050565b6000600883026127f87fffffffffffffffffffffffffffffffffffffffffffffffffffffffffffffffff826127bb565b61280286836127bb565b95508019841693508086168417925050509392505050565b6000819050919050565b600061283f61283a61283584612191565b61281a565b612191565b9050919050565b6000819050919050565b61285983612824565b61286d61286582612846565b8484546127c8565b825550505050565b600090565b612882612875565b61288d818484612850565b505050565b5b818110156128b1576128a660008261287a565b600181019050612893565b5050565b601f8211156128f6576128c781612796565b6128d0846127ab565b810160208510156128df578190505b6128f36128eb856127ab565b830182612892565b50505b505050565b600082821c905092915050565b6000612919600019846008026128fb565b1980831691505092915050565b60006129328383612908565b9150826002028217905092915050565b61294b8261251b565b67ffffffffffffffff81111561296457612963612707565b5b61296e8254612765565b6129798282856128b5565b600060209050601f8311600181146129ac576000841561299a578287015190505b6129a48582612926565b865550612a0c565b601f1984166129ba86612796565b60005b828110156129e2578489015182556001820191506020850194506020810190506129bd565b868310156129ff57848901516129fb601f891682612908565b8355505b6001600288020188555050505b505050505050565b6000612a1f82612191565b9150612a2a83612191565b9250828201905080821115612a4257612a4161261e565b5b92915050565b6000604082019050612a5d600083018561235f565b612a6a602083018461235f565b939250505056fea26469706673582212201bb3382b4a3baf29447225568c53ba4de5ac9a64bc5b7347f0030c89b71937c064736f6c63430008180033",
          "opcodes": "PUSH1 0x80 PUSH1 0x40 MSTORE PUSH1 0x1 PUSH1 0x6 SSTORE CALLVALUE DUP1 ISZERO PUSH2 0x15 JUMPI PUSH1 0x0 DUP1 REVERT JUMPDEST POP CALLER PUSH1 0x3 PUSH1 0x1 PUSH2 0x100 EXP DUP2 SLOAD DUP2 PUSH20 0xFFFFFFFFFFFFFFFFFFFFFFFFFFFFFFFFFFFFFFFF MUL NOT AND SWAP1 DUP4 PUSH20 0xFFFFFFFFFFFFFFFFFFFFFFFFFFFFFFFFFFFFFFFF AND MUL OR SWAP1 SSTORE POP PUSH2 0x2AA7 DUP1 PUSH2 0x66 PUSH1 0x0 CODECOPY PUSH1 0x0 RETURN INVALID PUSH1 0x80 PUSH1 0x40 MSTORE PUSH1 0x4 CALLDATASIZE LT PUSH2 0x123 JUMPI PUSH1 0x0 CALLDATALOAD PUSH1 0xE0 SHR DUP1 PUSH4 0x8DA5CB5B GT PUSH2 0xA0 JUMPI DUP1 PUSH4 0xB26BF5A0 GT PUSH2 0x64 JUMPI DUP1 PUSH4 0xB26BF5A0 EQ PUSH2 0x39C JUMPI DUP1 PUSH4 0xB6B55F25 EQ PUSH2 0x3C5 JUMPI DUP1 PUSH4 0xC86283C8 EQ PUSH2 0x3E1 JUMPI DUP1 PUSH4 0xF221DDB9 EQ PUSH2 0x40A JUMPI DUP1 PUSH4 0xF2FDE38B EQ PUSH2 0x44A JUMPI PUSH2 0x12D JUMP JUMPDEST DUP1 PUSH4 0x8DA5CB5B EQ PUSH2 0x2C2 JUMPI DUP1 PUSH4 0x968ED600 EQ PUSH2 0x2ED JUMPI DUP1 PUSH4 0x9CBD141C EQ PUSH2 0x318 JUMPI DUP1 PUSH4 0x9D992EEB EQ PUSH2 0x355 JUMPI DUP1 PUSH4 0xA7F07011 EQ PUSH2 0x371 JUMPI PUSH2 0x12D JUMP JUMPDEST DUP1 PUSH4 0x5767C659 GT PUSH2 0xE7 JUMPI DUP1 PUSH4 0x5767C659 EQ PUSH2 0x203 JUMPI DUP1 PUSH4 0x5C975ABB EQ PUSH2 0x22C JUMPI DUP1 PUSH4 0x5CE23950 EQ PUSH2 0x257 JUMPI DUP1 PUSH4 0x6C667AB1 EQ PUSH2 0x282 JUMPI DUP1 PUSH4 0x8456CB59 EQ PUSH2 0x2AB JUMPI PUSH2 0x12D JUMP JUMPDEST DUP1 PUSH4 0x2E1A7D4D EQ PUSH2 0x132 JUMPI DUP1 PUSH4 0x34C1D429 EQ PUSH2 0x15B JUMPI DUP1 PUSH4 0x3F4BA83A EQ PUSH2 0x198 JUMPI DUP1 PUSH4 0x428B8617 EQ PUSH2 0x1AF JUMPI DUP1 PUSH4 0x5312EA8E EQ PUSH2 0x1DA JUMPI PUSH2 0x12D JUMP JUMPDEST CALLDATASIZE PUSH2 0x12D JUMPI PUSH1 0x0 DUP1 REVERT JUMPDEST PUSH1 0x0 DUP1 REVERT JUMPDEST CALLVALUE DUP1 ISZERO PUSH2 0x13E JUMPI PUSH1 0x0 DUP1 REVERT JUMPDEST POP PUSH2 0x159 PUSH1 0x4 DUP1 CALLDATASIZE SUB DUP2 ADD SWAP1 PUSH2 0x154 SWAP2 SWAP1 PUSH2 0x21C7 JUMP JUMPDEST PUSH2 0x473 JUMP JUMPDEST STOP JUMPDEST CALLVALUE DUP1 ISZERO PUSH2 0x167 JUMPI PUSH1 0x0 DUP1 REVERT JUMPDEST POP PUSH2 0x182 PUSH1 0x4 DUP1 CALLDATASIZE SUB DUP2 ADD SWAP1 PUSH2 0x17D SWAP2 SWAP1 PUSH2 0x2252 JUMP JUMPDEST PUSH2 0x75E JUMP JUMPDEST PUSH1 0x40 MLOAD PUSH2 0x18F SWAP2 SWAP1 PUSH2 0x233D JUMP JUMPDEST PUSH1 0x40 MLOAD DUP1 SWAP2 SUB SWAP1 RETURN JUMPDEST CALLVALUE DUP1 ISZERO PUSH2 0x1A4 JUMPI PUSH1 0x0 DUP1 REVERT JUMPDEST POP PUSH2 0x1AD PUSH2 0x7F5 JUMP JUMPDEST STOP JUMPDEST CALLVALUE DUP1 ISZERO PUSH2 0x1BB JUMPI PUSH1 0x0 DUP1 REVERT JUMPDEST POP PUSH2 0x1C4 PUSH2 0x8C5 JUMP JUMPDEST PUSH1 0x40 MLOAD PUSH2 0x1D1 SWAP2 SWAP1 PUSH2 0x236E JUMP JUMPDEST PUSH1 0x40 MLOAD DUP1 SWAP2 SUB SWAP1 RETURN JUMPDEST CALLVALUE DUP1 ISZERO PUSH2 0x1E6 JUMPI PUSH1 0x0 DUP1 REVERT JUMPDEST POP PUSH2 0x201 PUSH1 0x4 DUP1 CALLDATASIZE SUB DUP2 ADD SWAP1 PUSH2 0x1FC SWAP2 SWAP1 PUSH2 0x21C7 JUMP JUMPDEST PUSH2 0x8CB JUMP JUMPDEST STOP JUMPDEST CALLVALUE DUP1 ISZERO PUSH2 0x20F JUMPI PUSH1 0x0 DUP1 REVERT JUMPDEST POP PUSH2 0x22A PUSH1 0x4 DUP1 CALLDATASIZE SUB DUP2 ADD SWAP1 PUSH2 0x225 SWAP2 SWAP1 PUSH2 0x2252 JUMP JUMPDEST PUSH2 0xBD3 JUMP JUMPDEST STOP JUMPDEST CALLVALUE DUP1 ISZERO PUSH2 0x238 JUMPI PUSH1 0x0 DUP1 REVERT JUMPDEST POP PUSH2 0x241 PUSH2 0xD47 JUMP JUMPDEST PUSH1 0x40 MLOAD PUSH2 0x24E SWAP2 SWAP1 PUSH2 0x23A4 JUMP JUMPDEST PUSH1 0x40 MLOAD DUP1 SWAP2 SUB SWAP1 RETURN JUMPDEST CALLVALUE DUP1 ISZERO PUSH2 0x263 JUMPI PUSH1 0x0 DUP1 REVERT JUMPDEST POP PUSH2 0x26C PUSH2 0xD5A JUMP JUMPDEST PUSH1 0x40 MLOAD PUSH2 0x279 SWAP2 SWAP1 PUSH2 0x23A4 JUMP JUMPDEST PUSH1 0x40 MLOAD DUP1 SWAP2 SUB SWAP1 RETURN JUMPDEST CALLVALUE DUP1 ISZERO PUSH2 0x28E JUMPI PUSH1 0x0 DUP1 REVERT JUMPDEST POP PUSH2 0x2A9 PUSH1 0x4 DUP1 CALLDATASIZE SUB DUP2 ADD SWAP1 PUSH2 0x2A4 SWAP2 SWAP1 PUSH2 0x23BF JUMP JUMPDEST PUSH2 0xD67 JUMP JUMPDEST STOP JUMPDEST CALLVALUE DUP1 ISZERO PUSH2 0x2B7 JUMPI PUSH1 0x0 DUP1 REVERT JUMPDEST POP PUSH2 0x2C0 PUSH2 0x1025 JUMP JUMPDEST STOP JUMPDEST CALLVALUE DUP1 ISZERO PUSH2 0x2CE JUMPI PUSH1 0x0 DUP1 REVERT JUMPDEST POP PUSH2 0x2D7 PUSH2 0x10F5 JUMP JUMPDEST PUSH1 0x40 MLOAD PUSH2 0x2E4 SWAP2 SWAP1 PUSH2 0x240E JUMP JUMPDEST PUSH1 0x40 MLOAD DUP1 SWAP2 SUB SWAP1 RETURN JUMPDEST CALLVALUE DUP1 ISZERO PUSH2 0x2F9 JUMPI PUSH1 0x0 DUP1 REVERT JUMPDEST POP PUSH2 0x302 PUSH2 0x111B JUMP JUMPDEST PUSH1 0x40 MLOAD PUSH2 0x30F SWAP2 SWAP1 PUSH2 0x236E JUMP JUMPDEST PUSH1 0x40 MLOAD DUP1 SWAP2 SUB SWAP1 RETURN JUMPDEST CALLVALUE DUP1 ISZERO PUSH2 0x324 JUMPI PUSH1 0x0 DUP1 REVERT JUMPDEST POP PUSH2 0x33F PUSH1 0x4 DUP1 CALLDATASIZE SUB DUP2 ADD SWAP1 PUSH2 0x33A SWAP2 SWAP1 PUSH2 0x248E JUMP JUMPDEST PUSH2 0x1121 JUMP JUMPDEST PUSH1 0x40 MLOAD PUSH2 0x34C SWAP2 SWAP1 PUSH2 0x236E JUMP JUMPDEST PUSH1 0x40 MLOAD DUP1 SWAP2 SUB SWAP1 RETURN JUMPDEST PUSH2 0x36F PUSH1 0x4 DUP1 CALLDATASIZE SUB DUP2 ADD SWAP1 PUSH2 0x36A SWAP2 SWAP1 PUSH2 0x21C7 JUMP JUMPDEST PUSH2 0x1387 JUMP JUMPDEST STOP JUMPDEST CALLVALUE DUP1 ISZERO PUSH2 0x37D JUMPI PUSH1 0x0 DUP1 REVERT JUMPDEST POP PUSH2 0x386 PUSH2 0x1635 JUMP JUMPDEST PUSH1 0x40 MLOAD PUSH2 0x393 SWAP2 SWAP1 PUSH2 0x240E JUMP JUMPDEST PUSH1 0x40 MLOAD DUP1 SWAP2 SUB SWAP1 RETURN JUMPDEST CALLVALUE DUP1 ISZERO PUSH2 0x3A8 JUMPI PUSH1 0x0 DUP1 REVERT JUMPDEST POP PUSH2 0x3C3 PUSH1 0x4 DUP1 CALLDATASIZE SUB DUP2 ADD SWAP1 PUSH2 0x3BE SWAP2 SWAP1 PUSH2 0x21C7 JUMP JUMPDEST PUSH2 0x165B JUMP JUMPDEST STOP JUMPDEST PUSH2 0x3DF PUSH1 0x4 DUP1 CALLDATASIZE SUB DUP2 ADD SWAP1 PUSH2 0x3DA SWAP2 SWAP1 PUSH2 0x21C7 JUMP JUMPDEST PUSH2 0x188D JUMP JUMPDEST STOP JUMPDEST CALLVALUE DUP1 ISZERO PUSH2 0x3ED JUMPI PUSH1 0x0 DUP1 REVERT JUMPDEST POP PUSH2 0x408 PUSH1 0x4 DUP1 CALLDATASIZE SUB DUP2 ADD SWAP1 PUSH2 0x403 SWAP2 SWAP1 PUSH2 0x24DB JUMP JUMPDEST PUSH2 0x1B85 JUMP JUMPDEST STOP JUMPDEST CALLVALUE DUP1 ISZERO PUSH2 0x416 JUMPI PUSH1 0x0 DUP1 REVERT JUMPDEST POP PUSH2 0x431 PUSH1 0x4 DUP1 CALLDATASIZE SUB DUP2 ADD SWAP1 PUSH2 0x42C SWAP2 SWAP1 PUSH2 0x21C7 JUMP JUMPDEST PUSH2 0x1ED7 JUMP JUMPDEST PUSH1 0x40 MLOAD PUSH2 0x441 SWAP5 SWAP4 SWAP3 SWAP2 SWAP1 PUSH2 0x25D2 JUMP JUMPDEST PUSH1 0x40 MLOAD DUP1 SWAP2 SUB SWAP1 RETURN JUMPDEST CALLVALUE DUP1 ISZERO PUSH2 0x456 JUMPI PUSH1 0x0 DUP1 REVERT JUMPDEST POP PUSH2 0x471 PUSH1 0x4 DUP1 CALLDATASIZE SUB DUP2 ADD SWAP1 PUSH2 0x46C SWAP2 SWAP1 PUSH2 0x2252 JUMP JUMPDEST PUSH2 0x1FD4 JUMP JUMPDEST STOP JUMPDEST DUP1 PUSH1 0x0 SLOAD DUP2 LT PUSH2 0x4AF JUMPI PUSH1 0x40 MLOAD PUSH32 0x761F992600000000000000000000000000000000000000000000000000000000 DUP2 MSTORE PUSH1 0x4 ADD PUSH1 0x40 MLOAD DUP1 SWAP2 SUB SWAP1 REVERT JUMPDEST DUP2 CALLER PUSH20 0xFFFFFFFFFFFFFFFFFFFFFFFFFFFFFFFFFFFFFFFF AND PUSH1 0x1 PUSH1 0x0 DUP4 DUP2 MSTORE PUSH1 0x20 ADD SWAP1 DUP2 MSTORE PUSH1 0x20 ADD PUSH1 0x0 KECCAK256 PUSH1 0x0 ADD PUSH1 0x0 SWAP1 SLOAD SWAP1 PUSH2 0x100 EXP SWAP1 DIV PUSH20 0xFFFFFFFFFFFFFFFFFFFFFFFFFFFFFFFFFFFFFFFF AND PUSH20 0xFFFFFFFFFFFFFFFFFFFFFFFFFFFFFFFFFFFFFFFF AND EQ PUSH2 0x54B JUMPI PUSH1 0x40 MLOAD PUSH32 0x82B4290000000000000000000000000000000000000000000000000000000000 DUP2 MSTORE PUSH1 0x4 ADD PUSH1 0x40 MLOAD DUP1 SWAP2 SUB SWAP1 REVERT JUMPDEST PUSH1 0x2 PUSH1 0x6 SLOAD SUB PUSH2 0x587 JUMPI PUSH1 0x40 MLOAD PUSH32 0xAB143C0600000000000000000000000000000000000000000000000000000000 DUP2 MSTORE PUSH1 0x4 ADD PUSH1 0x40 MLOAD DUP1 SWAP2 SUB SWAP1 REVERT JUMPDEST PUSH1 0x2 PUSH1 0x6 DUP2 SWAP1 SSTORE POP PUSH1 0x0 PUSH1 0x1 PUSH1 0x0 DUP6 DUP2 MSTORE PUSH1 0x20 ADD SWAP1 DUP2 MSTORE PUSH1 0x20 ADD PUSH1 0x0 KECCAK256 SWAP1 POP PUSH1 0x0 DUP2 PUSH1 0x2 ADD PUSH1 0x0 SWAP1 SLOAD SWAP1 PUSH2 0x100 EXP SWAP1 DIV PUSH12 0xFFFFFFFFFFFFFFFFFFFFFFFF AND PUSH12 0xFFFFFFFFFFFFFFFFFFFFFFFF AND SWAP1 POP PUSH1 0x0 DUP2 SUB PUSH2 0x60F JUMPI PUSH1 0x40 MLOAD PUSH32 0x2C5211C600000000000000000000000000000000000000000000000000000000 DUP2 MSTORE PUSH1 0x4 ADD PUSH1 0x40 MLOAD DUP1 SWAP2 SUB SWAP1 REVERT JUMPDEST PUSH1 0x0 DUP3 PUSH1 0x2 ADD PUSH1 0x0 PUSH2 0x100 EXP DUP2 SLOAD DUP2 PUSH12 0xFFFFFFFFFFFFFFFFFFFFFFFF MUL NOT AND SWAP1 DUP4 PUSH12 0xFFFFFFFFFFFFFFFFFFFFFFFF AND MUL OR SWAP1 SSTORE POP DUP1 PUSH1 0x5 PUSH1 0x0 DUP3 DUP3 SLOAD PUSH2 0x655 SWAP2 SWAP1 PUSH2 0x264D JUMP JUMPDEST SWAP3 POP POP DUP2 SWAP1 SSTORE POP PUSH1 0x0 CALLER PUSH20 0xFFFFFFFFFFFFFFFFFFFFFFFFFFFFFFFFFFFFFFFF AND DUP3 PUSH1 0x40 MLOAD PUSH2 0x682 SWAP1 PUSH2 0x26B2 JUMP JUMPDEST PUSH1 0x0 PUSH1 0x40 MLOAD DUP1 DUP4 SUB DUP2 DUP6 DUP8 GAS CALL SWAP3 POP POP POP RETURNDATASIZE DUP1 PUSH1 0x0 DUP2 EQ PUSH2 0x6BF JUMPI PUSH1 0x40 MLOAD SWAP2 POP PUSH1 0x1F NOT PUSH1 0x3F RETURNDATASIZE ADD AND DUP3 ADD PUSH1 0x40 MSTORE RETURNDATASIZE DUP3 MSTORE RETURNDATASIZE PUSH1 0x0 PUSH1 0x20 DUP5 ADD RETURNDATACOPY PUSH2 0x6C4 JUMP JUMPDEST PUSH1 0x60 SWAP2 POP JUMPDEST POP POP SWAP1 POP DUP1 PUSH2 0x6FF JUMPI PUSH1 0x40 MLOAD PUSH32 0x90B8EC1800000000000000000000000000000000000000000000000000000000 DUP2 MSTORE PUSH1 0x4 ADD PUSH1 0x40 MLOAD DUP1 SWAP2 SUB SWAP1 REVERT JUMPDEST CALLER PUSH20 0xFFFFFFFFFFFFFFFFFFFFFFFFFFFFFFFFFFFFFFFF AND DUP7 PUSH32 0xCF7D23A3CBE4E8B36FF82FD1B05B1B17373DC7804B4EBBD6E2356716EF202372 DUP5 PUSH1 0x40 MLOAD PUSH2 0x746 SWAP2 SWAP1 PUSH2 0x236E JUMP JUMPDEST PUSH1 0x40 MLOAD DUP1 SWAP2 SUB SWAP1 LOG3 POP POP POP PUSH1 0x1 PUSH1 0x6 DUP2 SWAP1 SSTORE POP POP POP POP JUMP JUMPDEST PUSH1 0x60 PUSH1 0x2 PUSH1 0x0 DUP4 PUSH20 0xFFFFFFFFFFFFFFFFFFFFFFFFFFFFFFFFFFFFFFFF AND PUSH20 0xFFFFFFFFFFFFFFFFFFFFFFFFFFFFFFFFFFFFFFFF AND DUP2 MSTORE PUSH1 0x20 ADD SWAP1 DUP2 MSTORE PUSH1 0x20 ADD PUSH1 0x0 KECCAK256 DUP1 SLOAD DUP1 PUSH1 0x20 MUL PUSH1 0x20 ADD PUSH1 0x40 MLOAD SWAP1 DUP2 ADD PUSH1 0x40 MSTORE DUP1 SWAP3 SWAP2 SWAP1 DUP2 DUP2 MSTORE PUSH1 0x20 ADD DUP3 DUP1 SLOAD DUP1 ISZERO PUSH2 0x7E9 JUMPI PUSH1 0x20 MUL DUP3 ADD SWAP2 SWAP1 PUSH1 0x0 MSTORE PUSH1 0x20 PUSH1 0x0 KECCAK256 SWAP1 JUMPDEST DUP2 SLOAD DUP2 MSTORE PUSH1 0x20 ADD SWAP1 PUSH1 0x1 ADD SWAP1 DUP1 DUP4 GT PUSH2 0x7D5 JUMPI JUMPDEST POP POP POP POP POP SWAP1 POP SWAP2 SWAP1 POP JUMP JUMPDEST PUSH1 0x3 PUSH1 0x1 SWAP1 SLOAD SWAP1 PUSH2 0x100 EXP SWAP1 DIV PUSH20 0xFFFFFFFFFFFFFFFFFFFFFFFFFFFFFFFFFFFFFFFF AND PUSH20 0xFFFFFFFFFFFFFFFFFFFFFFFFFFFFFFFFFFFFFFFF AND CALLER PUSH20 0xFFFFFFFFFFFFFFFFFFFFFFFFFFFFFFFFFFFFFFFF AND EQ PUSH2 0x87C JUMPI PUSH1 0x40 MLOAD PUSH32 0x596DCDB800000000000000000000000000000000000000000000000000000000 DUP2 MSTORE PUSH1 0x4 ADD PUSH1 0x40 MLOAD DUP1 SWAP2 SUB SWAP1 REVERT JUMPDEST PUSH1 0x0 PUSH1 0x3 PUSH1 0x0 PUSH2 0x100 EXP DUP2 SLOAD DUP2 PUSH1 0xFF MUL NOT AND SWAP1 DUP4 ISZERO ISZERO MUL OR SWAP1 SSTORE POP PUSH32 0xA45F47FDEA8A1EFDD9029A5691C7F759C32B7C698632B563573E155625D16933 PUSH1 0x40 MLOAD PUSH1 0x40 MLOAD DUP1 SWAP2 SUB SWAP1 LOG1 JUMP JUMPDEST PUSH1 0x0 SLOAD DUP2 JUMP JUMPDEST DUP1 PUSH1 0x0 SLOAD DUP2 LT PUSH2 0x907 JUMPI PUSH1 0x40 MLOAD PUSH32 0x761F992600000000000000000000000000000000000000000000000000000000 DUP2 MSTORE PUSH1 0x4 ADD PUSH1 0x40 MLOAD DUP1 SWAP2 SUB SWAP1 REVERT JUMPDEST DUP2 CALLER PUSH20 0xFFFFFFFFFFFFFFFFFFFFFFFFFFFFFFFFFFFFFFFF AND PUSH1 0x1 PUSH1 0x0 DUP4 DUP2 MSTORE PUSH1 0x20 ADD SWAP1 DUP2 MSTORE PUSH1 0x20 ADD PUSH1 0x0 KECCAK256 PUSH1 0x0 ADD PUSH1 0x0 SWAP1 SLOAD SWAP1 PUSH2 0x100 EXP SWAP1 DIV PUSH20 0xFFFFFFFFFFFFFFFFFFFFFFFFFFFFFFFFFFFFFFFF AND PUSH20 0xFFFFFFFFFFFFFFFFFFFFFFFFFFFFFFFFFFFFFFFF AND EQ PUSH2 0x9A3 JUMPI PUSH1 0x40 MLOAD PUSH32 0x82B4290000000000000000000000000000000000000000000000000000000000 DUP2 MSTORE PUSH1 0x4 ADD PUSH1 0x40 MLOAD DUP1 SWAP2 SUB SWAP1 REVERT JUMPDEST PUSH1 0x2 PUSH1 0x6 SLOAD SUB PUSH2 0x9DF JUMPI PUSH1 0x40 MLOAD PUSH32 0xAB143C0600000000000000000000000000000000000000000000000000000000 DUP2 MSTORE PUSH1 0x4 ADD PUSH1 0x40 MLOAD DUP1 SWAP2 SUB SWAP1 REVERT JUMPDEST PUSH1 0x2 PUSH1 0x6 DUP2 SWAP1 SSTORE POP PUSH1 0x0 PUSH1 0x1 PUSH1 0x0 DUP6 DUP2 MSTORE PUSH1 0x20 ADD SWAP1 DUP2 MSTORE PUSH1 0x20 ADD PUSH1 0x0 KECCAK256 SWAP1 POP PUSH1 0x0 DUP2 PUSH1 0x2 ADD PUSH1 0x0 SWAP1 SLOAD SWAP1 PUSH2 0x100 EXP SWAP1 DIV PUSH12 0xFFFFFFFFFFFFFFFFFFFFFFFF AND PUSH12 0xFFFFFFFFFFFFFFFFFFFFFFFF AND SWAP1 POP PUSH1 0x0 DUP2 SUB PUSH2 0xA67 JUMPI PUSH1 0x40 MLOAD PUSH32 0x2C5211C600000000000000000000000000000000000000000000000000000000 DUP2 MSTORE PUSH1 0x4 ADD PUSH1 0x40 MLOAD DUP1 SWAP2 SUB SWAP1 REVERT JUMPDEST PUSH1 0x0 DUP3 PUSH1 0x2 ADD PUSH1 0x0 PUSH2 0x100 EXP DUP2 SLOAD DUP2 PUSH12 0xFFFFFFFFFFFFFFFFFFFFFFFF MUL NOT AND SWAP1 DUP4 PUSH12 0xFFFFFFFFFFFFFFFFFFFFFFFF AND MUL OR SWAP1 SSTORE POP PUSH1 0x0 DUP3 PUSH1 0x2 ADD PUSH1 0xC PUSH2 0x100 EXP DUP2 SLOAD DUP2 PUSH1 0xFF MUL NOT AND SWAP1 DUP4 ISZERO ISZERO MUL OR SWAP1 SSTORE POP DUP1 PUSH1 0x5 PUSH1 0x0 DUP3 DUP3 SLOAD PUSH2 0xACA SWAP2 SWAP1 PUSH2 0x264D JUMP JUMPDEST SWAP3 POP POP DUP2 SWAP1 SSTORE POP PUSH1 0x0 CALLER PUSH20 0xFFFFFFFFFFFFFFFFFFFFFFFFFFFFFFFFFFFFFFFF AND DUP3 PUSH1 0x40 MLOAD PUSH2 0xAF7 SWAP1 PUSH2 0x26B2 JUMP JUMPDEST PUSH1 0x0 PUSH1 0x40 MLOAD DUP1 DUP4 SUB DUP2 DUP6 DUP8 GAS CALL SWAP3 POP POP POP RETURNDATASIZE DUP1 PUSH1 0x0 DUP2 EQ PUSH2 0xB34 JUMPI PUSH1 0x40 MLOAD SWAP2 POP PUSH1 0x1F NOT PUSH1 0x3F RETURNDATASIZE ADD AND DUP3 ADD PUSH1 0x40 MSTORE RETURNDATASIZE DUP3 MSTORE RETURNDATASIZE PUSH1 0x0 PUSH1 0x20 DUP5 ADD RETURNDATACOPY PUSH2 0xB39 JUMP JUMPDEST PUSH1 0x60 SWAP2 POP JUMPDEST POP POP SWAP1 POP DUP1 PUSH2 0xB74 JUMPI PUSH1 0x40 MLOAD PUSH32 0x90B8EC1800000000000000000000000000000000000000000000000000000000 DUP2 MSTORE PUSH1 0x4 ADD PUSH1 0x40 MLOAD DUP1 SWAP2 SUB SWAP1 REVERT JUMPDEST CALLER PUSH20 0xFFFFFFFFFFFFFFFFFFFFFFFFFFFFFFFFFFFFFFFF AND DUP7 PUSH32 0x947A9DC0C5E62CC9756634EC0A89AFEA37EB0305933925040B9BDA8200440020 DUP5 PUSH1 0x40 MLOAD PUSH2 0xBBB SWAP2 SWAP1 PUSH2 0x236E JUMP JUMPDEST PUSH1 0x40 MLOAD DUP1 SWAP2 SUB SWAP1 LOG3 POP POP POP PUSH1 0x1 PUSH1 0x6 DUP2 SWAP1 SSTORE POP POP POP POP JUMP JUMPDEST PUSH1 0x3 PUSH1 0x1 SWAP1 SLOAD SWAP1 PUSH2 0x100 EXP SWAP1 DIV PUSH20 0xFFFFFFFFFFFFFFFFFFFFFFFFFFFFFFFFFFFFFFFF AND PUSH20 0xFFFFFFFFFFFFFFFFFFFFFFFFFFFFFFFFFFFFFFFF AND CALLER PUSH20 0xFFFFFFFFFFFFFFFFFFFFFFFFFFFFFFFFFFFFFFFF AND EQ PUSH2 0xC5A JUMPI PUSH1 0x40 MLOAD PUSH32 0x596DCDB800000000000000000000000000000000000000000000000000000000 DUP2 MSTORE PUSH1 0x4 ADD PUSH1 0x40 MLOAD DUP1 SWAP2 SUB SWAP1 REVERT JUMPDEST PUSH1 0x0 PUSH20 0xFFFFFFFFFFFFFFFFFFFFFFFFFFFFFFFFFFFFFFFF AND DUP2 PUSH20 0xFFFFFFFFFFFFFFFFFFFFFFFFFFFFFFFFFFFFFFFF AND SUB PUSH2 0xCC0 JUMPI PUSH1 0x40 MLOAD PUSH32 0x82B4290000000000000000000000000000000000000000000000000000000000 DUP2 MSTORE PUSH1 0x4 ADD PUSH1 0x40 MLOAD DUP1 SWAP2 SUB SWAP1 REVERT JUMPDEST DUP1 PUSH1 0x4 PUSH1 0x0 PUSH2 0x100 EXP DUP2 SLOAD DUP2 PUSH20 0xFFFFFFFFFFFFFFFFFFFFFFFFFFFFFFFFFFFFFFFF MUL NOT AND SWAP1 DUP4 PUSH20 0xFFFFFFFFFFFFFFFFFFFFFFFFFFFFFFFFFFFFFFFF AND MUL OR SWAP1 SSTORE POP DUP1 PUSH20 0xFFFFFFFFFFFFFFFFFFFFFFFFFFFFFFFFFFFFFFFF AND PUSH32 0xCFE0A21B69993D4730CB79D451E4641024555E34EF92A8ADA9EB288F33C65B01 PUSH1 0x40 MLOAD PUSH1 0x40 MLOAD DUP1 SWAP2 SUB SWAP1 LOG2 POP JUMP JUMPDEST PUSH1 0x3 PUSH1 0x0 SWAP1 SLOAD SWAP1 PUSH2 0x100 EXP SWAP1 DIV PUSH1 0xFF AND DUP2 JUMP JUMPDEST PUSH1 0x0 PUSH1 0x5 SLOAD SELFBALANCE LT ISZERO SWAP1 POP SWAP1 JUMP JUMPDEST PUSH1 0x0 PUSH20 0xFFFFFFFFFFFFFFFFFFFFFFFFFFFFFFFFFFFFFFFF AND PUSH1 0x4 PUSH1 0x0 SWAP1 SLOAD SWAP1 PUSH2 0x100 EXP SWAP1 DIV PUSH20 0xFFFFFFFFFFFFFFFFFFFFFFFFFFFFFFFFFFFFFFFF AND PUSH20 0xFFFFFFFFFFFFFFFFFFFFFFFFFFFFFFFFFFFFFFFF AND SUB PUSH2 0xDEF JUMPI PUSH1 0x40 MLOAD PUSH32 0xAF47EF4300000000000000000000000000000000000000000000000000000000 DUP2 MSTORE PUSH1 0x4 ADD PUSH1 0x40 MLOAD DUP1 SWAP2 SUB SWAP1 REVERT JUMPDEST PUSH1 0x4 PUSH1 0x0 SWAP1 SLOAD SWAP1 PUSH2 0x100 EXP SWAP1 DIV PUSH20 0xFFFFFFFFFFFFFFFFFFFFFFFFFFFFFFFFFFFFFFFF AND PUSH20 0xFFFFFFFFFFFFFFFFFFFFFFFFFFFFFFFFFFFFFFFF AND CALLER PUSH20 0xFFFFFFFFFFFFFFFFFFFFFFFFFFFFFFFFFFFFFFFF AND EQ PUSH2 0xE76 JUMPI PUSH1 0x40 MLOAD PUSH32 0x82B4290000000000000000000000000000000000000000000000000000000000 DUP2 MSTORE PUSH1 0x4 ADD PUSH1 0x40 MLOAD DUP1 SWAP2 SUB SWAP1 REVERT JUMPDEST DUP2 PUSH1 0x0 SLOAD DUP2 LT PUSH2 0xEB2 JUMPI PUSH1 0x40 MLOAD PUSH32 0x761F992600000000000000000000000000000000000000000000000000000000 DUP2 MSTORE PUSH1 0x4 ADD PUSH1 0x40 MLOAD DUP1 SWAP2 SUB SWAP1 REVERT JUMPDEST PUSH1 0x0 PUSH1 0x1 PUSH1 0x0 DUP6 DUP2 MSTORE PUSH1 0x20 ADD SWAP1 DUP2 MSTORE PUSH1 0x20 ADD PUSH1 0x0 KECCAK256 SWAP1 POP DUP1 PUSH1 0x2 ADD PUSH1 0xC SWAP1 SLOAD SWAP1 PUSH2 0x100 EXP SWAP1 DIV PUSH1 0xFF AND PUSH2 0xF11 JUMPI PUSH1 0x40 MLOAD PUSH32 0x93F4D5F800000000000000000000000000000000000000000000000000000000 DUP2 MSTORE PUSH1 0x4 ADD PUSH1 0x40 MLOAD DUP1 SWAP2 SUB SWAP1 REVERT JUMPDEST DUP3 DUP2 PUSH1 0x2 ADD PUSH1 0x0 SWAP1 SLOAD SWAP1 PUSH2 0x100 EXP SWAP1 DIV PUSH12 0xFFFFFFFFFFFFFFFFFFFFFFFF AND PUSH12 0xFFFFFFFFFFFFFFFFFFFFFFFF AND LT ISZERO PUSH2 0xF75 JUMPI PUSH1 0x40 MLOAD PUSH32 0x2C5211C600000000000000000000000000000000000000000000000000000000 DUP2 MSTORE PUSH1 0x4 ADD PUSH1 0x40 MLOAD DUP1 SWAP2 SUB SWAP1 REVERT JUMPDEST DUP3 DUP2 PUSH1 0x2 ADD PUSH1 0x0 DUP3 DUP3 DUP3 SWAP1 SLOAD SWAP1 PUSH2 0x100 EXP SWAP1 DIV PUSH12 0xFFFFFFFFFFFFFFFFFFFFFFFF AND PUSH2 0xFA0 SWAP2 SWAP1 PUSH2 0x26C7 JUMP JUMPDEST SWAP3 POP PUSH2 0x100 EXP DUP2 SLOAD DUP2 PUSH12 0xFFFFFFFFFFFFFFFFFFFFFFFF MUL NOT AND SWAP1 DUP4 PUSH12 0xFFFFFFFFFFFFFFFFFFFFFFFF AND MUL OR SWAP1 SSTORE POP DUP3 PUSH1 0x5 PUSH1 0x0 DUP3 DUP3 SLOAD PUSH2 0xFE0 SWAP2 SWAP1 PUSH2 0x264D JUMP JUMPDEST SWAP3 POP POP DUP2 SWAP1 SSTORE POP DUP4 PUSH32 0x60C162FB59529EB1EA9D337024774F5616170137B0AF02F3944752CEE06466BA DUP5 PUSH1 0x40 MLOAD PUSH2 0x1017 SWAP2 SWAP1 PUSH2 0x236E JUMP JUMPDEST PUSH1 0x40 MLOAD DUP1 SWAP2 SUB SWAP1 LOG2 POP POP POP POP JUMP JUMPDEST PUSH1 0x3 PUSH1 0x1 SWAP1 SLOAD SWAP1 PUSH2 0x100 EXP SWAP1 DIV PUSH20 0xFFFFFFFFFFFFFFFFFFFFFFFFFFFFFFFFFFFFFFFF AND PUSH20 0xFFFFFFFFFFFFFFFFFFFFFFFFFFFFFFFFFFFFFFFF AND CALLER PUSH20 0xFFFFFFFFFFFFFFFFFFFFFFFFFFFFFFFFFFFFFFFF AND EQ PUSH2 0x10AC JUMPI PUSH1 0x40 MLOAD PUSH32 0x596DCDB800000000000000000000000000000000000000000000000000000000 DUP2 MSTORE PUSH1 0x4 ADD PUSH1 0x40 MLOAD DUP1 SWAP2 SUB SWAP1 REVERT JUMPDEST PUSH1 0x1 PUSH1 0x3 PUSH1 0x0 PUSH2 0x100 EXP DUP2 SLOAD DUP2 PUSH1 0xFF MUL NOT AND SWAP1 DUP4 ISZERO ISZERO MUL OR SWAP1 SSTORE POP PUSH32 0x9E87FAC88FF661F02D44F95383C817FECE4BCE600A3DAB7A54406878B965E752 PUSH1 0x40 MLOAD PUSH1 0x40 MLOAD DUP1 SWAP2 SUB SWAP1 LOG1 JUMP JUMPDEST PUSH1 0x3 PUSH1 0x1 SWAP1 SLOAD SWAP1 PUSH2 0x100 EXP SWAP1 DIV PUSH20 0xFFFFFFFFFFFFFFFFFFFFFFFFFFFFFFFFFFFFFFFF AND DUP2 JUMP JUMPDEST PUSH1 0x5 SLOAD DUP2 JUMP JUMPDEST PUSH1 0x0 PUSH1 0x3 PUSH1 0x0 SWAP1 SLOAD SWAP1 PUSH2 0x100 EXP SWAP1 DIV PUSH1 0xFF AND ISZERO PUSH2 0x116A JUMPI PUSH1 0x40 MLOAD PUSH32 0xAB35696F00000000000000000000000000000000000000000000000000000000 DUP2 MSTORE PUSH1 0x4 ADD PUSH1 0x40 MLOAD DUP1 SWAP2 SUB SWAP1 REVERT JUMPDEST PUSH1 0x0 SLOAD SWAP1 POP PUSH1 0x40 MLOAD DUP1 PUSH1 0x80 ADD PUSH1 0x40 MSTORE DUP1 CALLER PUSH20 0xFFFFFFFFFFFFFFFFFFFFFFFFFFFFFFFFFFFFFFFF AND DUP2 MSTORE PUSH1 0x20 ADD DUP5 DUP5 DUP1 DUP1 PUSH1 0x1F ADD PUSH1 0x20 DUP1 SWAP2 DIV MUL PUSH1 0x20 ADD PUSH1 0x40 MLOAD SWAP1 DUP2 ADD PUSH1 0x40 MSTORE DUP1 SWAP4 SWAP3 SWAP2 SWAP1 DUP2 DUP2 MSTORE PUSH1 0x20 ADD DUP4 DUP4 DUP1 DUP3 DUP5 CALLDATACOPY PUSH1 0x0 DUP2 DUP5 ADD MSTORE PUSH1 0x1F NOT PUSH1 0x1F DUP3 ADD AND SWAP1 POP DUP1 DUP4 ADD SWAP3 POP POP POP POP POP POP POP DUP2 MSTORE PUSH1 0x20 ADD PUSH1 0x0 PUSH12 0xFFFFFFFFFFFFFFFFFFFFFFFF AND DUP2 MSTORE PUSH1 0x20 ADD PUSH1 0x1 ISZERO ISZERO DUP2 MSTORE POP PUSH1 0x1 PUSH1 0x0 DUP4 DUP2 MSTORE PUSH1 0x20 ADD SWAP1 DUP2 MSTORE PUSH1 0x20 ADD PUSH1 0x0 KECCAK256 PUSH1 0x0 DUP3 ADD MLOAD DUP2 PUSH1 0x0 ADD PUSH1 0x0 PUSH2 0x100 EXP DUP2 SLOAD DUP2 PUSH20 0xFFFFFFFFFFFFFFFFFFFFFFFFFFFFFFFFFFFFFFFF MUL NOT AND SWAP1 DUP4 PUSH20 0xFFFFFFFFFFFFFFFFFFFFFFFFFFFFFFFFFFFFFFFF AND MUL OR SWAP1 SSTORE POP PUSH1 0x20 DUP3 ADD MLOAD DUP2 PUSH1 0x1 ADD SWAP1 DUP2 PUSH2 0x126B SWAP2 SWAP1 PUSH2 0x2942 JUMP JUMPDEST POP PUSH1 0x40 DUP3 ADD MLOAD DUP2 PUSH1 0x2 ADD PUSH1 0x0 PUSH2 0x100 EXP DUP2 SLOAD DUP2 PUSH12 0xFFFFFFFFFFFFFFFFFFFFFFFF MUL NOT AND SWAP1 DUP4 PUSH12 0xFFFFFFFFFFFFFFFFFFFFFFFF AND MUL OR SWAP1 SSTORE POP PUSH1 0x60 DUP3 ADD MLOAD DUP2 PUSH1 0x2 ADD PUSH1 0xC PUSH2 0x100 EXP DUP2 SLOAD DUP2 PUSH1 0xFF MUL NOT AND SWAP1 DUP4 ISZERO ISZERO MUL OR SWAP1 SSTORE POP SWAP1 POP POP PUSH1 0x2 PUSH1 0x0 CALLER PUSH20 0xFFFFFFFFFFFFFFFFFFFFFFFFFFFFFFFFFFFFFFFF AND PUSH20 0xFFFFFFFFFFFFFFFFFFFFFFFFFFFFFFFFFFFFFFFF AND DUP2 MSTORE PUSH1 0x20 ADD SWAP1 DUP2 MSTORE PUSH1 0x20 ADD PUSH1 0x0 KECCAK256 DUP2 SWAP1 DUP1 PUSH1 0x1 DUP2 SLOAD ADD DUP1 DUP3 SSTORE DUP1 SWAP2 POP POP PUSH1 0x1 SWAP1 SUB SWAP1 PUSH1 0x0 MSTORE PUSH1 0x20 PUSH1 0x0 KECCAK256 ADD PUSH1 0x0 SWAP1 SWAP2 SWAP1 SWAP2 SWAP1 SWAP2 POP SSTORE CALLER PUSH20 0xFFFFFFFFFFFFFFFFFFFFFFFFFFFFFFFFFFFFFFFF AND DUP2 PUSH32 0xFBCB41B70B98A06A28A222D724AD892A88F60E58B19254F27AC2E030E37C1FB5 PUSH1 0x40 MLOAD PUSH1 0x40 MLOAD DUP1 SWAP2 SUB SWAP1 LOG3 PUSH1 0x0 DUP1 DUP2 SLOAD DUP1 SWAP3 SWAP2 SWAP1 PUSH1 0x1 ADD SWAP2 SWAP1 POP SSTORE POP SWAP3 SWAP2 POP POP JUMP JUMPDEST PUSH1 0x0 PUSH20 0xFFFFFFFFFFFFFFFFFFFFFFFFFFFFFFFFFFFFFFFF AND PUSH1 0x4 PUSH1 0x0 SWAP1 SLOAD SWAP1 PUSH2 0x100 EXP SWAP1 DIV PUSH20 0xFFFFFFFFFFFFFFFFFFFFFFFFFFFFFFFFFFFFFFFF AND PUSH20 0xFFFFFFFFFFFFFFFFFFFFFFFFFFFFFFFFFFFFFFFF AND SUB PUSH2 0x140F JUMPI PUSH1 0x40 MLOAD PUSH32 0xAF47EF4300000000000000000000000000000000000000000000000000000000 DUP2 MSTORE PUSH1 0x4 ADD PUSH1 0x40 MLOAD DUP1 SWAP2 SUB SWAP1 REVERT JUMPDEST PUSH1 0x4 PUSH1 0x0 SWAP1 SLOAD SWAP1 PUSH2 0x100 EXP SWAP1 DIV PUSH20 0xFFFFFFFFFFFFFFFFFFFFFFFFFFFFFFFFFFFFFFFF AND PUSH20 0xFFFFFFFFFFFFFFFFFFFFFFFFFFFFFFFFFFFFFFFF AND CALLER PUSH20 0xFFFFFFFFFFFFFFFFFFFFFFFFFFFFFFFFFFFFFFFF AND EQ PUSH2 0x1496 JUMPI PUSH1 0x40 MLOAD PUSH32 0x82B4290000000000000000000000000000000000000000000000000000000000 DUP2 MSTORE PUSH1 0x4 ADD PUSH1 0x40 MLOAD DUP1 SWAP2 SUB SWAP1 REVERT JUMPDEST DUP1 PUSH1 0x0 SLOAD DUP2 LT PUSH2 0x14D2 JUMPI PUSH1 0x40 MLOAD PUSH32 0x761F992600000000000000000000000000000000000000000000000000000000 DUP2 MSTORE PUSH1 0x4 ADD PUSH1 0x40 MLOAD DUP1 SWAP2 SUB SWAP1 REVERT JUMPDEST PUSH1 0x0 CALLVALUE SWAP1 POP PUSH1 0x0 DUP2 SUB PUSH2 0x1511 JUMPI PUSH1 0x40 MLOAD PUSH32 0x2C5211C600000000000000000000000000000000000000000000000000000000 DUP2 MSTORE PUSH1 0x4 ADD PUSH1 0x40 MLOAD DUP1 SWAP2 SUB SWAP1 REVERT JUMPDEST PUSH1 0x0 PUSH1 0x1 PUSH1 0x0 DUP6 DUP2 MSTORE PUSH1 0x20 ADD SWAP1 DUP2 MSTORE PUSH1 0x20 ADD PUSH1 0x0 KECCAK256 SWAP1 POP PUSH1 0x0 DUP3 DUP3 PUSH1 0x2 ADD PUSH1 0x0 SWAP1 SLOAD SWAP1 PUSH2 0x100 EXP SWAP1 DIV PUSH12 0xFFFFFFFFFFFFFFFFFFFFFFFF AND PUSH12 0xFFFFFFFFFFFFFFFFFFFFFFFF AND PUSH2 0x1560 SWAP2 SWAP1 PUSH2 0x2A14 JUMP JUMPDEST SWAP1 POP PUSH12 0xFFFFFFFFFFFFFFFFFFFFFFFF DUP1 AND DUP2 GT ISZERO PUSH2 0x15AA JUMPI PUSH1 0x40 MLOAD PUSH32 0x89560CA100000000000000000000000000000000000000000000000000000000 DUP2 MSTORE PUSH1 0x4 ADD PUSH1 0x40 MLOAD DUP1 SWAP2 SUB SWAP1 REVERT JUMPDEST DUP1 DUP3 PUSH1 0x2 ADD PUSH1 0x0 PUSH2 0x100 EXP DUP2 SLOAD DUP2 PUSH12 0xFFFFFFFFFFFFFFFFFFFFFFFF MUL NOT AND SWAP1 DUP4 PUSH12 0xFFFFFFFFFFFFFFFFFFFFFFFF AND MUL OR SWAP1 SSTORE POP DUP3 PUSH1 0x5 PUSH1 0x0 DUP3 DUP3 SLOAD PUSH2 0x15EF SWAP2 SWAP1 PUSH2 0x2A14 JUMP JUMPDEST SWAP3 POP POP DUP2 SWAP1 SSTORE POP DUP5 PUSH32 0xAD46A8C18099204C0673EF4C15C33A4FD3E0C71AD38C6F5BCC46A766FD590F3B DUP5 PUSH1 0x40 MLOAD PUSH2 0x1626 SWAP2 SWAP1 PUSH2 0x236E JUMP JUMPDEST PUSH1 0x40 MLOAD DUP1 SWAP2 SUB SWAP1 LOG2 POP POP POP POP POP JUMP JUMPDEST PUSH1 0x4 PUSH1 0x0 SWAP1 SLOAD SWAP1 PUSH2 0x100 EXP SWAP1 DIV PUSH20 0xFFFFFFFFFFFFFFFFFFFFFFFFFFFFFFFFFFFFFFFF AND DUP2 JUMP JUMPDEST PUSH1 0x3 PUSH1 0x0 SWAP1 SLOAD SWAP1 PUSH2 0x100 EXP SWAP1 DIV PUSH1 0xFF AND ISZERO PUSH2 0x16A2 JUMPI PUSH1 0x40 MLOAD PUSH32 0xAB35696F00000000000000000000000000000000000000000000000000000000 DUP2 MSTORE PUSH1 0x4 ADD PUSH1 0x40 MLOAD DUP1 SWAP2 SUB SWAP1 REVERT JUMPDEST DUP1 PUSH1 0x0 SLOAD DUP2 LT PUSH2 0x16DE JUMPI PUSH1 0x40 MLOAD PUSH32 0x761F992600000000000000000000000000000000000000000000000000000000 DUP2 MSTORE PUSH1 0x4 ADD PUSH1 0x40 MLOAD DUP1 SWAP2 SUB SWAP1 REVERT JUMPDEST DUP2 CALLER PUSH20 0xFFFFFFFFFFFFFFFFFFFFFFFFFFFFFFFFFFFFFFFF AND PUSH1 0x1 PUSH1 0x0 DUP4 DUP2 MSTORE PUSH1 0x20 ADD SWAP1 DUP2 MSTORE PUSH1 0x20 ADD PUSH1 0x0 KECCAK256 PUSH1 0x0 ADD PUSH1 0x0 SWAP1 SLOAD SWAP1 PUSH2 0x100 EXP SWAP1 DIV PUSH20 0xFFFFFFFFFFFFFFFFFFFFFFFFFFFFFFFFFFFFFFFF AND PUSH20 0xFFFFFFFFFFFFFFFFFFFFFFFFFFFFFFFFFFFFFFFF AND EQ PUSH2 0x177A JUMPI PUSH1 0x40 MLOAD PUSH32 0x82B4290000000000000000000000000000000000000000000000000000000000 DUP2 MSTORE PUSH1 0x4 ADD PUSH1 0x40 MLOAD DUP1 SWAP2 SUB SWAP1 REVERT JUMPDEST PUSH1 0x0 PUSH1 0x1 PUSH1 0x0 DUP6 DUP2 MSTORE PUSH1 0x20 ADD SWAP1 DUP2 MSTORE PUSH1 0x20 ADD PUSH1 0x0 KECCAK256 SWAP1 POP DUP1 PUSH1 0x2 ADD PUSH1 0xC SWAP1 SLOAD SWAP1 PUSH2 0x100 EXP SWAP1 DIV PUSH1 0xFF AND PUSH2 0x17D9 JUMPI PUSH1 0x40 MLOAD PUSH32 0xF0E69A2C00000000000000000000000000000000000000000000000000000000 DUP2 MSTORE PUSH1 0x4 ADD PUSH1 0x40 MLOAD DUP1 SWAP2 SUB SWAP1 REVERT JUMPDEST PUSH1 0x0 DUP2 PUSH1 0x2 ADD PUSH1 0x0 SWAP1 SLOAD SWAP1 PUSH2 0x100 EXP SWAP1 DIV PUSH12 0xFFFFFFFFFFFFFFFFFFFFFFFF AND PUSH12 0xFFFFFFFFFFFFFFFFFFFFFFFF AND EQ PUSH2 0x183D JUMPI PUSH1 0x40 MLOAD PUSH32 0x2C5211C600000000000000000000000000000000000000000000000000000000 DUP2 MSTORE PUSH1 0x4 ADD PUSH1 0x40 MLOAD DUP1 SWAP2 SUB SWAP1 REVERT JUMPDEST PUSH1 0x0 DUP2 PUSH1 0x2 ADD PUSH1 0xC PUSH2 0x100 EXP DUP2 SLOAD DUP2 PUSH1 0xFF MUL NOT AND SWAP1 DUP4 ISZERO ISZERO MUL OR SWAP1 SSTORE POP DUP4 PUSH32 0xE44BDFA26B034AA005128B97A175350B04C733C4CB0343DD46D6CD10558311D4 PUSH1 0x40 MLOAD PUSH1 0x40 MLOAD DUP1 SWAP2 SUB SWAP1 LOG2 POP POP POP POP JUMP JUMPDEST PUSH1 0x3 PUSH1 0x0 SWAP1 SLOAD SWAP1 PUSH2 0x100 EXP SWAP1 DIV PUSH1 0xFF AND ISZERO PUSH2 0x18D4 JUMPI PUSH1 0x40 MLOAD PUSH32 0xAB35696F00000000000000000000000000000000000000000000000000000000 DUP2 MSTORE PUSH1 0x4 ADD PUSH1 0x40 MLOAD DUP1 SWAP2 SUB SWAP1 REVERT JUMPDEST DUP1 PUSH1 0x0 SLOAD DUP2 LT PUSH2 0x1910 JUMPI PUSH1 0x40 MLOAD PUSH32 0x761F992600000000000000000000000000000000000000000000000000000000 DUP2 MSTORE PUSH1 0x4 ADD PUSH1 0x40 MLOAD DUP1 SWAP2 SUB SWAP1 REVERT JUMPDEST DUP2 CALLER PUSH20 0xFFFFFFFFFFFFFFFFFFFFFFFFFFFFFFFFFFFFFFFF AND PUSH1 0x1 PUSH1 0x0 DUP4 DUP2 MSTORE PUSH1 0x20 ADD SWAP1 DUP2 MSTORE PUSH1 0x20 ADD PUSH1 0x0 KECCAK256 PUSH1 0x0 ADD PUSH1 0x0 SWAP1 SLOAD SWAP1 PUSH2 0x100 EXP SWAP1 DIV PUSH20 0xFFFFFFFFFFFFFFFFFFFFFFFFFFFFFFFFFFFFFFFF AND PUSH20 0xFFFFFFFFFFFFFFFFFFFFFFFFFFFFFFFFFFFFFFFF AND EQ PUSH2 0x19AC JUMPI PUSH1 0x40 MLOAD PUSH32 0x82B4290000000000000000000000000000000000000000000000000000000000 DUP2 MSTORE PUSH1 0x4 ADD PUSH1 0x40 MLOAD DUP1 SWAP2 SUB SWAP1 REVERT JUMPDEST DUP3 PUSH1 0x1 PUSH1 0x0 DUP3 DUP2 MSTORE PUSH1 0x20 ADD SWAP1 DUP2 MSTORE PUSH1 0x20 ADD PUSH1 0x0 KECCAK256 PUSH1 0x2 ADD PUSH1 0xC SWAP1 SLOAD SWAP1 PUSH2 0x100 EXP SWAP1 DIV PUSH1 0xFF AND PUSH2 0x1A07 JUMPI PUSH1 0x40 MLOAD PUSH32 0x93F4D5F800000000000000000000000000000000000000000000000000000000 DUP2 MSTORE PUSH1 0x4 ADD PUSH1 0x40 MLOAD DUP1 SWAP2 SUB SWAP1 REVERT JUMPDEST PUSH1 0x0 CALLVALUE SWAP1 POP PUSH1 0x0 DUP2 SUB PUSH2 0x1A46 JUMPI PUSH1 0x40 MLOAD PUSH32 0x2C5211C600000000000000000000000000000000000000000000000000000000 DUP2 MSTORE PUSH1 0x4 ADD PUSH1 0x40 MLOAD DUP1 SWAP2 SUB SWAP1 REVERT JUMPDEST PUSH1 0x0 PUSH1 0x1 PUSH1 0x0 DUP8 DUP2 MSTORE PUSH1 0x20 ADD SWAP1 DUP2 MSTORE PUSH1 0x20 ADD PUSH1 0x0 KECCAK256 SWAP1 POP PUSH1 0x0 DUP3 DUP3 PUSH1 0x2 ADD PUSH1 0x0 SWAP1 SLOAD SWAP1 PUSH2 0x100 EXP SWAP1 DIV PUSH12 0xFFFFFFFFFFFFFFFFFFFFFFFF AND PUSH12 0xFFFFFFFFFFFFFFFFFFFFFFFF AND PUSH2 0x1A95 SWAP2 SWAP1 PUSH2 0x2A14 JUMP JUMPDEST SWAP1 POP PUSH12 0xFFFFFFFFFFFFFFFFFFFFFFFF DUP1 AND DUP2 GT ISZERO PUSH2 0x1ADF JUMPI PUSH1 0x40 MLOAD PUSH32 0x89560CA100000000000000000000000000000000000000000000000000000000 DUP2 MSTORE PUSH1 0x4 ADD PUSH1 0x40 MLOAD DUP1 SWAP2 SUB SWAP1 REVERT JUMPDEST DUP1 DUP3 PUSH1 0x2 ADD PUSH1 0x0 PUSH2 0x100 EXP DUP2 SLOAD DUP2 PUSH12 0xFFFFFFFFFFFFFFFFFFFFFFFF MUL NOT AND SWAP1 DUP4 PUSH12 0xFFFFFFFFFFFFFFFFFFFFFFFF AND MUL OR SWAP1 SSTORE POP DUP3 PUSH1 0x5 PUSH1 0x0 DUP3 DUP3 SLOAD PUSH2 0x1B24 SWAP2 SWAP1 PUSH2 0x2A14 JUMP JUMPDEST SWAP3 POP POP DUP2 SWAP1 SSTORE POP CALLER PUSH20 0xFFFFFFFFFFFFFFFFFFFFFFFFFFFFFFFFFFFFFFFF AND DUP8 PUSH32 0xAD5B4075B97DBF75AD5C78F7AFAC948E4AE611C4FDF2825E2CE3C6C96925BF3B DUP6 DUP5 PUSH1 0x40 MLOAD PUSH2 0x1B74 SWAP3 SWAP2 SWAP1 PUSH2 0x2A48 JUMP JUMPDEST PUSH1 0x40 MLOAD DUP1 SWAP2 SUB SWAP1 LOG3 POP POP POP POP POP POP POP JUMP JUMPDEST DUP2 PUSH1 0x0 SLOAD DUP2 LT PUSH2 0x1BC1 JUMPI PUSH1 0x40 MLOAD PUSH32 0x761F992600000000000000000000000000000000000000000000000000000000 DUP2 MSTORE PUSH1 0x4 ADD PUSH1 0x40 MLOAD DUP1 SWAP2 SUB SWAP1 REVERT JUMPDEST DUP3 CALLER PUSH20 0xFFFFFFFFFFFFFFFFFFFFFFFFFFFFFFFFFFFFFFFF AND PUSH1 0x1 PUSH1 0x0 DUP4 DUP2 MSTORE PUSH1 0x20 ADD SWAP1 DUP2 MSTORE PUSH1 0x20 ADD PUSH1 0x0 KECCAK256 PUSH1 0x0 ADD PUSH1 0x0 SWAP1 SLOAD SWAP1 PUSH2 0x100 EXP SWAP1 DIV PUSH20 0xFFFFFFFFFFFFFFFFFFFFFFFFFFFFFFFFFFFFFFFF AND PUSH20 0xFFFFFFFFFFFFFFFFFFFFFFFFFFFFFFFFFFFFFFFF AND EQ PUSH2 0x1C5D JUMPI PUSH1 0x40 MLOAD PUSH32 0x82B4290000000000000000000000000000000000000000000000000000000000 DUP2 MSTORE PUSH1 0x4 ADD PUSH1 0x40 MLOAD DUP1 SWAP2 SUB SWAP1 REVERT JUMPDEST PUSH1 0x2 PUSH1 0x6 SLOAD SUB PUSH2 0x1C99 JUMPI PUSH1 0x40 MLOAD PUSH32 0xAB143C0600000000000000000000000000000000000000000000000000000000 DUP2 MSTORE PUSH1 0x4 ADD PUSH1 0x40 MLOAD DUP1 SWAP2 SUB SWAP1 REVERT JUMPDEST PUSH1 0x2 PUSH1 0x6 DUP2 SWAP1 SSTORE POP PUSH1 0x0 PUSH20 0xFFFFFFFFFFFFFFFFFFFFFFFFFFFFFFFFFFFFFFFF AND DUP4 PUSH20 0xFFFFFFFFFFFFFFFFFFFFFFFFFFFFFFFFFFFFFFFF AND SUB PUSH2 0x1D07 JUMPI PUSH1 0x40 MLOAD PUSH32 0x82B4290000000000000000000000000000000000000000000000000000000000 DUP2 MSTORE PUSH1 0x4 ADD PUSH1 0x40 MLOAD DUP1 SWAP2 SUB SWAP1 REVERT JUMPDEST PUSH1 0x0 PUSH1 0x1 PUSH1 0x0 DUP7 DUP2 MSTORE PUSH1 0x20 ADD SWAP1 DUP2 MSTORE PUSH1 0x20 ADD PUSH1 0x0 KECCAK256 SWAP1 POP PUSH1 0x0 DUP2 PUSH1 0x2 ADD PUSH1 0x0 SWAP1 SLOAD SWAP1 PUSH2 0x100 EXP SWAP1 DIV PUSH12 0xFFFFFFFFFFFFFFFFFFFFFFFF AND PUSH12 0xFFFFFFFFFFFFFFFFFFFFFFFF AND SWAP1 POP PUSH1 0x0 DUP2 SUB PUSH2 0x1D87 JUMPI PUSH1 0x40 MLOAD PUSH32 0x2C5211C600000000000000000000000000000000000000000000000000000000 DUP2 MSTORE PUSH1 0x4 ADD PUSH1 0x40 MLOAD DUP1 SWAP2 SUB SWAP1 REVERT JUMPDEST PUSH1 0x0 DUP3 PUSH1 0x2 ADD PUSH1 0x0 PUSH2 0x100 EXP DUP2 SLOAD DUP2 PUSH12 0xFFFFFFFFFFFFFFFFFFFFFFFF MUL NOT AND SWAP1 DUP4 PUSH12 0xFFFFFFFFFFFFFFFFFFFFFFFF AND MUL OR SWAP1 SSTORE POP DUP1 PUSH1 0x5 PUSH1 0x0 DUP3 DUP3 SLOAD PUSH2 0x1DCD SWAP2 SWAP1 PUSH2 0x264D JUMP JUMPDEST SWAP3 POP POP DUP2 SWAP1 SSTORE POP PUSH1 0x0 DUP6 PUSH20 0xFFFFFFFFFFFFFFFFFFFFFFFFFFFFFFFFFFFFFFFF AND DUP3 PUSH1 0x40 MLOAD PUSH2 0x1DFA SWAP1 PUSH2 0x26B2 JUMP JUMPDEST PUSH1 0x0 PUSH1 0x40 MLOAD DUP1 DUP4 SUB DUP2 DUP6 DUP8 GAS CALL SWAP3 POP POP POP RETURNDATASIZE DUP1 PUSH1 0x0 DUP2 EQ PUSH2 0x1E37 JUMPI PUSH1 0x40 MLOAD SWAP2 POP PUSH1 0x1F NOT PUSH1 0x3F RETURNDATASIZE ADD AND DUP3 ADD PUSH1 0x40 MSTORE RETURNDATASIZE DUP3 MSTORE RETURNDATASIZE PUSH1 0x0 PUSH1 0x20 DUP5 ADD RETURNDATACOPY PUSH2 0x1E3C JUMP JUMPDEST PUSH1 0x60 SWAP2 POP JUMPDEST POP POP SWAP1 POP DUP1 PUSH2 0x1E77 JUMPI PUSH1 0x40 MLOAD PUSH32 0x90B8EC1800000000000000000000000000000000000000000000000000000000 DUP2 MSTORE PUSH1 0x4 ADD PUSH1 0x40 MLOAD DUP1 SWAP2 SUB SWAP1 REVERT JUMPDEST DUP6 PUSH20 0xFFFFFFFFFFFFFFFFFFFFFFFFFFFFFFFFFFFFFFFF AND DUP8 PUSH32 0xCF7D23A3CBE4E8B36FF82FD1B05B1B17373DC7804B4EBBD6E2356716EF202372 DUP5 PUSH1 0x40 MLOAD PUSH2 0x1EBE SWAP2 SWAP1 PUSH2 0x236E JUMP JUMPDEST PUSH1 0x40 MLOAD DUP1 SWAP2 SUB SWAP1 LOG3 POP POP POP PUSH1 0x1 PUSH1 0x6 DUP2 SWAP1 SSTORE POP POP POP POP POP JUMP JUMPDEST PUSH1 0x1 PUSH1 0x20 MSTORE DUP1 PUSH1 0x0 MSTORE PUSH1 0x40 PUSH1 0x0 KECCAK256 PUSH1 0x0 SWAP2 POP SWAP1 POP DUP1 PUSH1 0x0 ADD PUSH1 0x0 SWAP1 SLOAD SWAP1 PUSH2 0x100 EXP SWAP1 DIV PUSH20 0xFFFFFFFFFFFFFFFFFFFFFFFFFFFFFFFFFFFFFFFF AND SWAP1 DUP1 PUSH1 0x1 ADD DUP1 SLOAD PUSH2 0x1F20 SWAP1 PUSH2 0x2765 JUMP JUMPDEST DUP1 PUSH1 0x1F ADD PUSH1 0x20 DUP1 SWAP2 DIV MUL PUSH1 0x20 ADD PUSH1 0x40 MLOAD SWAP1 DUP2 ADD PUSH1 0x40 MSTORE DUP1 SWAP3 SWAP2 SWAP1 DUP2 DUP2 MSTORE PUSH1 0x20 ADD DUP3 DUP1 SLOAD PUSH2 0x1F4C SWAP1 PUSH2 0x2765 JUMP JUMPDEST DUP1 ISZERO PUSH2 0x1F99 JUMPI DUP1 PUSH1 0x1F LT PUSH2 0x1F6E JUMPI PUSH2 0x100 DUP1 DUP4 SLOAD DIV MUL DUP4 MSTORE SWAP2 PUSH1 0x20 ADD SWAP2 PUSH2 0x1F99 JUMP JUMPDEST DUP3 ADD SWAP2 SWAP1 PUSH1 0x0 MSTORE PUSH1 0x20 PUSH1 0x0 KECCAK256 SWAP1 JUMPDEST DUP2 SLOAD DUP2 MSTORE SWAP1 PUSH1 0x1 ADD SWAP1 PUSH1 0x20 ADD DUP1 DUP4 GT PUSH2 0x1F7C JUMPI DUP3 SWAP1 SUB PUSH1 0x1F AND DUP3 ADD SWAP2 JUMPDEST POP POP POP POP POP SWAP1 DUP1 PUSH1 0x2 ADD PUSH1 0x0 SWAP1 SLOAD SWAP1 PUSH2 0x100 EXP SWAP1 DIV PUSH12 0xFFFFFFFFFFFFFFFFFFFFFFFF AND SWAP1 DUP1 PUSH1 0x2 ADD PUSH1 0xC SWAP1 SLOAD SWAP1 PUSH2 0x100 EXP SWAP1 DIV PUSH1 0xFF AND SWAP1 POP DUP5 JUMP JUMPDEST PUSH1 0x3 PUSH1 0x1 SWAP1 SLOAD SWAP1 PUSH2 0x100 EXP SWAP1 DIV PUSH20 0xFFFFFFFFFFFFFFFFFFFFFFFFFFFFFFFFFFFFFFFF AND PUSH20 0xFFFFFFFFFFFFFFFFFFFFFFFFFFFFFFFFFFFFFFFF AND CALLER PUSH20 0xFFFFFFFFFFFFFFFFFFFFFFFFFFFFFFFFFFFFFFFF AND EQ PUSH2 0x205B JUMPI PUSH1 0x40 MLOAD PUSH32 0x596DCDB800000000000000000000000000000000000000000000000000000000 DUP2 MSTORE PUSH1 0x4 ADD PUSH1 0x40 MLOAD DUP1 SWAP2 SUB SWAP1 REVERT JUMPDEST PUSH1 0x0 PUSH20 0xFFFFFFFFFFFFFFFFFFFFFFFFFFFFFFFFFFFFFFFF AND DUP2 PUSH20 0xFFFFFFFFFFFFFFFFFFFFFFFFFFFFFFFFFFFFFFFF AND SUB PUSH2 0x20C1 JUMPI PUSH1 0x40 MLOAD PUSH32 0x82B4290000000000000000000000000000000000000000000000000000000000 DUP2 MSTORE PUSH1 0x4 ADD PUSH1 0x40 MLOAD DUP1 SWAP2 SUB SWAP1 REVERT JUMPDEST PUSH1 0x0 PUSH1 0x3 PUSH1 0x1 SWAP1 SLOAD SWAP1 PUSH2 0x100 EXP SWAP1 DIV PUSH20 0xFFFFFFFFFFFFFFFFFFFFFFFFFFFFFFFFFFFFFFFF AND SWAP1 POP DUP2 PUSH1 0x3 PUSH1 0x1 PUSH2 0x100 EXP DUP2 SLOAD DUP2 PUSH20 0xFFFFFFFFFFFFFFFFFFFFFFFFFFFFFFFFFFFFFFFF MUL NOT AND SWAP1 DUP4 PUSH20 0xFFFFFFFFFFFFFFFFFFFFFFFFFFFFFFFFFFFFFFFF AND MUL OR SWAP1 SSTORE POP DUP2 PUSH20 0xFFFFFFFFFFFFFFFFFFFFFFFFFFFFFFFFFFFFFFFF AND DUP2 PUSH20 0xFFFFFFFFFFFFFFFFFFFFFFFFFFFFFFFFFFFFFFFF AND PUSH32 0x8BE0079C531659141344CD1FD0A4F28419497F9722A3DAAFE3B4186F6B6457E0 PUSH1 0x40 MLOAD PUSH1 0x40 MLOAD DUP1 SWAP2 SUB SWAP1 LOG3 POP POP JUMP JUMPDEST PUSH1 0x0 DUP1 REVERT JUMPDEST PUSH1 0x0 DUP1 REVERT JUMPDEST PUSH1 0x0 DUP2 SWAP1 POP SWAP2 SWAP1 POP JUMP JUMPDEST PUSH2 0x21A4 DUP2 PUSH2 0x2191 JUMP JUMPDEST DUP2 EQ PUSH2 0x21AF JUMPI PUSH1 0x0 DUP1 REVERT JUMPDEST POP JUMP JUMPDEST PUSH1 0x0 DUP2 CALLDATALOAD SWAP1 POP PUSH2 0x21C1 DUP2 PUSH2 0x219B JUMP JUMPDEST SWAP3 SWAP2 POP POP JUMP JUMPDEST PUSH1 0x0 PUSH1 0x20 DUP3 DUP5 SUB SLT ISZERO PUSH2 0x21DD JUMPI PUSH2 0x21DC PUSH2 0x2187 JUMP JUMPDEST JUMPDEST PUSH1 0x0 PUSH2 0x21EB DUP5 DUP3 DUP6 ADD PUSH2 0x21B2 JUMP JUMPDEST SWAP2 POP POP SWAP3 SWAP2 POP POP JUMP JUMPDEST PUSH1 0x0 PUSH20 0xFFFFFFFFFFFFFFFFFFFFFFFFFFFFFFFFFFFFFFFF DUP3 AND SWAP1 POP SWAP2 SWAP1 POP JUMP JUMPDEST PUSH1 0x0 PUSH2 0x221F DUP3 PUSH2 0x21F4 JUMP JUMPDEST SWAP1 POP SWAP2 SWAP1 POP JUMP JUMPDEST PUSH2 0x222F DUP2 PUSH2 0x2214 JUMP JUMPDEST DUP2 EQ PUSH2 0x223A JUMPI PUSH1 0x0 DUP1 REVERT JUMPDEST POP JUMP JUMPDEST PUSH1 0x0 DUP2 CALLDATALOAD SWAP1 POP PUSH2 0x224C DUP2 PUSH2 0x2226 JUMP JUMPDEST SWAP3 SWAP2 POP POP JUMP JUMPDEST PUSH1 0x0 PUSH1 0x20 DUP3 DUP5 SUB SLT ISZERO PUSH2 0x2268 JUMPI PUSH2 0x2267 PUSH2 0x2187 JUMP JUMPDEST JUMPDEST PUSH1 0x0 PUSH2 0x2276 DUP5 DUP3 DUP6 ADD PUSH2 0x223D JUMP JUMPDEST SWAP2 POP POP SWAP3 SWAP2 POP POP JUMP JUMPDEST PUSH1 0x0 DUP2 MLOAD SWAP1 POP SWAP2 SWAP1 POP JUMP JUMPDEST PUSH1 0x0 DUP3 DUP3 MSTORE PUSH1 0x20 DUP3 ADD SWAP1 POP SWAP3 SWAP2 POP POP JUMP JUMPDEST PUSH1 0x0 DUP2 SWAP1 POP PUSH1 0x20 DUP3 ADD SWAP1 POP SWAP2 SWAP1 POP JUMP JUMPDEST PUSH2 0x22B4 DUP2 PUSH2 0x2191 JUMP JUMPDEST DUP3 MSTORE POP POP JUMP JUMPDEST PUSH1 0x0 PUSH2 0x22C6 DUP4 DUP4 PUSH2 0x22AB JUMP JUMPDEST PUSH1 0x20 DUP4 ADD SWAP1 POP SWAP3 SWAP2 POP POP JUMP JUMPDEST PUSH1 0x0 PUSH1 0x20 DUP3 ADD SWAP1 POP SWAP2 SWAP1 POP JUMP JUMPDEST PUSH1 0x0 PUSH2 0x22EA DUP3 PUSH2 0x227F JUMP JUMPDEST PUSH2 0x22F4 DUP2 DUP6 PUSH2 0x228A JUMP JUMPDEST SWAP4 POP PUSH2 0x22FF DUP4 PUSH2 0x229B JUMP JUMPDEST DUP1 PUSH1 0x0 JUMPDEST DUP4 DUP2 LT ISZERO PUSH2 0x2330 JUMPI DUP2 MLOAD PUSH2 0x2317 DUP9 DUP3 PUSH2 0x22BA JUMP JUMPDEST SWAP8 POP PUSH2 0x2322 DUP4 PUSH2 0x22D2 JUMP JUMPDEST SWAP3 POP POP PUSH1 0x1 DUP2 ADD SWAP1 POP PUSH2 0x2303 JUMP JUMPDEST POP DUP6 SWAP4 POP POP POP POP SWAP3 SWAP2 POP POP JUMP JUMPDEST PUSH1 0x0 PUSH1 0x20 DUP3 ADD SWAP1 POP DUP2 DUP2 SUB PUSH1 0x0 DUP4 ADD MSTORE PUSH2 0x2357 DUP2 DUP5 PUSH2 0x22DF JUMP JUMPDEST SWAP1 POP SWAP3 SWAP2 POP POP JUMP JUMPDEST PUSH2 0x2368 DUP2 PUSH2 0x2191 JUMP JUMPDEST DUP3 MSTORE POP POP JUMP JUMPDEST PUSH1 0x0 PUSH1 0x20 DUP3 ADD SWAP1 POP PUSH2 0x2383 PUSH1 0x0 DUP4 ADD DUP5 PUSH2 0x235F JUMP JUMPDEST SWAP3 SWAP2 POP POP JUMP JUMPDEST PUSH1 0x0 DUP2 ISZERO ISZERO SWAP1 POP SWAP2 SWAP1 POP JUMP JUMPDEST PUSH2 0x239E DUP2 PUSH2 0x2389 JUMP JUMPDEST DUP3 MSTORE POP POP JUMP JUMPDEST PUSH1 0x0 PUSH1 0x20 DUP3 ADD SWAP1 POP PUSH2 0x23B9 PUSH1 0x0 DUP4 ADD DUP5 PUSH2 0x2395 JUMP JUMPDEST SWAP3 SWAP2 POP POP JUMP JUMPDEST PUSH1 0x0 DUP1 PUSH1 0x40 DUP4 DUP6 SUB SLT ISZERO PUSH2 0x23D6 JUMPI PUSH2 0x23D5 PUSH2 0x2187 JUMP JUMPDEST JUMPDEST PUSH1 0x0 PUSH2 0x23E4 DUP6 DUP3 DUP7 ADD PUSH2 0x21B2 JUMP JUMPDEST SWAP3 POP POP PUSH1 0x20 PUSH2 0x23F5 DUP6 DUP3 DUP7 ADD PUSH2 0x21B2 JUMP JUMPDEST SWAP2 POP POP SWAP3 POP SWAP3 SWAP1 POP JUMP JUMPDEST PUSH2 0x2408 DUP2 PUSH2 0x2214 JUMP JUMPDEST DUP3 MSTORE POP POP JUMP JUMPDEST PUSH1 0x0 PUSH1 0x20 DUP3 ADD SWAP1 POP PUSH2 0x2423 PUSH1 0x0 DUP4 ADD DUP5 PUSH2 0x23FF JUMP JUMPDEST SWAP3 SWAP2 POP POP JUMP JUMPDEST PUSH1 0x0 DUP1 REVERT JUMPDEST PUSH1 0x0 DUP1 REVERT JUMPDEST PUSH1 0x0 DUP1 REVERT JUMPDEST PUSH1 0x0 DUP1 DUP4 PUSH1 0x1F DUP5 ADD SLT PUSH2 0x244E JUMPI PUSH2 0x244D PUSH2 0x2429 JUMP JUMPDEST JUMPDEST DUP3 CALLDATALOAD SWAP1 POP PUSH8 0xFFFFFFFFFFFFFFFF DUP2 GT ISZERO PUSH2 0x246B JUMPI PUSH2 0x246A PUSH2 0x242E JUMP JUMPDEST JUMPDEST PUSH1 0x20 DUP4 ADD SWAP2 POP DUP4 PUSH1 0x1 DUP3 MUL DUP4 ADD GT ISZERO PUSH2 0x2487 JUMPI PUSH2 0x2486 PUSH2 0x2433 JUMP JUMPDEST JUMPDEST SWAP3 POP SWAP3 SWAP1 POP JUMP JUMPDEST PUSH1 0x0 DUP1 PUSH1 0x20 DUP4 DUP6 SUB SLT ISZERO PUSH2 0x24A5 JUMPI PUSH2 0x24A4 PUSH2 0x2187 JUMP JUMPDEST JUMPDEST PUSH1 0x0 DUP4 ADD CALLDATALOAD PUSH8 0xFFFFFFFFFFFFFFFF DUP2 GT ISZERO PUSH2 0x24C3 JUMPI PUSH2 0x24C2 PUSH2 0x218C JUMP JUMPDEST JUMPDEST PUSH2 0x24CF DUP6 DUP3 DUP7 ADD PUSH2 0x2438 JUMP JUMPDEST SWAP3 POP SWAP3 POP POP SWAP3 POP SWAP3 SWAP1 POP JUMP JUMPDEST PUSH1 0x0 DUP1 PUSH1 0x40 DUP4 DUP6 SUB SLT ISZERO PUSH2 0x24F2 JUMPI PUSH2 0x24F1 PUSH2 0x2187 JUMP JUMPDEST JUMPDEST PUSH1 0x0 PUSH2 0x2500 DUP6 DUP3 DUP7 ADD PUSH2 0x21B2 JUMP JUMPDEST SWAP3 POP POP PUSH1 0x20 PUSH2 0x2511 DUP6 DUP3 DUP7 ADD PUSH2 0x223D JUMP JUMPDEST SWAP2 POP POP SWAP3 POP SWAP3 SWAP1 POP JUMP JUMPDEST PUSH1 0x0 DUP2 MLOAD SWAP1 POP SWAP2 SWAP1 POP JUMP JUMPDEST PUSH1 0x0 DUP3 DUP3 MSTORE PUSH1 0x20 DUP3 ADD SWAP1 POP SWAP3 SWAP2 POP POP JUMP JUMPDEST PUSH1 0x0 JUMPDEST DUP4 DUP2 LT ISZERO PUSH2 0x2555 JUMPI DUP1 DUP3 ADD MLOAD DUP2 DUP5 ADD MSTORE PUSH1 0x20 DUP2 ADD SWAP1 POP PUSH2 0x253A JUMP JUMPDEST PUSH1 0x0 DUP5 DUP5 ADD MSTORE POP POP POP POP JUMP JUMPDEST PUSH1 0x0 PUSH1 0x1F NOT PUSH1 0x1F DUP4 ADD AND SWAP1 POP SWAP2 SWAP1 POP JUMP JUMPDEST PUSH1 0x0 PUSH2 0x257D DUP3 PUSH2 0x251B JUMP JUMPDEST PUSH2 0x2587 DUP2 DUP6 PUSH2 0x2526 JUMP JUMPDEST SWAP4 POP PUSH2 0x2597 DUP2 DUP6 PUSH1 0x20 DUP7 ADD PUSH2 0x2537 JUMP JUMPDEST PUSH2 0x25A0 DUP2 PUSH2 0x2561 JUMP JUMPDEST DUP5 ADD SWAP2 POP POP SWAP3 SWAP2 POP POP JUMP JUMPDEST PUSH1 0x0 PUSH12 0xFFFFFFFFFFFFFFFFFFFFFFFF DUP3 AND SWAP1 POP SWAP2 SWAP1 POP JUMP JUMPDEST PUSH2 0x25CC DUP2 PUSH2 0x25AB JUMP JUMPDEST DUP3 MSTORE POP POP JUMP JUMPDEST PUSH1 0x0 PUSH1 0x80 DUP3 ADD SWAP1 POP PUSH2 0x25E7 PUSH1 0x0 DUP4 ADD DUP8 PUSH2 0x23FF JUMP JUMPDEST DUP2 DUP2 SUB PUSH1 0x20 DUP4 ADD MSTORE PUSH2 0x25F9 DUP2 DUP7 PUSH2 0x2572 JUMP JUMPDEST SWAP1 POP PUSH2 0x2608 PUSH1 0x40 DUP4 ADD DUP6 PUSH2 0x25C3 JUMP JUMPDEST PUSH2 0x2615 PUSH1 0x60 DUP4 ADD DUP5 PUSH2 0x2395 JUMP JUMPDEST SWAP6 SWAP5 POP POP POP POP POP JUMP JUMPDEST PUSH32 0x4E487B7100000000000000000000000000000000000000000000000000000000 PUSH1 0x0 MSTORE PUSH1 0x11 PUSH1 0x4 MSTORE PUSH1 0x24 PUSH1 0x0 REVERT JUMPDEST PUSH1 0x0 PUSH2 0x2658 DUP3 PUSH2 0x2191 JUMP JUMPDEST SWAP2 POP PUSH2 0x2663 DUP4 PUSH2 0x2191 JUMP JUMPDEST SWAP3 POP DUP3 DUP3 SUB SWAP1 POP DUP2 DUP2 GT ISZERO PUSH2 0x267B JUMPI PUSH2 0x267A PUSH2 0x261E JUMP JUMPDEST JUMPDEST SWAP3 SWAP2 POP POP JUMP JUMPDEST PUSH1 0x0 DUP2 SWAP1 POP SWAP3 SWAP2 POP POP JUMP JUMPDEST POP JUMP JUMPDEST PUSH1 0x0 PUSH2 0x269C PUSH1 0x0 DUP4 PUSH2 0x2681 JUMP JUMPDEST SWAP2 POP PUSH2 0x26A7 DUP3 PUSH2 0x268C JUMP JUMPDEST PUSH1 0x0 DUP3 ADD SWAP1 POP SWAP2 SWAP1 POP JUMP JUMPDEST PUSH1 0x0 PUSH2 0x26BD DUP3 PUSH2 0x268F JUMP JUMPDEST SWAP2 POP DUP2 SWAP1 POP SWAP2 SWAP1 POP JUMP JUMPDEST PUSH1 0x0 PUSH2 0x26D2 DUP3 PUSH2 0x25AB JUMP JUMPDEST SWAP2 POP PUSH2 0x26DD DUP4 PUSH2 0x25AB JUMP JUMPDEST SWAP3 POP DUP3 DUP3 SUB SWAP1 POP PUSH12 0xFFFFFFFFFFFFFFFFFFFFFFFF DUP2 GT ISZERO PUSH2 0x2701 JUMPI PUSH2 0x2700 PUSH2 0x261E JUMP JUMPDEST JUMPDEST SWAP3 SWAP2 POP POP JUMP JUMPDEST PUSH32 0x4E487B7100000000000000000000000000000000000000000000000000000000 PUSH1 0x0 MSTORE PUSH1 0x41 PUSH1 0x4 MSTORE PUSH1 0x24 PUSH1 0x0 REVERT JUMPDEST PUSH32 0x4E487B7100000000000000000000000000000000000000000000000000000000 PUSH1 0x0 MSTORE PUSH1 0x22 PUSH1 0x4 MSTORE PUSH1 0x24 PUSH1 0x0 REVERT JUMPDEST PUSH1 0x0 PUSH1 0x2 DUP3 DIV SWAP1 POP PUSH1 0x1 DUP3 AND DUP1 PUSH2 0x277D JUMPI PUSH1 0x7F DUP3 AND SWAP2 POP JUMPDEST PUSH1 0x20 DUP3 LT DUP2 SUB PUSH2 0x2790 JUMPI PUSH2 0x278F PUSH2 0x2736 JUMP JUMPDEST JUMPDEST POP SWAP2 SWAP1 POP JUMP JUMPDEST PUSH1 0x0 DUP2 SWAP1 POP DUP2 PUSH1 0x0 MSTORE PUSH1 0x20 PUSH1 0x0 KECCAK256 SWAP1 POP SWAP2 SWAP1 POP JUMP JUMPDEST PUSH1 0x0 PUSH1 0x20 PUSH1 0x1F DUP4 ADD DIV SWAP1 POP SWAP2 SWAP1 POP JUMP JUMPDEST PUSH1 0x0 DUP3 DUP3 SHL SWAP1 POP SWAP3 SWAP2 POP POP JUMP JUMPDEST PUSH1 0x0 PUSH1 0x8 DUP4 MUL PUSH2 0x27F8 PUSH32 0xFFFFFFFFFFFFFFFFFFFFFFFFFFFFFFFFFFFFFFFFFFFFFFFFFFFFFFFFFFFFFFFF DUP3 PUSH2 0x27BB JUMP JUMPDEST PUSH2 0x2802 DUP7 DUP4 PUSH2 0x27BB JUMP JUMPDEST SWAP6 POP DUP1 NOT DUP5 AND SWAP4 POP DUP1 DUP7 AND DUP5 OR SWAP3 POP POP POP SWAP4 SWAP3 POP POP POP JUMP JUMPDEST PUSH1 0x0 DUP2 SWAP1 POP SWAP2 SWAP1 POP JUMP JUMPDEST PUSH1 0x0 PUSH2 0x283F PUSH2 0x283A PUSH2 0x2835 DUP5 PUSH2 0x2191 JUMP JUMPDEST PUSH2 0x281A JUMP JUMPDEST PUSH2 0x2191 JUMP JUMPDEST SWAP1 POP SWAP2 SWAP1 POP JUMP JUMPDEST PUSH1 0x0 DUP2 SWAP1 POP SWAP2 SWAP1 POP JUMP JUMPDEST PUSH2 0x2859 DUP4 PUSH2 0x2824 JUMP JUMPDEST PUSH2 0x286D PUSH2 0x2865 DUP3 PUSH2 0x2846 JUMP JUMPDEST DUP5 DUP5 SLOAD PUSH2 0x27C8 JUMP JUMPDEST DUP3 SSTORE POP POP POP POP JUMP JUMPDEST PUSH1 0x0 SWAP1 JUMP JUMPDEST PUSH2 0x2882 PUSH2 0x2875 JUMP JUMPDEST PUSH2 0x288D DUP2 DUP5 DUP5 PUSH2 0x2850 JUMP JUMPDEST POP POP POP JUMP JUMPDEST JUMPDEST DUP2 DUP2 LT ISZERO PUSH2 0x28B1 JUMPI PUSH2 0x28A6 PUSH1 0x0 DUP3 PUSH2 0x287A JUMP JUMPDEST PUSH1 0x1 DUP2 ADD SWAP1 POP PUSH2 0x2893 JUMP JUMPDEST POP POP JUMP JUMPDEST PUSH1 0x1F DUP3 GT ISZERO PUSH2 0x28F6 JUMPI PUSH2 0x28C7 DUP2 PUSH2 0x2796 JUMP JUMPDEST PUSH2 0x28D0 DUP5 PUSH2 0x27AB JUMP JUMPDEST DUP2 ADD PUSH1 0x20 DUP6 LT ISZERO PUSH2 0x28DF JUMPI DUP2 SWAP1 POP JUMPDEST PUSH2 0x28F3 PUSH2 0x28EB DUP6 PUSH2 0x27AB JUMP JUMPDEST DUP4 ADD DUP3 PUSH2 0x2892 JUMP JUMPDEST POP POP JUMPDEST POP POP POP JUMP JUMPDEST PUSH1 0x0 DUP3 DUP3 SHR SWAP1 POP SWAP3 SWAP2 POP POP JUMP JUMPDEST PUSH1 0x0 PUSH2 0x2919 PUSH1 0x0 NOT DUP5 PUSH1 0x8 MUL PUSH2 0x28FB JUMP JUMPDEST NOT DUP1 DUP4 AND SWAP2 POP POP SWAP3 SWAP2 POP POP JUMP JUMPDEST PUSH1 0x0 PUSH2 0x2932 DUP4 DUP4 PUSH2 0x2908 JUMP JUMPDEST SWAP2 POP DUP3 PUSH1 0x2 MUL DUP3 OR SWAP1 POP SWAP3 SWAP2 POP POP JUMP JUMPDEST PUSH2 0x294B DUP3 PUSH2 0x251B JUMP JUMPDEST PUSH8 0xFFFFFFFFFFFFFFFF DUP2 GT ISZERO PUSH2 0x2964 JUMPI PUSH2 0x2963 PUSH2 0x2707 JUMP JUMPDEST JUMPDEST PUSH2 0x296E DUP3 SLOAD PUSH2 0x2765 JUMP JUMPDEST PUSH2 0x2979 DUP3 DUP3 DUP6 PUSH2 0x28B5 JUMP JUMPDEST PUSH1 0x0 PUSH1 0x20 SWAP1 POP PUSH1 0x1F DUP4 GT PUSH1 0x1 DUP2 EQ PUSH2 0x29AC JUMPI PUSH1 0x0 DUP5 ISZERO PUSH2 0x299A JUMPI DUP3 DUP8 ADD MLOAD SWAP1 POP JUMPDEST PUSH2 0x29A4 DUP6 DUP3 PUSH2 0x2926 JUMP JUMPDEST DUP7 SSTORE POP PUSH2 0x2A0C JUMP JUMPDEST PUSH1 0x1F NOT DUP5 AND PUSH2 0x29BA DUP7 PUSH2 0x2796 JUMP JUMPDEST PUSH1 0x0 JUMPDEST DUP3 DUP2 LT ISZERO PUSH2 0x29E2 JUMPI DUP5 DUP10 ADD MLOAD DUP3 SSTORE PUSH1 0x1 DUP3 ADD SWAP2 POP PUSH1 0x20 DUP6 ADD SWAP5 POP PUSH1 0x20 DUP2 ADD SWAP1 POP PUSH2 0x29BD JUMP JUMPDEST DUP7 DUP4 LT ISZERO PUSH2 0x29FF JUMPI DUP5 DUP10 ADD MLOAD PUSH2 0x29FB PUSH1 0x1F DUP10 AND DUP3 PUSH2 0x2908 JUMP JUMPDEST DUP4 SSTORE POP JUMPDEST PUSH1 0x1 PUSH1 0x2 DUP9 MUL ADD DUP9 SSTORE POP POP POP JUMPDEST POP POP POP POP POP POP JUMP JUMPDEST PUSH1 0x0 PUSH2 0x2A1F DUP3 PUSH2 0x2191 JUMP JUMPDEST SWAP2 POP PUSH2 0x2A2A DUP4 PUSH2 0x2191 JUMP JUMPDEST SWAP3 POP DUP3 DUP3 ADD SWAP1 POP DUP1 DUP3 GT ISZERO PUSH2 0x2A42 JUMPI PUSH2 0x2A41 PUSH2 0x261E JUMP JUMPDEST JUMPDEST SWAP3 SWAP2 POP POP JUMP JUMPDEST PUSH1 0x0 PUSH1 0x40 DUP3 ADD SWAP1 POP PUSH2 0x2A5D PUSH1 0x0 DUP4 ADD DUP6 PUSH2 0x235F JUMP JUMPDEST PUSH2 0x2A6A PUSH1 0x20 DUP4 ADD DUP5 PUSH2 0x235F JUMP JUMPDEST SWAP4 SWAP3 POP POP POP JUMP INVALID LOG2 PUSH5 0x6970667358 0x22 SLT KECCAK256 SHL 0xB3 CODESIZE 0x2B BLOBBASEFEE EXTCODESIZE 0xAF 0x29 PREVRANDAO PUSH19 0x25568C53BA4DE5AC9A64BC5B7347F0030C89B7 NOT CALLDATACOPY 0xC0 PUSH5 0x736F6C6343 STOP ADDMOD XOR STOP CALLER "
        },
        "methodIdentifiers": {
          "botCount()": "428b8617",
          "bots(uint256)": "f221ddb9",
          "createBot(string)": "9cbd141c",
          "creditBot(uint256)": "9d992eeb",
          "deactivateBot(uint256)": "b26bf5a0",
          "debitBot(uint256,uint256)": "6c667ab1",
          "deposit(uint256)": "b6b55f25",
          "emergencyWithdraw(uint256)": "5312ea8e",
          "getUserBots(address)": "34c1d429",
          "isSolvent()": "5ce23950",
          "owner()": "8da5cb5b",
          "pause()": "8456cb59",
          "paused()": "5c975abb",
          "setTradeExecutor(address)": "5767c659",
          "totalFunds()": "968ed600",
          "tradeExecutor()": "a7f07011",
          "transferOwnership(address)": "f2fde38b",
          "unpause()": "3f4ba83a",
          "withdraw(uint256)": "2e1a7d4d",
          "withdrawTo(uint256,address)": "c86283c8"
        }
      }
    }
  }
}