{
  "contracts/TradeExecutor.sol": {
    "TradeExecutor": {
      "abi": [
        {
          "inputs": [
            {
              "internalType": "address",
              "name": "_botManager",
              "type": "address"
            },
            {
              "internalType": "address",
              "name": "_priceFeed",
              "type": "address"
            }
          ],
          "stateMutability": "nonpayable",
          "type": "constructor"
        },
        {
          "inputs": [],
          "name": "InsufficientExecutorBalance",
          "type": "error"
        },
        {
          "inputs": [],
          "name": "InvalidBot",
          "type": "error"
        },
        {
          "inputs": [],
          "name": "InvalidPrice",
          "type": "error"
        },
        {
          "inputs": [
            {
              "internalType": "address",
              "name": "owner",
              "type": "address"
            }
          ],
          "name": "OwnableInvalidOwner",
          "type": "error"
        },
        {
          "inputs": [
            {
              "internalType": "address",
              "name": "account",
              "type": "address"
            }
          ],
          "name": "OwnableUnauthorizedAccount",
          "type": "error"
        },
        {
          "inputs": [],
          "name": "ZeroAddress",
          "type": "error"
        },
        {
          "anonymous": false,
          "inputs": [
            {
              "indexed": false,
              "internalType": "address",
              "name": "botManager",
              "type": "address"
            },
            {
              "indexed": false,
              "internalType": "address",
              "name": "priceFeed",
              "type": "address"
            }
          ],
          "name": "AddressesUpdated",
          "type": "event"
        },
        {
          "anonymous": false,
          "inputs": [
            {
              "indexed": true,
              "internalType": "address",
              "name": "previousOwner",
              "type": "address"
            },
            {
              "indexed": true,
              "internalType": "address",
              "name": "newOwner",
              "type": "address"
            }
          ],
          "name": "OwnershipTransferred",
          "type": "event"
        },
        {
          "anonymous": false,
          "inputs": [
            {
              "indexed": true,
              "internalType": "uint256",
              "name": "botId",
              "type": "uint256"
            },
            {
              "indexed": false,
              "internalType": "int256",
              "name": "currentPrice",
              "type": "int256"
            },
            {
              "indexed": false,
              "internalType": "bool",
              "name": "isWin",
              "type": "bool"
            },
            {
              "indexed": false,
              "internalType": "uint256",
              "name": "impactAmount",
              "type": "uint256"
            }
          ],
          "name": "TradeExecuted",
          "type": "event"
        },
        {
          "inputs": [],
          "name": "botManager",
          "outputs": [
            {
              "internalType": "contract ITradingBotManager",
              "name": "",
              "type": "address"
            }
          ],
          "stateMutability": "view",
          "type": "function"
        },
        {
          "inputs": [
            {
              "internalType": "uint256",
              "name": "botId",
              "type": "uint256"
            },
            {
              "internalType": "uint256",
              "name": "tradeAmount",
              "type": "uint256"
            },
            {
              "internalType": "bool",
              "name": "direction",
              "type": "bool"
            },
            {
              "internalType": "int256",
              "name": "referencePrice",
              "type": "int256"
            }
          ],
          "name": "executeSimulatedTrade",
          "outputs": [],
          "stateMutability": "nonpayable",
          "type": "function"
        },
        {
          "inputs": [],
          "name": "getLatestPrice",
          "outputs": [
            {
              "internalType": "int256",
              "name": "",
              "type": "int256"
            }
          ],
          "stateMutability": "view",
          "type": "function"
        },
        {
          "inputs": [],
          "name": "lossPercentage",
          "outputs": [
            {
              "internalType": "uint256",
              "name": "",
              "type": "uint256"
            }
          ],
          "stateMutability": "view",
          "type": "function"
        },
        {
          "inputs": [],
          "name": "owner",
          "outputs": [
            {
              "internalType": "address",
              "name": "",
              "type": "address"
            }
          ],
          "stateMutability": "view",
          "type": "function"
        },
        {
          "inputs": [],
          "name": "priceFeed",
          "outputs": [
            {
              "internalType": "contract AggregatorV3Interface",
              "name": "",
              "type": "address"
            }
          ],
          "stateMutability": "view",
          "type": "function"
        },
        {
          "inputs": [],
          "name": "renounceOwnership",
          "outputs": [],
          "stateMutability": "nonpayable",
          "type": "function"
        },
        {
          "inputs": [],
          "name": "rewardPercentage",
          "outputs": [
            {
              "internalType": "uint256",
              "name": "",
              "type": "uint256"
            }
          ],
          "stateMutability": "view",
          "type": "function"
        },
        {
          "inputs": [
            {
              "internalType": "address",
              "name": "_botManager",
              "type": "address"
            },
            {
              "internalType": "address",
              "name": "_priceFeed",
              "type": "address"
            }
          ],
          "name": "setAddresses",
          "outputs": [],
          "stateMutability": "nonpayable",
          "type": "function"
        },
        {
          "inputs": [
            {
              "internalType": "address",
              "name": "newOwner",
              "type": "address"
            }
          ],
          "name": "transferOwnership",
          "outputs": [],
          "stateMutability": "nonpayable",
          "type": "function"
        },
        {
          "inputs": [
            {
              "internalType": "uint256",
              "name": "amount",
              "type": "uint256"
            }
          ],
          "name": "withdrawLiquidity",
          "outputs": [],
          "stateMutability": "nonpayable",
          "type": "function"
        },
        {
          "stateMutability": "payable",
          "type": "receive"
        }
      ],
      "evm": {
        "bytecode": {
          "linkReferences": {},
          "object": "6080604052600560035560056004553480156200001b57600080fd5b506040516200174c3803806200174c833981810160405281019062000041919062000321565b33600073ffffffffffffffffffffffffffffffffffffffff168173ffffffffffffffffffffffffffffffffffffffff1603620000b75760006040517f1e4fbdf7000000000000000000000000000000000000000000000000000000008152600401620000ae919062000379565b60405180910390fd5b620000c881620001f360201b60201c565b50600073ffffffffffffffffffffffffffffffffffffffff168273ffffffffffffffffffffffffffffffffffffffff161480620001315750600073ffffffffffffffffffffffffffffffffffffffff168173ffffffffffffffffffffffffffffffffffffffff16145b1562000169576040517fd92e233d00000000000000000000000000000000000000000000000000000000815260040160405180910390fd5b81600160006101000a81548173ffffffffffffffffffffffffffffffffffffffff021916908373ffffffffffffffffffffffffffffffffffffffff16021790555080600260006101000a81548173ffffffffffffffffffffffffffffffffffffffff021916908373ffffffffffffffffffffffffffffffffffffffff160217905550505062000396565b60008060009054906101000a900473ffffffffffffffffffffffffffffffffffffffff169050816000806101000a81548173ffffffffffffffffffffffffffffffffffffffff021916908373ffffffffffffffffffffffffffffffffffffffff1602179055508173ffffffffffffffffffffffffffffffffffffffff168173ffffffffffffffffffffffffffffffffffffffff167f8be0079c531659141344cd1fd0a4f28419497f9722a3daafe3b4186f6b6457e060405160405180910390a35050565b600080fd5b600073ffffffffffffffffffffffffffffffffffffffff82169050919050565b6000620002e982620002bc565b9050919050565b620002fb81620002dc565b81146200030757600080fd5b50565b6000815190506200031b81620002f0565b92915050565b600080604083850312156200033b576200033a620002b7565b5b60006200034b858286016200030a565b92505060206200035e858286016200030a565b9150509250929050565b6200037381620002dc565b82525050565b600060208201905062000390600083018462000368565b92915050565b6113a680620003a66000396000f3fe6080604052600436106100a05760003560e01c80638da5cb5b116100645780638da5cb5b1461016d5780638e15f4731461019857806390107afe146101c3578063a81183b5146101ec578063e7c01d8614610215578063f2fde38b14610240576100a7565b80630a861f2a146100ac57806350a3238b146100d557806352d472eb14610100578063715018a61461012b578063741bef1a14610142576100a7565b366100a757005b600080fd5b3480156100b857600080fd5b506100d360048036038101906100ce9190610b50565b610269565b005b3480156100e157600080fd5b506100ea610305565b6040516100f79190610bfc565b60405180910390f35b34801561010c57600080fd5b5061011561032b565b6040516101229190610c26565b60405180910390f35b34801561013757600080fd5b50610140610331565b005b34801561014e57600080fd5b50610157610345565b6040516101649190610c62565b60405180910390f35b34801561017957600080fd5b5061018261036b565b60405161018f9190610c9e565b60405180910390f35b3480156101a457600080fd5b506101ad610394565b6040516101ba9190610cd2565b60405180910390f35b3480156101cf57600080fd5b506101ea60048036038101906101e59190610d19565b610435565b005b3480156101f857600080fd5b50610213600480360381019061020e9190610dbd565b61059a565b005b34801561022157600080fd5b5061022a610927565b6040516102379190610c26565b60405180910390f35b34801561024c57600080fd5b5061026760048036038101906102629190610e24565b61092d565b005b6102716109b3565b804710156102b4576040517f08c379a00000000000000000000000000000000000000000000000000000000081526004016102ab90610eae565b60405180910390fd5b6102bc61036b565b73ffffffffffffffffffffffffffffffffffffffff166108fc829081150290604051600060405180830381858888f19350505050158015610301573d6000803e3d6000fd5b5050565b600160009054906101000a900473ffffffffffffffffffffffffffffffffffffffff1681565b60035481565b6103396109b3565b6103436000610a3a565b565b600260009054906101000a900473ffffffffffffffffffffffffffffffffffffffff1681565b60008060009054906101000a900473ffffffffffffffffffffffffffffffffffffffff16905090565b600080600260009054906101000a900473ffffffffffffffffffffffffffffffffffffffff1673ffffffffffffffffffffffffffffffffffffffff1663feaf968c6040518163ffffffff1660e01b815260040160a060405180830381865afa158015610404573d6000803e3d6000fd5b505050506040513d601f19601f820116820180604052508101906104289190610f3a565b5050509150508091505090565b61043d6109b3565b600073ffffffffffffffffffffffffffffffffffffffff168273ffffffffffffffffffffffffffffffffffffffff1614806104a45750600073ffffffffffffffffffffffffffffffffffffffff168173ffffffffffffffffffffffffffffffffffffffff16145b156104db576040517fd92e233d00000000000000000000000000000000000000000000000000000000815260040160405180910390fd5b81600160006101000a81548173ffffffffffffffffffffffffffffffffffffffff021916908373ffffffffffffffffffffffffffffffffffffffff16021790555080600260006101000a81548173ffffffffffffffffffffffffffffffffffffffff021916908373ffffffffffffffffffffffffffffffffffffffff1602179055507fc651c70f44278e4b6b346230d2fcc09308ad801d6dc8b9c055f45581b3609075828260405161058e929190610fb5565b60405180910390a15050565b6105a26109b3565b600080600160009054906101000a900473ffffffffffffffffffffffffffffffffffffffff1673ffffffffffffffffffffffffffffffffffffffff1663f221ddb9876040518263ffffffff1660e01b81526004016106009190610c26565b600060405180830381865afa15801561061d573d6000803e3d6000fd5b505050506040513d6000823e3d601f19601f8201168201806040525081019061064691906111ad565b935093505050801580610666575084826bffffffffffffffffffffffff16105b806106715750600085145b156106a8576040517fc7fcc46100000000000000000000000000000000000000000000000000000000815260040160405180910390fd5b60006106b2610394565b9050600081136106ed576040517ebfc92100000000000000000000000000000000000000000000000000000000815260040160405180910390fd5b6000856106fc57848212610700565b8482135b9050801561083157600060646003548961071a919061125f565b61072491906112d0565b905080471015610760576040517f5bc29c9a00000000000000000000000000000000000000000000000000000000815260040160405180910390fd5b600160009054906101000a900473ffffffffffffffffffffffffffffffffffffffff1673ffffffffffffffffffffffffffffffffffffffff16639d992eeb828b6040518363ffffffff1660e01b81526004016107bc9190610c26565b6000604051808303818588803b1580156107d557600080fd5b505af11580156107e9573d6000803e3d6000fd5b5050505050887fc0ef5ad693c2a94e3a1480eccf40ff4f8d061571fde27bcdfa129e63051296f68460018460405161082393929190611310565b60405180910390a25061091d565b6000606460045489610843919061125f565b61084d91906112d0565b9050600160009054906101000a900473ffffffffffffffffffffffffffffffffffffffff1673ffffffffffffffffffffffffffffffffffffffff16636c667ab18a836040518363ffffffff1660e01b81526004016108ac929190611347565b600060405180830381600087803b1580156108c657600080fd5b505af11580156108da573d6000803e3d6000fd5b50505050887fc0ef5ad693c2a94e3a1480eccf40ff4f8d061571fde27bcdfa129e63051296f68460008460405161091393929190611310565b60405180910390a2505b5050505050505050565b60045481565b6109356109b3565b600073ffffffffffffffffffffffffffffffffffffffff168173ffffffffffffffffffffffffffffffffffffffff16036109a75760006040517f1e4fbdf700000000000000000000000000000000000000000000000000000000815260040161099e9190610c9e565b60405180910390fd5b6109b081610a3a565b50565b6109bb610afe565b73ffffffffffffffffffffffffffffffffffffffff166109d961036b565b73ffffffffffffffffffffffffffffffffffffffff1614610a38576109fc610afe565b6040517f118cdaa7000000000000000000000000000000000000000000000000000000008152600401610a2f9190610c9e565b60405180910390fd5b565b60008060009054906101000a900473ffffffffffffffffffffffffffffffffffffffff169050816000806101000a81548173ffffffffffffffffffffffffffffffffffffffff021916908373ffffffffffffffffffffffffffffffffffffffff1602179055508173ffffffffffffffffffffffffffffffffffffffff168173ffffffffffffffffffffffffffffffffffffffff167f8be0079c531659141344cd1fd0a4f28419497f9722a3daafe3b4186f6b6457e060405160405180910390a35050565b600033905090565b6000604051905090565b600080fd5b600080fd5b6000819050919050565b610b2d81610b1a565b8114610b3857600080fd5b50565b600081359050610b4a81610b24565b92915050565b600060208284031215610b6657610b65610b10565b5b6000610b7484828501610b3b565b91505092915050565b600073ffffffffffffffffffffffffffffffffffffffff82169050919050565b6000819050919050565b6000610bc2610bbd610bb884610b7d565b610b9d565b610b7d565b9050919050565b6000610bd482610ba7565b9050919050565b6000610be682610bc9565b9050919050565b610bf681610bdb565b82525050565b6000602082019050610c116000830184610bed565b92915050565b610c2081610b1a565b82525050565b6000602082019050610c3b6000830184610c17565b92915050565b6000610c4c82610bc9565b9050919050565b610c5c81610c41565b82525050565b6000602082019050610c776000830184610c53565b92915050565b6000610c8882610b7d565b9050919050565b610c9881610c7d565b82525050565b6000602082019050610cb36000830184610c8f565b92915050565b6000819050919050565b610ccc81610cb9565b82525050565b6000602082019050610ce76000830184610cc3565b92915050565b610cf681610c7d565b8114610d0157600080fd5b50565b600081359050610d1381610ced565b92915050565b60008060408385031215610d3057610d2f610b10565b5b6000610d3e85828601610d04565b9250506020610d4f85828601610d04565b9150509250929050565b60008115159050919050565b610d6e81610d59565b8114610d7957600080fd5b50565b600081359050610d8b81610d65565b92915050565b610d9a81610cb9565b8114610da557600080fd5b50565b600081359050610db781610d91565b92915050565b60008060008060808587031215610dd757610dd6610b10565b5b6000610de587828801610b3b565b9450506020610df687828801610b3b565b9350506040610e0787828801610d7c565b9250506060610e1887828801610da8565b91505092959194509250565b600060208284031215610e3a57610e39610b10565b5b6000610e4884828501610d04565b91505092915050565b600082825260208201905092915050565b7f496e73756666696369656e742062616c616e6365000000000000000000000000600082015250565b6000610e98601483610e51565b9150610ea382610e62565b602082019050919050565b60006020820190508181036000830152610ec781610e8b565b9050919050565b600069ffffffffffffffffffff82169050919050565b610eed81610ece565b8114610ef857600080fd5b50565b600081519050610f0a81610ee4565b92915050565b600081519050610f1f81610d91565b92915050565b600081519050610f3481610b24565b92915050565b600080600080600060a08688031215610f5657610f55610b10565b5b6000610f6488828901610efb565b9550506020610f7588828901610f10565b9450506040610f8688828901610f25565b9350506060610f9788828901610f25565b9250506080610fa888828901610efb565b9150509295509295909350565b6000604082019050610fca6000830185610c8f565b610fd76020830184610c8f565b9392505050565b600081519050610fed81610ced565b92915050565b600080fd5b600080fd5b6000601f19601f8301169050919050565b7f4e487b7100000000000000000000000000000000000000000000000000000000600052604160045260246000fd5b61104682610ffd565b810181811067ffffffffffffffff821117156110655761106461100e565b5b80604052505050565b6000611078610b06565b9050611084828261103d565b919050565b600067ffffffffffffffff8211156110a4576110a361100e565b5b6110ad82610ffd565b9050602081019050919050565b60005b838110156110d85780820151818401526020810190506110bd565b60008484015250505050565b60006110f76110f284611089565b61106e565b90508281526020810184848401111561111357611112610ff8565b5b61111e8482856110ba565b509392505050565b600082601f83011261113b5761113a610ff3565b5b815161114b8482602086016110e4565b91505092915050565b60006bffffffffffffffffffffffff82169050919050565b61117581611154565b811461118057600080fd5b50565b6000815190506111928161116c565b92915050565b6000815190506111a781610d65565b92915050565b600080600080608085870312156111c7576111c6610b10565b5b60006111d587828801610fde565b945050602085015167ffffffffffffffff8111156111f6576111f5610b15565b5b61120287828801611126565b935050604061121387828801611183565b925050606061122487828801611198565b91505092959194509250565b7f4e487b7100000000000000000000000000000000000000000000000000000000600052601160045260246000fd5b600061126a82610b1a565b915061127583610b1a565b925082820261128381610b1a565b9150828204841483151761129a57611299611230565b5b5092915050565b7f4e487b7100000000000000000000000000000000000000000000000000000000600052601260045260246000fd5b60006112db82610b1a565b91506112e683610b1a565b9250826112f6576112f56112a1565b5b828204905092915050565b61130a81610d59565b82525050565b60006060820190506113256000830186610cc3565b6113326020830185611301565b61133f6040830184610c17565b949350505050565b600060408201905061135c6000830185610c17565b6113696020830184610c17565b939250505056fea26469706673582212209c29026098b5fd93cadbfcac159ee10142c4ca0b630007c7a8f11f64c7aadba264736f6c63430008180033",
          "opcodes": "PUSH1 0x80 PUSH1 0x40 MSTORE PUSH1 0x5 PUSH1 0x3 SSTORE PUSH1 0x5 PUSH1 0x4 SSTORE CALLVALUE DUP1 ISZERO PUSH3 0x1B JUMPI PUSH1 0x0 DUP1 REVERT JUMPDEST POP PUSH1 0x40 MLOAD PUSH3 0x174C CODESIZE SUB DUP1 PUSH3 0x174C DUP4 CODECOPY DUP2 DUP2 ADD PUSH1 0x40 MSTORE DUP2 ADD SWAP1 PUSH3 0x41 SWAP2 SWAP1 PUSH3 0x321 JUMP JUMPDEST CALLER PUSH1 0x0 PUSH20 0xFFFFFFFFFFFFFFFFFFFFFFFFFFFFFFFFFFFFFFFF AND DUP2 PUSH20 0xFFFFFFFFFFFFFFFFFFFFFFFFFFFFFFFFFFFFFFFF AND SUB PUSH3 0xB7 JUMPI PUSH1 0x0 PUSH1 0x40 MLOAD PUSH32 0x1E4FBDF700000000000000000000000000000000000000000000000000000000 DUP2 MSTORE PUSH1 0x4 ADD PUSH3 0xAE SWAP2 SWAP1 PUSH3 0x379 JUMP JUMPDEST PUSH1 0x40 MLOAD DUP1 SWAP2 SUB SWAP1 REVERT JUMPDEST PUSH3 0xC8 DUP2 PUSH3 0x1F3 PUSH1 0x20 SHL PUSH1 0x20 SHR JUMP JUMPDEST POP PUSH1 0x0 PUSH20 0xFFFFFFFFFFFFFFFFFFFFFFFFFFFFFFFFFFFFFFFF AND DUP3 PUSH20 0xFFFFFFFFFFFFFFFFFFFFFFFFFFFFFFFFFFFFFFFF AND EQ DUP1 PUSH3 0x131 JUMPI POP PUSH1 0x0 PUSH20 0xFFFFFFFFFFFFFFFFFFFFFFFFFFFFFFFFFFFFFFFF AND DUP2 PUSH20 0xFFFFFFFFFFFFFFFFFFFFFFFFFFFFFFFFFFFFFFFF AND EQ JUMPDEST ISZERO PUSH3 0x169 JUMPI PUSH1 0x40 MLOAD PUSH32 0xD92E233D00000000000000000000000000000000000000000000000000000000 DUP2 MSTORE PUSH1 0x4 ADD PUSH1 0x40 MLOAD DUP1 SWAP2 SUB SWAP1 REVERT JUMPDEST DUP2 PUSH1 0x1 PUSH1 0x0 PUSH2 0x100 EXP DUP2 SLOAD DUP2 PUSH20 0xFFFFFFFFFFFFFFFFFFFFFFFFFFFFFFFFFFFFFFFF MUL NOT AND SWAP1 DUP4 PUSH20 0xFFFFFFFFFFFFFFFFFFFFFFFFFFFFFFFFFFFFFFFF AND MUL OR SWAP1 SSTORE POP DUP1 PUSH1 0x2 PUSH1 0x0 PUSH2 0x100 EXP DUP2 SLOAD DUP2 PUSH20 0xFFFFFFFFFFFFFFFFFFFFFFFFFFFFFFFFFFFFFFFF MUL NOT AND SWAP1 DUP4 PUSH20 0xFFFFFFFFFFFFFFFFFFFFFFFFFFFFFFFFFFFFFFFF AND MUL OR SWAP1 SSTORE POP POP POP PUSH3 0x396 JUMP JUMPDEST PUSH1 0x0 DUP1 PUSH1 0x0 SWAP1 SLOAD SWAP1 PUSH2 0x100 EXP SWAP1 DIV PUSH20 0xFFFFFFFFFFFFFFFFFFFFFFFFFFFFFFFFFFFFFFFF AND SWAP1 POP DUP2 PUSH1 0x0 DUP1 PUSH2 0x100 EXP DUP2 SLOAD DUP2 PUSH20 0xFFFFFFFFFFFFFFFFFFFFFFFFFFFFFFFFFFFFFFFF MUL NOT AND SWAP1 DUP4 PUSH20 0xFFFFFFFFFFFFFFFFFFFFFFFFFFFFFFFFFFFFFFFF AND MUL OR SWAP1 SSTORE POP DUP2 PUSH20 0xFFFFFFFFFFFFFFFFFFFFFFFFFFFFFFFFFFFFFFFF AND DUP2 PUSH20 0xFFFFFFFFFFFFFFFFFFFFFFFFFFFFFFFFFFFFFFFF AND PUSH32 0x8BE0079C531659141344CD1FD0A4F28419497F9722A3DAAFE3B4186F6B6457E0 PUSH1 0x40 MLOAD PUSH1 0x40 MLOAD DUP1 SWAP2 SUB SWAP1 LOG3 POP POP JUMP JUMPDEST PUSH1 0x0 DUP1 REVERT JUMPDEST PUSH1 0x0 PUSH20 0xFFFFFFFFFFFFFFFFFFFFFFFFFFFFFFFFFFFFFFFF DUP3 AND SWAP1 POP SWAP2 SWAP1 POP JUMP JUMPDEST PUSH1 0x0 PUSH3 0x2E9 DUP3 PUSH3 0x2BC JUMP JUMPDEST SWAP1 POP SWAP2 SWAP1 POP JUMP JUMPDEST PUSH3 0x2FB DUP2 PUSH3 0x2DC JUMP JUMPDEST DUP2 EQ PUSH3 0x307 JUMPI PUSH1 0x0 DUP1 REVERT JUMPDEST POP JUMP JUMPDEST PUSH1 0x0 DUP2 MLOAD SWAP1 POP PUSH3 0x31B DUP2 PUSH3 0x2F0 JUMP JUMPDEST SWAP3 SWAP2 POP POP JUMP JUMPDEST PUSH1 0x0 DUP1 PUSH1 0x40 DUP4 DUP6 SUB SLT ISZERO PUSH3 0x33B JUMPI PUSH3 0x33A PUSH3 0x2B7 JUMP JUMPDEST JUMPDEST PUSH1 0x0 PUSH3 0x34B DUP6 DUP3 DUP7 ADD PUSH3 0x30A JUMP JUMPDEST SWAP3 POP POP PUSH1 0x20 PUSH3 0x35E DUP6 DUP3 DUP7 ADD PUSH3 0x30A JUMP JUMPDEST SWAP2 POP POP SWAP3 POP SWAP3 SWAP1 POP JUMP JUMPDEST PUSH3 0x373 DUP2 PUSH3 0x2DC JUMP JUMPDEST DUP3 MSTORE POP POP JUMP JUMPDEST PUSH1 0x0 PUSH1 0x20 DUP3 ADD SWAP1 POP PUSH3 0x390 PUSH1 0x0 DUP4 ADD DUP5 PUSH3 0x368 JUMP JUMPDEST SWAP3 SWAP2 POP POP JUMP JUMPDEST PUSH2 0x13A6 DUP1 PUSH3 0x3A6 PUSH1 0x0 CODECOPY PUSH1 0x0 RETURN INVALID PUSH1 0x80 PUSH1 0x40 MSTORE PUSH1 0x4 CALLDATASIZE LT PUSH2 0xA0 JUMPI PUSH1 0x0 CALLDATALOAD PUSH1 0xE0 SHR DUP1 PUSH4 0x8DA5CB5B GT PUSH2 0x64 JUMPI DUP1 PUSH4 0x8DA5CB5B EQ PUSH2 0x16D JUMPI DUP1 PUSH4 0x8E15F473 EQ PUSH2 0x198 JUMPI DUP1 PUSH4 0x90107AFE EQ PUSH2 0x1C3 JUMPI DUP1 PUSH4 0xA81183B5 EQ PUSH2 0x1EC JUMPI DUP1 PUSH4 0xE7C01D86 EQ PUSH2 0x215 JUMPI DUP1 PUSH4 0xF2FDE38B EQ PUSH2 0x240 JUMPI PUSH2 0xA7 JUMP JUMPDEST DUP1 PUSH4 0xA861F2A EQ PUSH2 0xAC JUMPI DUP1 PUSH4 0x50A3238B EQ PUSH2 0xD5 JUMPI DUP1 PUSH4 0x52D472EB EQ PUSH2 0x100 JUMPI DUP1 PUSH4 0x715018A6 EQ PUSH2 0x12B JUMPI DUP1 PUSH4 0x741BEF1A EQ PUSH2 0x142 JUMPI PUSH2 0xA7 JUMP JUMPDEST CALLDATASIZE PUSH2 0xA7 JUMPI STOP JUMPDEST PUSH1 0x0 DUP1 REVERT JUMPDEST CALLVALUE DUP1 ISZERO PUSH2 0xB8 JUMPI PUSH1 0x0 DUP1 REVERT JUMPDEST POP PUSH2 0xD3 PUSH1 0x4 DUP1 CALLDATASIZE SUB DUP2 ADD SWAP1 PUSH2 0xCE SWAP2 SWAP1 PUSH2 0xB50 JUMP JUMPDEST PUSH2 0x269 JUMP JUMPDEST STOP JUMPDEST CALLVALUE DUP1 ISZERO PUSH2 0xE1 JUMPI PUSH1 0x0 DUP1 REVERT JUMPDEST POP PUSH2 0xEA PUSH2 0x305 JUMP JUMPDEST PUSH1 0x40 MLOAD PUSH2 0xF7 SWAP2 SWAP1 PUSH2 0xBFC JUMP JUMPDEST PUSH1 0x40 MLOAD DUP1 SWAP2 SUB SWAP1 RETURN JUMPDEST CALLVALUE DUP1 ISZERO PUSH2 0x10C JUMPI PUSH1 0x0 DUP1 REVERT JUMPDEST POP PUSH2 0x115 PUSH2 0x32B JUMP JUMPDEST PUSH1 0x40 MLOAD PUSH2 0x122 SWAP2 SWAP1 PUSH2 0xC26 JUMP JUMPDEST PUSH1 0x40 MLOAD DUP1 SWAP2 SUB SWAP1 RETURN JUMPDEST CALLVALUE DUP1 ISZERO PUSH2 0x137 JUMPI PUSH1 0x0 DUP1 REVERT JUMPDEST POP PUSH2 0x140 PUSH2 0x331 JUMP JUMPDEST STOP JUMPDEST CALLVALUE DUP1 ISZERO PUSH2 0x14E JUMPI PUSH1 0x0 DUP1 REVERT JUMPDEST POP PUSH2 0x157 PUSH2 0x345 JUMP JUMPDEST PUSH1 0x40 MLOAD PUSH2 0x164 SWAP2 SWAP1 PUSH2 0xC62 JUMP JUMPDEST PUSH1 0x40 MLOAD DUP1 SWAP2 SUB SWAP1 RETURN JUMPDEST CALLVALUE DUP1 ISZERO PUSH2 0x179 JUMPI PUSH1 0x0 DUP1 REVERT JUMPDEST POP PUSH2 0x182 PUSH2 0x36B JUMP JUMPDEST PUSH1 0x40 MLOAD PUSH2 0x18F SWAP2 SWAP1 PUSH2 0xC9E JUMP JUMPDEST PUSH1 0x40 MLOAD DUP1 SWAP2 SUB SWAP1 RETURN JUMPDEST CALLVALUE DUP1 ISZERO PUSH2 0x1A4 JUMPI PUSH1 0x0 DUP1 REVERT JUMPDEST POP PUSH2 0x1AD PUSH2 0x394 JUMP JUMPDEST PUSH1 0x40 MLOAD PUSH2 0x1BA SWAP2 SWAP1 PUSH2 0xCD2 JUMP JUMPDEST PUSH1 0x40 MLOAD DUP1 SWAP2 SUB SWAP1 RETURN JUMPDEST CALLVALUE DUP1 ISZERO PUSH2 0x1CF JUMPI PUSH1 0x0 DUP1 REVERT JUMPDEST POP PUSH2 0x1EA PUSH1 0x4 DUP1 CALLDATASIZE SUB DUP2 ADD SWAP1 PUSH2 0x1E5 SWAP2 SWAP1 PUSH2 0xD19 JUMP JUMPDEST PUSH2 0x435 JUMP JUMPDEST STOP JUMPDEST CALLVALUE DUP1 ISZERO PUSH2 0x1F8 JUMPI PUSH1 0x0 DUP1 REVERT JUMPDEST POP PUSH2 0x213 PUSH1 0x4 DUP1 CALLDATASIZE SUB DUP2 ADD SWAP1 PUSH2 0x20E SWAP2 SWAP1 PUSH2 0xDBD JUMP JUMPDEST PUSH2 0x59A JUMP JUMPDEST STOP JUMPDEST CALLVALUE DUP1 ISZERO PUSH2 0x221 JUMPI PUSH1 0x0 DUP1 REVERT JUMPDEST POP PUSH2 0x22A PUSH2 0x927 JUMP JUMPDEST PUSH1 0x40 MLOAD PUSH2 0x237 SWAP2 SWAP1 PUSH2 0xC26 JUMP JUMPDEST PUSH1 0x40 MLOAD DUP1 SWAP2 SUB SWAP1 RETURN JUMPDEST CALLVALUE DUP1 ISZERO PUSH2 0x24C JUMPI PUSH1 0x0 DUP1 REVERT JUMPDEST POP PUSH2 0x267 PUSH1 0x4 DUP1 CALLDATASIZE SUB DUP2 ADD SWAP1 PUSH2 0x262 SWAP2 SWAP1 PUSH2 0xE24 JUMP JUMPDEST PUSH2 0x92D JUMP JUMPDEST STOP JUMPDEST PUSH2 0x271 PUSH2 0x9B3 JUMP JUMPDEST DUP1 SELFBALANCE LT ISZERO PUSH2 0x2B4 JUMPI PUSH1 0x40 MLOAD PUSH32 0x8C379A000000000000000000000000000000000000000000000000000000000 DUP2 MSTORE PUSH1 0x4 ADD PUSH2 0x2AB SWAP1 PUSH2 0xEAE JUMP JUMPDEST PUSH1 0x40 MLOAD DUP1 SWAP2 SUB SWAP1 REVERT JUMPDEST PUSH2 0x2BC PUSH2 0x36B JUMP JUMPDEST PUSH20 0xFFFFFFFFFFFFFFFFFFFFFFFFFFFFFFFFFFFFFFFF AND PUSH2 0x8FC DUP3 SWAP1 DUP2 ISZERO MUL SWAP1 PUSH1 0x40 MLOAD PUSH1 0x0 PUSH1 0x40 MLOAD DUP1 DUP4 SUB DUP2 DUP6 DUP9 DUP9 CALL SWAP4 POP POP POP POP ISZERO DUP1 ISZERO PUSH2 0x301 JUMPI RETURNDATASIZE PUSH1 0x0 DUP1 RETURNDATACOPY RETURNDATASIZE PUSH1 0x0 REVERT JUMPDEST POP POP JUMP JUMPDEST PUSH1 0x1 PUSH1 0x0 SWAP1 SLOAD SWAP1 PUSH2 0x100 EXP SWAP1 DIV PUSH20 0xFFFFFFFFFFFFFFFFFFFFFFFFFFFFFFFFFFFFFFFF AND DUP2 JUMP JUMPDEST PUSH1 0x3 SLOAD DUP2 JUMP JUMPDEST PUSH2 0x339 PUSH2 0x9B3 JUMP JUMPDEST PUSH2 0x343 PUSH1 0x0 PUSH2 0xA3A JUMP JUMPDEST JUMP JUMPDEST PUSH1 0x2 PUSH1 0x0 SWAP1 SLOAD SWAP1 PUSH2 0x100 EXP SWAP1 DIV PUSH20 0xFFFFFFFFFFFFFFFFFFFFFFFFFFFFFFFFFFFFFFFF AND DUP2 JUMP JUMPDEST PUSH1 0x0 DUP1 PUSH1 0x0 SWAP1 SLOAD SWAP1 PUSH2 0x100 EXP SWAP1 DIV PUSH20 0xFFFFFFFFFFFFFFFFFFFFFFFFFFFFFFFFFFFFFFFF AND SWAP1 POP SWAP1 JUMP JUMPDEST PUSH1 0x0 DUP1 PUSH1 0x2 PUSH1 0x0 SWAP1 SLOAD SWAP1 PUSH2 0x100 EXP SWAP1 DIV PUSH20 0xFFFFFFFFFFFFFFFFFFFFFFFFFFFFFFFFFFFFFFFF AND PUSH20 0xFFFFFFFFFFFFFFFFFFFFFFFFFFFFFFFFFFFFFFFF AND PUSH4 0xFEAF968C PUSH1 0x40 MLOAD DUP2 PUSH4 0xFFFFFFFF AND PUSH1 0xE0 SHL DUP2 MSTORE PUSH1 0x4 ADD PUSH1 0xA0 PUSH1 0x40 MLOAD DUP1 DUP4 SUB DUP2 DUP7 GAS STATICCALL ISZERO DUP1 ISZERO PUSH2 0x404 JUMPI RETURNDATASIZE PUSH1 0x0 DUP1 RETURNDATACOPY RETURNDATASIZE PUSH1 0x0 REVERT JUMPDEST POP POP POP POP PUSH1 0x40 MLOAD RETURNDATASIZE PUSH1 0x1F NOT PUSH1 0x1F DUP3 ADD AND DUP3 ADD DUP1 PUSH1 0x40 MSTORE POP DUP2 ADD SWAP1 PUSH2 0x428 SWAP2 SWAP1 PUSH2 0xF3A JUMP JUMPDEST POP POP POP SWAP2 POP POP DUP1 SWAP2 POP POP SWAP1 JUMP JUMPDEST PUSH2 0x43D PUSH2 0x9B3 JUMP JUMPDEST PUSH1 0x0 PUSH20 0xFFFFFFFFFFFFFFFFFFFFFFFFFFFFFFFFFFFFFFFF AND DUP3 PUSH20 0xFFFFFFFFFFFFFFFFFFFFFFFFFFFFFFFFFFFFFFFF AND EQ DUP1 PUSH2 0x4A4 JUMPI POP PUSH1 0x0 PUSH20 0xFFFFFFFFFFFFFFFFFFFFFFFFFFFFFFFFFFFFFFFF AND DUP2 PUSH20 0xFFFFFFFFFFFFFFFFFFFFFFFFFFFFFFFFFFFFFFFF AND EQ JUMPDEST ISZERO PUSH2 0x4DB JUMPI PUSH1 0x40 MLOAD PUSH32 0xD92E233D00000000000000000000000000000000000000000000000000000000 DUP2 MSTORE PUSH1 0x4 ADD PUSH1 0x40 MLOAD DUP1 SWAP2 SUB SWAP1 REVERT JUMPDEST DUP2 PUSH1 0x1 PUSH1 0x0 PUSH2 0x100 EXP DUP2 SLOAD DUP2 PUSH20 0xFFFFFFFFFFFFFFFFFFFFFFFFFFFFFFFFFFFFFFFF MUL NOT AND SWAP1 DUP4 PUSH20 0xFFFFFFFFFFFFFFFFFFFFFFFFFFFFFFFFFFFFFFFF AND MUL OR SWAP1 SSTORE POP DUP1 PUSH1 0x2 PUSH1 0x0 PUSH2 0x100 EXP DUP2 SLOAD DUP2 PUSH20 0xFFFFFFFFFFFFFFFFFFFFFFFFFFFFFFFFFFFFFFFF MUL NOT AND SWAP1 DUP4 PUSH20 0xFFFFFFFFFFFFFFFFFFFFFFFFFFFFFFFFFFFFFFFF AND MUL OR SWAP1 SSTORE POP PUSH32 0xC651C70F44278E4B6B346230D2FCC09308AD801D6DC8B9C055F45581B3609075 DUP3 DUP3 PUSH1 0x40 MLOAD PUSH2 0x58E SWAP3 SWAP2 SWAP1 PUSH2 0xFB5 JUMP JUMPDEST PUSH1 0x40 MLOAD DUP1 SWAP2 SUB SWAP1 LOG1 POP POP JUMP JUMPDEST PUSH2 0x5A2 PUSH2 0x9B3 JUMP JUMPDEST PUSH1 0x0 DUP1 PUSH1 0x1 PUSH1 0x0 SWAP1 SLOAD SWAP1 PUSH2 0x100 EXP SWAP1 DIV PUSH20 0xFFFFFFFFFFFFFFFFFFFFFFFFFFFFFFFFFFFFFFFF AND PUSH20 0xFFFFFFFFFFFFFFFFFFFFFFFFFFFFFFFFFFFFFFFF AND PUSH4 0xF221DDB9 DUP8 PUSH1 0x40 MLOAD DUP3 PUSH4 0xFFFFFFFF AND PUSH1 0xE0 SHL DUP2 MSTORE PUSH1 0x4 ADD PUSH2 0x600 SWAP2 SWAP1 PUSH2 0xC26 JUMP JUMPDEST PUSH1 0x0 PUSH1 0x40 MLOAD DUP1 DUP4 SUB DUP2 DUP7 GAS STATICCALL ISZERO DUP1 ISZERO PUSH2 0x61D JUMPI RETURNDATASIZE PUSH1 0x0 DUP1 RETURNDATACOPY RETURNDATASIZE PUSH1 0x0 REVERT JUMPDEST POP POP POP POP PUSH1 0x40 MLOAD RETURNDATASIZE PUSH1 0x0 DUP3 RETURNDATACOPY RETURNDATASIZE PUSH1 0x1F NOT PUSH1 0x1F DUP3 ADD AND DUP3 ADD DUP1 PUSH1 0x40 MSTORE POP DUP2 ADD SWAP1 PUSH2 0x646 SWAP2 SWAP1 PUSH2 0x11AD JUMP JUMPDEST SWAP4 POP SWAP4 POP POP POP DUP1 ISZERO DUP1 PUSH2 0x666 JUMPI POP DUP5 DUP3 PUSH12 0xFFFFFFFFFFFFFFFFFFFFFFFF AND LT JUMPDEST DUP1 PUSH2 0x671 JUMPI POP PUSH1 0x0 DUP6 EQ JUMPDEST ISZERO PUSH2 0x6A8 JUMPI PUSH1 0x40 MLOAD PUSH32 0xC7FCC46100000000000000000000000000000000000000000000000000000000 DUP2 MSTORE PUSH1 0x4 ADD PUSH1 0x40 MLOAD DUP1 SWAP2 SUB SWAP1 REVERT JUMPDEST PUSH1 0x0 PUSH2 0x6B2 PUSH2 0x394 JUMP JUMPDEST SWAP1 POP PUSH1 0x0 DUP2 SGT PUSH2 0x6ED JUMPI PUSH1 0x40 MLOAD PUSH31 0xBFC92100000000000000000000000000000000000000000000000000000000 DUP2 MSTORE PUSH1 0x4 ADD PUSH1 0x40 MLOAD DUP1 SWAP2 SUB SWAP1 REVERT JUMPDEST PUSH1 0x0 DUP6 PUSH2 0x6FC JUMPI DUP5 DUP3 SLT PUSH2 0x700 JUMP JUMPDEST DUP5 DUP3 SGT JUMPDEST SWAP1 POP DUP1 ISZERO PUSH2 0x831 JUMPI PUSH1 0x0 PUSH1 0x64 PUSH1 0x3 SLOAD DUP10 PUSH2 0x71A SWAP2 SWAP1 PUSH2 0x125F JUMP JUMPDEST PUSH2 0x724 SWAP2 SWAP1 PUSH2 0x12D0 JUMP JUMPDEST SWAP1 POP DUP1 SELFBALANCE LT ISZERO PUSH2 0x760 JUMPI PUSH1 0x40 MLOAD PUSH32 0x5BC29C9A00000000000000000000000000000000000000000000000000000000 DUP2 MSTORE PUSH1 0x4 ADD PUSH1 0x40 MLOAD DUP1 SWAP2 SUB SWAP1 REVERT JUMPDEST PUSH1 0x1 PUSH1 0x0 SWAP1 SLOAD SWAP1 PUSH2 0x100 EXP SWAP1 DIV PUSH20 0xFFFFFFFFFFFFFFFFFFFFFFFFFFFFFFFFFFFFFFFF AND PUSH20 0xFFFFFFFFFFFFFFFFFFFFFFFFFFFFFFFFFFFFFFFF AND PUSH4 0x9D992EEB DUP3 DUP12 PUSH1 0x40 MLOAD DUP4 PUSH4 0xFFFFFFFF AND PUSH1 0xE0 SHL DUP2 MSTORE PUSH1 0x4 ADD PUSH2 0x7BC SWAP2 SWAP1 PUSH2 0xC26 JUMP JUMPDEST PUSH1 0x0 PUSH1 0x40 MLOAD DUP1 DUP4 SUB DUP2 DUP6 DUP9 DUP1 EXTCODESIZE ISZERO DUP1 ISZERO PUSH2 0x7D5 JUMPI PUSH1 0x0 DUP1 REVERT JUMPDEST POP GAS CALL ISZERO DUP1 ISZERO PUSH2 0x7E9 JUMPI RETURNDATASIZE PUSH1 0x0 DUP1 RETURNDATACOPY RETURNDATASIZE PUSH1 0x0 REVERT JUMPDEST POP POP POP POP POP DUP9 PUSH32 0xC0EF5AD693C2A94E3A1480ECCF40FF4F8D061571FDE27BCDFA129E63051296F6 DUP5 PUSH1 0x1 DUP5 PUSH1 0x40 MLOAD PUSH2 0x823 SWAP4 SWAP3 SWAP2 SWAP1 PUSH2 0x1310 JUMP JUMPDEST PUSH1 0x40 MLOAD DUP1 SWAP2 SUB SWAP1 LOG2 POP PUSH2 0x91D JUMP JUMPDEST PUSH1 0x0 PUSH1 0x64 PUSH1 0x4 SLOAD DUP10 PUSH2 0x843 SWAP2 SWAP1 PUSH2 0x125F JUMP JUMPDEST PUSH2 0x84D SWAP2 SWAP1 PUSH2 0x12D0 JUMP JUMPDEST SWAP1 POP PUSH1 0x1 PUSH1 0x0 SWAP1 SLOAD SWAP1 PUSH2 0x100 EXP SWAP1 DIV PUSH20 0xFFFFFFFFFFFFFFFFFFFFFFFFFFFFFFFFFFFFFFFF AND PUSH20 0xFFFFFFFFFFFFFFFFFFFFFFFFFFFFFFFFFFFFFFFF AND PUSH4 0x6C667AB1 DUP11 DUP4 PUSH1 0x40 MLOAD DUP4 PUSH4 0xFFFFFFFF AND PUSH1 0xE0 SHL DUP2 MSTORE PUSH1 0x4 ADD PUSH2 0x8AC SWAP3 SWAP2 SWAP1 PUSH2 0x1347 JUMP JUMPDEST PUSH1 0x0 PUSH1 0x40 MLOAD DUP1 DUP4 SUB DUP2 PUSH1 0x0 DUP8 DUP1 EXTCODESIZE ISZERO DUP1 ISZERO PUSH2 0x8C6 JUMPI PUSH1 0x0 DUP1 REVERT JUMPDEST POP GAS CALL ISZERO DUP1 ISZERO PUSH2 0x8DA JUMPI RETURNDATASIZE PUSH1 0x0 DUP1 RETURNDATACOPY RETURNDATASIZE PUSH1 0x0 REVERT JUMPDEST POP POP POP POP DUP9 PUSH32 0xC0EF5AD693C2A94E3A1480ECCF40FF4F8D061571FDE27BCDFA129E63051296F6 DUP5 PUSH1 0x0 DUP5 PUSH1 0x40 MLOAD PUSH2 0x913 SWAP4 SWAP3 SWAP2 SWAP1 PUSH2 0x1310 JUMP JUMPDEST PUSH1 0x40 MLOAD DUP1 SWAP2 SUB SWAP1 LOG2 POP JUMPDEST POP POP POP POP POP POP POP POP JUMP JUMPDEST PUSH1 0x4 SLOAD DUP2 JUMP JUMPDEST PUSH2 0x935 PUSH2 0x9B3 JUMP JUMPDEST PUSH1 0x0 PUSH20 0xFFFFFFFFFFFFFFFFFFFFFFFFFFFFFFFFFFFFFFFF AND DUP2 PUSH20 0xFFFFFFFFFFFFFFFFFFFFFFFFFFFFFFFFFFFFFFFF AND SUB PUSH2 0x9A7 JUMPI PUSH1 0x0 PUSH1 0x40 MLOAD PUSH32 0x1E4FBDF700000000000000000000000000000000000000000000000000000000 DUP2 MSTORE PUSH1 0x4 ADD PUSH2 0x99E SWAP2 SWAP1 PUSH2 0xC9E JUMP JUMPDEST PUSH1 0x40 MLOAD DUP1 SWAP2 SUB SWAP1 REVERT JUMPDEST PUSH2 0x9B0 DUP2 PUSH2 0xA3A JUMP JUMPDEST POP JUMP JUMPDEST PUSH2 0x9BB PUSH2 0xAFE JUMP JUMPDEST PUSH20 0xFFFFFFFFFFFFFFFFFFFFFFFFFFFFFFFFFFFFFFFF AND PUSH2 0x9D9 PUSH2 0x36B JUMP JUMPDEST PUSH20 0xFFFFFFFFFFFFFFFFFFFFFFFFFFFFFFFFFFFFFFFF AND EQ PUSH2 0xA38 JUMPI PUSH2 0x9FC PUSH2 0xAFE JUMP JUMPDEST PUSH1 0x40 MLOAD PUSH32 0x118CDAA700000000000000000000000000000000000000000000000000000000 DUP2 MSTORE PUSH1 0x4 ADD PUSH2 0xA2F SWAP2 SWAP1 PUSH2 0xC9E JUMP JUMPDEST PUSH1 0x40 MLOAD DUP1 SWAP2 SUB SWAP1 REVERT JUMPDEST JUMP JUMPDEST PUSH1 0x0 DUP1 PUSH1 0x0 SWAP1 SLOAD SWAP1 PUSH2 0x100 EXP SWAP1 DIV PUSH20 0xFFFFFFFFFFFFFFFFFFFFFFFFFFFFFFFFFFFFFFFF AND SWAP1 POP DUP2 PUSH1 0x0 DUP1 PUSH2 0x100 EXP DUP2 SLOAD DUP2 PUSH20 0xFFFFFFFFFFFFFFFFFFFFFFFFFFFFFFFFFFFFFFFF MUL NOT AND SWAP1 DUP4 PUSH20 0xFFFFFFFFFFFFFFFFFFFFFFFFFFFFFFFFFFFFFFFF AND MUL OR SWAP1 SSTORE POP DUP2 PUSH20 0xFFFFFFFFFFFFFFFFFFFFFFFFFFFFFFFFFFFFFFFF AND DUP2 PUSH20 0xFFFFFFFFFFFFFFFFFFFFFFFFFFFFFFFFFFFFFFFF AND PUSH32 0x8BE0079C531659141344CD1FD0A4F28419497F9722A3DAAFE3B4186F6B6457E0 PUSH1 0x40 MLOAD PUSH1 0x40 MLOAD DUP1 SWAP2 SUB SWAP1 LOG3 POP POP JUMP JUMPDEST PUSH1 0x0 CALLER SWAP1 POP SWAP1 JUMP JUMPDEST PUSH1 0x0 PUSH1 0x40 MLOAD SWAP1 POP SWAP1 JUMP JUMPDEST PUSH1 0x0 DUP1 REVERT JUMPDEST PUSH1 0x0 DUP1 REVERT JUMPDEST PUSH1 0x0 DUP2 SWAP1 POP SWAP2 SWAP1 POP JUMP JUMPDEST PUSH2 0xB2D DUP2 PUSH2 0xB1A JUMP JUMPDEST DUP2 EQ PUSH2 0xB38 JUMPI PUSH1 0x0 DUP1 REVERT JUMPDEST POP JUMP JUMPDEST PUSH1 0x0 DUP2 CALLDATALOAD SWAP1 POP PUSH2 0xB4A DUP2 PUSH2 0xB24 JUMP JUMPDEST SWAP3 SWAP2 POP POP JUMP JUMPDEST PUSH1 0x0 PUSH1 0x20 DUP3 DUP5 SUB SLT ISZERO PUSH2 0xB66 JUMPI PUSH2 0xB65 PUSH2 0xB10 JUMP JUMPDEST JUMPDEST PUSH1 0x0 PUSH2 0xB74 DUP5 DUP3 DUP6 ADD PUSH2 0xB3B JUMP JUMPDEST SWAP2 POP POP SWAP3 SWAP2 POP POP JUMP JUMPDEST PUSH1 0x0 PUSH20 0xFFFFFFFFFFFFFFFFFFFFFFFFFFFFFFFFFFFFFFFF DUP3 AND SWAP1 POP SWAP2 SWAP1 POP JUMP JUMPDEST PUSH1 0x0 DUP2 SWAP1 POP SWAP2 SWAP1 POP JUMP JUMPDEST PUSH1 0x0 PUSH2 0xBC2 PUSH2 0xBBD PUSH2 0xBB8 DUP5 PUSH2 0xB7D JUMP JUMPDEST PUSH2 0xB9D JUMP JUMPDEST PUSH2 0xB7D JUMP JUMPDEST SWAP1 POP SWAP2 SWAP1 POP JUMP JUMPDEST PUSH1 0x0 PUSH2 0xBD4 DUP3 PUSH2 0xBA7 JUMP JUMPDEST SWAP1 POP SWAP2 SWAP1 POP JUMP JUMPDEST PUSH1 0x0 PUSH2 0xBE6 DUP3 PUSH2 0xBC9 JUMP JUMPDEST SWAP1 POP SWAP2 SWAP1 POP JUMP JUMPDEST PUSH2 0xBF6 DUP2 PUSH2 0xBDB JUMP JUMPDEST DUP3 MSTORE POP POP JUMP JUMPDEST PUSH1 0x0 PUSH1 0x20 DUP3 ADD SWAP1 POP PUSH2 0xC11 PUSH1 0x0 DUP4 ADD DUP5 PUSH2 0xBED JUMP JUMPDEST SWAP3 SWAP2 POP POP JUMP JUMPDEST PUSH2 0xC20 DUP2 PUSH2 0xB1A JUMP JUMPDEST DUP3 MSTORE POP POP JUMP JUMPDEST PUSH1 0x0 PUSH1 0x20 DUP3 ADD SWAP1 POP PUSH2 0xC3B PUSH1 0x0 DUP4 ADD DUP5 PUSH2 0xC17 JUMP JUMPDEST SWAP3 SWAP2 POP POP JUMP JUMPDEST PUSH1 0x0 PUSH2 0xC4C DUP3 PUSH2 0xBC9 JUMP JUMPDEST SWAP1 POP SWAP2 SWAP1 POP JUMP JUMPDEST PUSH2 0xC5C DUP2 PUSH2 0xC41 JUMP JUMPDEST DUP3 MSTORE POP POP JUMP JUMPDEST PUSH1 0x0 PUSH1 0x20 DUP3 ADD SWAP1 POP PUSH2 0xC77 PUSH1 0x0 DUP4 ADD DUP5 PUSH2 0xC53 JUMP JUMPDEST SWAP3 SWAP2 POP POP JUMP JUMPDEST PUSH1 0x0 PUSH2 0xC88 DUP3 PUSH2 0xB7D JUMP JUMPDEST SWAP1 POP SWAP2 SWAP1 POP JUMP JUMPDEST PUSH2 0xC98 DUP2 PUSH2 0xC7D JUMP JUMPDEST DUP3 MSTORE POP POP JUMP JUMPDEST PUSH1 0x0 PUSH1 0x20 DUP3 ADD SWAP1 POP PUSH2 0xCB3 PUSH1 0x0 DUP4 ADD DUP5 PUSH2 0xC8F JUMP JUMPDEST SWAP3 SWAP2 POP POP JUMP JUMPDEST PUSH1 0x0 DUP2 SWAP1 POP SWAP2 SWAP1 POP JUMP JUMPDEST PUSH2 0xCCC DUP2 PUSH2 0xCB9 JUMP JUMPDEST DUP3 MSTORE POP POP JUMP JUMPDEST PUSH1 0x0 PUSH1 0x20 DUP3 ADD SWAP1 POP PUSH2 0xCE7 PUSH1 0x0 DUP4 ADD DUP5 PUSH2 0xCC3 JUMP JUMPDEST SWAP3 SWAP2 POP POP JUMP JUMPDEST PUSH2 0xCF6 DUP2 PUSH2 0xC7D JUMP JUMPDEST DUP2 EQ PUSH2 0xD01 JUMPI PUSH1 0x0 DUP1 REVERT JUMPDEST POP JUMP JUMPDEST PUSH1 0x0 DUP2 CALLDATALOAD SWAP1 POP PUSH2 0xD13 DUP2 PUSH2 0xCED JUMP JUMPDEST SWAP3 SWAP2 POP POP JUMP JUMPDEST PUSH1 0x0 DUP1 PUSH1 0x40 DUP4 DUP6 SUB SLT ISZERO PUSH2 0xD30 JUMPI PUSH2 0xD2F PUSH2 0xB10 JUMP JUMPDEST JUMPDEST PUSH1 0x0 PUSH2 0xD3E DUP6 DUP3 DUP7 ADD PUSH2 0xD04 JUMP JUMPDEST SWAP3 POP POP PUSH1 0x20 PUSH2 0xD4F DUP6 DUP3 DUP7 ADD PUSH2 0xD04 JUMP JUMPDEST SWAP2 POP POP SWAP3 POP SWAP3 SWAP1 POP JUMP JUMPDEST PUSH1 0x0 DUP2 ISZERO ISZERO SWAP1 POP SWAP2 SWAP1 POP JUMP JUMPDEST PUSH2 0xD6E DUP2 PUSH2 0xD59 JUMP JUMPDEST DUP2 EQ PUSH2 0xD79 JUMPI PUSH1 0x0 DUP1 REVERT JUMPDEST POP JUMP JUMPDEST PUSH1 0x0 DUP2 CALLDATALOAD SWAP1 POP PUSH2 0xD8B DUP2 PUSH2 0xD65 JUMP JUMPDEST SWAP3 SWAP2 POP POP JUMP JUMPDEST PUSH2 0xD9A DUP2 PUSH2 0xCB9 JUMP JUMPDEST DUP2 EQ PUSH2 0xDA5 JUMPI PUSH1 0x0 DUP1 REVERT JUMPDEST POP JUMP JUMPDEST PUSH1 0x0 DUP2 CALLDATALOAD SWAP1 POP PUSH2 0xDB7 DUP2 PUSH2 0xD91 JUMP JUMPDEST SWAP3 SWAP2 POP POP JUMP JUMPDEST PUSH1 0x0 DUP1 PUSH1 0x0 DUP1 PUSH1 0x80 DUP6 DUP8 SUB SLT ISZERO PUSH2 0xDD7 JUMPI PUSH2 0xDD6 PUSH2 0xB10 JUMP JUMPDEST JUMPDEST PUSH1 0x0 PUSH2 0xDE5 DUP8 DUP3 DUP9 ADD PUSH2 0xB3B JUMP JUMPDEST SWAP5 POP POP PUSH1 0x20 PUSH2 0xDF6 DUP8 DUP3 DUP9 ADD PUSH2 0xB3B JUMP JUMPDEST SWAP4 POP POP PUSH1 0x40 PUSH2 0xE07 DUP8 DUP3 DUP9 ADD PUSH2 0xD7C JUMP JUMPDEST SWAP3 POP POP PUSH1 0x60 PUSH2 0xE18 DUP8 DUP3 DUP9 ADD PUSH2 0xDA8 JUMP JUMPDEST SWAP2 POP POP SWAP3 SWAP6 SWAP2 SWAP5 POP SWAP3 POP JUMP JUMPDEST PUSH1 0x0 PUSH1 0x20 DUP3 DUP5 SUB SLT ISZERO PUSH2 0xE3A JUMPI PUSH2 0xE39 PUSH2 0xB10 JUMP JUMPDEST JUMPDEST PUSH1 0x0 PUSH2 0xE48 DUP5 DUP3 DUP6 ADD PUSH2 0xD04 JUMP JUMPDEST SWAP2 POP POP SWAP3 SWAP2 POP POP JUMP JUMPDEST PUSH1 0x0 DUP3 DUP3 MSTORE PUSH1 0x20 DUP3 ADD SWAP1 POP SWAP3 SWAP2 POP POP JUMP JUMPDEST PUSH32 0x496E73756666696369656E742062616C616E6365000000000000000000000000 PUSH1 0x0 DUP3 ADD MSTORE POP JUMP JUMPDEST PUSH1 0x0 PUSH2 0xE98 PUSH1 0x14 DUP4 PUSH2 0xE51 JUMP JUMPDEST SWAP2 POP PUSH2 0xEA3 DUP3 PUSH2 0xE62 JUMP JUMPDEST PUSH1 0x20 DUP3 ADD SWAP1 POP SWAP2 SWAP1 POP JUMP JUMPDEST PUSH1 0x0 PUSH1 0x20 DUP3 ADD SWAP1 POP DUP2 DUP2 SUB PUSH1 0x0 DUP4 ADD MSTORE PUSH2 0xEC7 DUP2 PUSH2 0xE8B JUMP JUMPDEST SWAP1 POP SWAP2 SWAP1 POP JUMP JUMPDEST PUSH1 0x0 PUSH10 0xFFFFFFFFFFFFFFFFFFFF DUP3 AND SWAP1 POP SWAP2 SWAP1 POP JUMP JUMPDEST PUSH2 0xEED DUP2 PUSH2 0xECE JUMP JUMPDEST DUP2 EQ PUSH2 0xEF8 JUMPI PUSH1 0x0 DUP1 REVERT JUMPDEST POP JUMP JUMPDEST PUSH1 0x0 DUP2 MLOAD SWAP1 POP PUSH2 0xF0A DUP2 PUSH2 0xEE4 JUMP JUMPDEST SWAP3 SWAP2 POP POP JUMP JUMPDEST PUSH1 0x0 DUP2 MLOAD SWAP1 POP PUSH2 0xF1F DUP2 PUSH2 0xD91 JUMP JUMPDEST SWAP3 SWAP2 POP POP JUMP JUMPDEST PUSH1 0x0 DUP2 MLOAD SWAP1 POP PUSH2 0xF34 DUP2 PUSH2 0xB24 JUMP JUMPDEST SWAP3 SWAP2 POP POP JUMP JUMPDEST PUSH1 0x0 DUP1 PUSH1 0x0 DUP1 PUSH1 0x0 PUSH1 0xA0 DUP7 DUP9 SUB SLT ISZERO PUSH2 0xF56 JUMPI PUSH2 0xF55 PUSH2 0xB10 JUMP JUMPDEST JUMPDEST PUSH1 0x0 PUSH2 0xF64 DUP9 DUP3 DUP10 ADD PUSH2 0xEFB JUMP JUMPDEST SWAP6 POP POP PUSH1 0x20 PUSH2 0xF75 DUP9 DUP3 DUP10 ADD PUSH2 0xF10 JUMP JUMPDEST SWAP5 POP POP PUSH1 0x40 PUSH2 0xF86 DUP9 DUP3 DUP10 ADD PUSH2 0xF25 JUMP JUMPDEST SWAP4 POP POP PUSH1 0x60 PUSH2 0xF97 DUP9 DUP3 DUP10 ADD PUSH2 0xF25 JUMP JUMPDEST SWAP3 POP POP PUSH1 0x80 PUSH2 0xFA8 DUP9 DUP3 DUP10 ADD PUSH2 0xEFB JUMP JUMPDEST SWAP2 POP POP SWAP3 SWAP6 POP SWAP3 SWAP6 SWAP1 SWAP4 POP JUMP JUMPDEST PUSH1 0x0 PUSH1 0x40 DUP3 ADD SWAP1 POP PUSH2 0xFCA PUSH1 0x0 DUP4 ADD DUP6 PUSH2 0xC8F JUMP JUMPDEST PUSH2 0xFD7 PUSH1 0x20 DUP4 ADD DUP5 PUSH2 0xC8F JUMP JUMPDEST SWAP4 SWAP3 POP POP POP JUMP JUMPDEST PUSH1 0x0 DUP2 MLOAD SWAP1 POP PUSH2 0xFED DUP2 PUSH2 0xCED JUMP JUMPDEST SWAP3 SWAP2 POP POP JUMP JUMPDEST PUSH1 0x0 DUP1 REVERT JUMPDEST PUSH1 0x0 DUP1 REVERT JUMPDEST PUSH1 0x0 PUSH1 0x1F NOT PUSH1 0x1F DUP4 ADD AND SWAP1 POP SWAP2 SWAP1 POP JUMP JUMPDEST PUSH32 0x4E487B7100000000000000000000000000000000000000000000000000000000 PUSH1 0x0 MSTORE PUSH1 0x41 PUSH1 0x4 MSTORE PUSH1 0x24 PUSH1 0x0 REVERT JUMPDEST PUSH2 0x1046 DUP3 PUSH2 0xFFD JUMP JUMPDEST DUP2 ADD DUP2 DUP2 LT PUSH8 0xFFFFFFFFFFFFFFFF DUP3 GT OR ISZERO PUSH2 0x1065 JUMPI PUSH2 0x1064 PUSH2 0x100E JUMP JUMPDEST JUMPDEST DUP1 PUSH1 0x40 MSTORE POP POP POP JUMP JUMPDEST PUSH1 0x0 PUSH2 0x1078 PUSH2 0xB06 JUMP JUMPDEST SWAP1 POP PUSH2 0x1084 DUP3 DUP3 PUSH2 0x103D JUMP JUMPDEST SWAP2 SWAP1 POP JUMP JUMPDEST PUSH1 0x0 PUSH8 0xFFFFFFFFFFFFFFFF DUP3 GT ISZERO PUSH2 0x10A4 JUMPI PUSH2 0x10A3 PUSH2 0x100E JUMP JUMPDEST JUMPDEST PUSH2 0x10AD DUP3 PUSH2 0xFFD JUMP JUMPDEST SWAP1 POP PUSH1 0x20 DUP2 ADD SWAP1 POP SWAP2 SWAP1 POP JUMP JUMPDEST PUSH1 0x0 JUMPDEST DUP4 DUP2 LT ISZERO PUSH2 0x10D8 JUMPI DUP1 DUP3 ADD MLOAD DUP2 DUP5 ADD MSTORE PUSH1 0x20 DUP2 ADD SWAP1 POP PUSH2 0x10BD JUMP JUMPDEST PUSH1 0x0 DUP5 DUP5 ADD MSTORE POP POP POP POP JUMP JUMPDEST PUSH1 0x0 PUSH2 0x10F7 PUSH2 0x10F2 DUP5 PUSH2 0x1089 JUMP JUMPDEST PUSH2 0x106E JUMP JUMPDEST SWAP1 POP DUP3 DUP2 MSTORE PUSH1 0x20 DUP2 ADD DUP5 DUP5 DUP5 ADD GT ISZERO PUSH2 0x1113 JUMPI PUSH2 0x1112 PUSH2 0xFF8 JUMP JUMPDEST JUMPDEST PUSH2 0x111E DUP5 DUP3 DUP6 PUSH2 0x10BA JUMP JUMPDEST POP SWAP4 SWAP3 POP POP POP JUMP JUMPDEST PUSH1 0x0 DUP3 PUSH1 0x1F DUP4 ADD SLT PUSH2 0x113B JUMPI PUSH2 0x113A PUSH2 0xFF3 JUMP JUMPDEST JUMPDEST DUP2 MLOAD PUSH2 0x114B DUP5 DUP3 PUSH1 0x20 DUP7 ADD PUSH2 0x10E4 JUMP JUMPDEST SWAP2 POP POP SWAP3 SWAP2 POP POP JUMP JUMPDEST PUSH1 0x0 PUSH12 0xFFFFFFFFFFFFFFFFFFFFFFFF DUP3 AND SWAP1 POP SWAP2 SWAP1 POP JUMP JUMPDEST PUSH2 0x1175 DUP2 PUSH2 0x1154 JUMP JUMPDEST DUP2 EQ PUSH2 0x1180 JUMPI PUSH1 0x0 DUP1 REVERT JUMPDEST POP JUMP JUMPDEST PUSH1 0x0 DUP2 MLOAD SWAP1 POP PUSH2 0x1192 DUP2 PUSH2 0x116C JUMP JUMPDEST SWAP3 SWAP2 POP POP JUMP JUMPDEST PUSH1 0x0 DUP2 MLOAD SWAP1 POP PUSH2 0x11A7 DUP2 PUSH2 0xD65 JUMP JUMPDEST SWAP3 SWAP2 POP POP JUMP JUMPDEST PUSH1 0x0 DUP1 PUSH1 0x0 DUP1 PUSH1 0x80 DUP6 DUP8 SUB SLT ISZERO PUSH2 0x11C7 JUMPI PUSH2 0x11C6 PUSH2 0xB10 JUMP JUMPDEST JUMPDEST PUSH1 0x0 PUSH2 0x11D5 DUP8 DUP3 DUP9 ADD PUSH2 0xFDE JUMP JUMPDEST SWAP5 POP POP PUSH1 0x20 DUP6 ADD MLOAD PUSH8 0xFFFFFFFFFFFFFFFF DUP2 GT ISZERO PUSH2 0x11F6 JUMPI PUSH2 0x11F5 PUSH2 0xB15 JUMP JUMPDEST JUMPDEST PUSH2 0x1202 DUP8 DUP3 DUP9 ADD PUSH2 0x1126 JUMP JUMPDEST SWAP4 POP POP PUSH1 0x40 PUSH2 0x1213 DUP8 DUP3 DUP9 ADD PUSH2 0x1183 JUMP JUMPDEST SWAP3 POP POP PUSH1 0x60 PUSH2 0x1224 DUP8 DUP3 DUP9 ADD PUSH2 0x1198 JUMP JUMPDEST SWAP2 POP POP SWAP3 SWAP6 SWAP2 SWAP5 POP SWAP3 POP JUMP JUMPDEST PUSH32 0x4E487B7100000000000000000000000000000000000000000000000000000000 PUSH1 0x0 MSTORE PUSH1 0x11 PUSH1 0x4 MSTORE PUSH1 0x24 PUSH1 0x0 REVERT JUMPDEST PUSH1 0x0 PUSH2 0x126A DUP3 PUSH2 0xB1A JUMP JUMPDEST SWAP2 POP PUSH2 0x1275 DUP4 PUSH2 0xB1A JUMP JUMPDEST SWAP3 POP DUP3 DUP3 MUL PUSH2 0x1283 DUP2 PUSH2 0xB1A JUMP JUMPDEST SWAP2 POP DUP3 DUP3 DIV DUP5 EQ DUP4 ISZERO OR PUSH2 0x129A JUMPI PUSH2 0x1299 PUSH2 0x1230 JUMP JUMPDEST JUMPDEST POP SWAP3 SWAP2 POP POP JUMP JUMPDEST PUSH32 0x4E487B7100000000000000000000000000000000000000000000000000000000 PUSH1 0x0 MSTORE PUSH1 0x12 PUSH1 0x4 MSTORE PUSH1 0x24 PUSH1 0x0 REVERT JUMPDEST PUSH1 0x0 PUSH2 0x12DB DUP3 PUSH2 0xB1A JUMP JUMPDEST SWAP2 POP PUSH2 0x12E6 DUP4 PUSH2 0xB1A JUMP JUMPDEST SWAP3 POP DUP3 PUSH2 0x12F6 JUMPI PUSH2 0x12F5 PUSH2 0x12A1 JUMP JUMPDEST JUMPDEST DUP3 DUP3 DIV SWAP1 POP SWAP3 SWAP2 POP POP JUMP JUMPDEST PUSH2 0x130A DUP2 PUSH2 0xD59 JUMP JUMPDEST DUP3 MSTORE POP POP JUMP JUMPDEST PUSH1 0x0 PUSH1 0x60 DUP3 ADD SWAP1 POP PUSH2 0x1325 PUSH1 0x0 DUP4 ADD DUP7 PUSH2 0xCC3 JUMP JUMPDEST PUSH2 0x1332 PUSH1 0x20 DUP4 ADD DUP6 PUSH2 0x1301 JUMP JUMPDEST PUSH2 0x133F PUSH1 0x40 DUP4 ADD DUP5 PUSH2 0xC17 JUMP JUMPDEST SWAP5 SWAP4 POP POP POP POP JUMP JUMPDEST PUSH1 0x0 PUSH1 0x40 DUP3 ADD SWAP1 POP PUSH2 0x135C PUSH1 0x0 DUP4 ADD DUP6 PUSH2 0xC17 JUMP JUMPDEST PUSH2 0x1369 PUSH1 0x20 DUP4 ADD DUP5 PUSH2 0xC17 JUMP JUMPDEST SWAP4 SWAP3 POP POP POP JUMP INVALID LOG2 PUSH5 0x6970667358 0x22 SLT KECCAK256 SWAP13 0x29 MUL PUSH1 0x98 0xB5 REVERT SWAP4 0xCA 0xDB 0xFC 0xAC ISZERO SWAP15 0xE1 ADD TIMESTAMP 0xC4 0xCA SIGNEXTEND PUSH4 0x7C7A8 CALL 0x1F PUSH5 0xC7AADBA264 PUSH20 0x6F6C634300081800330000000000000000000000 "
        },
        "methodIdentifiers": {
          "botManager()": "50a3238b",
          "executeSimulatedTrade(uint256,uint256,bool,int256)": "a81183b5",
          "getLatestPrice()": "8e15f473",
          "lossPercentage()": "e7c01d86",
          "owner()": "8da5cb5b",
          "priceFeed()": "741bef1a",
          "renounceOwnership()": "715018a6",
          "rewardPercentage()": "52d472eb",
          "setAddresses(address,address)": "90107afe",
          "transferOwnership(address)": "f2fde38b",
          "withdrawLiquidity(uint256)": "0a861f2a"
        }
      }
    }
  }
}