{
  "_format": "hh-sol-artifact-1",
  "contractName": "TradeExecutor",
  "sourceName": "contracts/TradeExecutor.sol",
  "abi": [
    {
      "inputs": [
        {
          "internalType": "address",
          "name": "_botManager",
          "type": "address"
        },
        {
          "internalType": "address",
          "name": "_priceFeed",
          "type": "address"
        }
      ],
      "stateMutability": "nonpayable",
      "type": "constructor"
    },
    {
      "inputs": [],
      "name": "InsufficientExecutorBalance",
      "type": "error"
    },
    {
      "inputs": [],
      "name": "InvalidBot",
      "type": "error"
    },
    {
      "inputs": [],
      "name": "InvalidPrice",
      "type": "error"
    },
    {
      "inputs": [
        {
          "internalType": "address",
          "name": "owner",
          "type": "address"
        }
      ],
      "name": "OwnableInvalidOwner",
      "type": "error"
    },
    {
      "inputs": [
        {
          "internalType": "address",
          "name": "account",
          "type": "address"
        }
      ],
      "name": "OwnableUnauthorizedAccount",
      "type": "error"
    },
    {
      "inputs": [],
      "name": "ZeroAddress",
      "type": "error"
    },
    {
      "anonymous": false,
      "inputs": [
        {
          "indexed": false,
          "internalType": "address",
          "name": "botManager",
          "type": "address"
        },
        {
          "indexed": false,
          "internalType": "address",
          "name": "priceFeed",
          "type": "address"
        }
      ],
      "name": "AddressesUpdated",
      "type": "event"
    },
    {
      "anonymous": false,
      "inputs": [
        {
          "indexed": true,
          "internalType": "address",
          "name": "previousOwner",
          "type": "address"
        },
        {
          "indexed": true,
          "internalType": "address",
          "name": "newOwner",
          "type": "address"
        }
      ],
      "name": "OwnershipTransferred",
      "type": "event"
    },
    {
      "anonymous": false,
      "inputs": [
        {
          "indexed": true,
          "internalType": "uint256",
          "name": "botId",
          "type": "uint256"
        },
        {
          "indexed": false,
          "internalType": "int256",
          "name": "currentPrice",
          "type": "int256"
        },
        {
          "indexed": false,
          "internalType": "bool",
          "name": "isWin",
          "type": "bool"
        },
        {
          "indexed": false,
          "internalType": "uint256",
          "name": "impactAmount",
          "type": "uint256"
        }
      ],
      "name": "TradeExecuted",
      "type": "event"
    },
    {
      "inputs": [],
      "name": "botManager",
      "outputs": [
        {
          "internalType": "contract ITradingBotManager",
          "name": "",
          "type": "address"
        }
      ],
      "stateMutability": "view",
      "type": "function"
    },
    {
      "inputs": [
        {
          "internalType": "uint256",
          "name": "botId",
          "type": "uint256"
        },
        {
          "internalType": "uint256",
          "name": "tradeAmount",
          "type": "uint256"
        },
        {
          "internalType": "bool",
          "name": "direction",
          "type": "bool"
        },
        {
          "internalType": "int256",
          "name": "referencePrice",
          "type": "int256"
        }
      ],
      "name": "executeSimulatedTrade",
      "outputs": [],
      "stateMutability": "nonpayable",
      "type": "function"
    },
    {
      "inputs": [],
      "name": "getLatestPrice",
      "outputs": [
        {
          "internalType": "int256",
          "name": "",
          "type": "int256"
        }
      ],
      "stateMutability": "view",
      "type": "function"
    },
    {
      "inputs": [],
      "name": "lossPercentage",
      "outputs": [
        {
          "internalType": "uint256",
          "name": "",
          "type": "uint256"
        }
      ],
      "stateMutability": "view",
      "type": "function"
    },
    {
      "inputs": [],
      "name": "owner",
      "outputs": [
        {
          "internalType": "address",
          "name": "",
          "type": "address"
        }
      ],
      "stateMutability": "view",
      "type": "function"
    },
    {
      "inputs": [],
      "name": "priceFeed",
      "outputs": [
        {
          "internalType": "contract AggregatorV3Interface",
          "name": "",
          "type": "address"
        }
      ],
      "stateMutability": "view",
      "type": "function"
    },
    {
      "inputs": [],
      "name": "renounceOwnership",
      "outputs": [],
      "stateMutability": "nonpayable",
      "type": "function"
    },
    {
      "inputs": [],
      "name": "rewardPercentage",
      "outputs": [
        {
          "internalType": "uint256",
          "name": "",
          "type": "uint256"
        }
      ],
      "stateMutability": "view",
      "type": "function"
    },
    {
      "inputs": [
        {
          "internalType": "address",
          "name": "_botManager",
          "type": "address"
        },
        {
          "internalType": "address",
          "name": "_priceFeed",
          "type": "address"
        }
      ],
      "name": "setAddresses",
      "outputs": [],
      "stateMutability": "nonpayable",
      "type": "function"
    },
    {
      "inputs": [
        {
          "internalType": "address",
          "name": "newOwner",
          "type": "address"
        }
      ],
      "name": "transferOwnership",
      "outputs": [],
      "stateMutability": "nonpayable",
      "type": "function"
    },
    {
      "inputs": [
        {
          "internalType": "uint256",
          "name": "amount",
          "type": "uint256"
        }
      ],
      "name": "withdrawLiquidity",
      "outputs": [],
      "stateMutability": "nonpayable",
      "type": "function"
    },
    {
      "stateMutability": "payable",
      "type": "receive"
    }
  ],
  "bytecode": "0x6080604052600560035560056004553480156200001b57600080fd5b50604051620015a6380380620015a6833981810160405281019062000041919062000321565b33600073ffffffffffffffffffffffffffffffffffffffff168173ffffffffffffffffffffffffffffffffffffffff1603620000b75760006040517f1e4fbdf7000000000000000000000000000000000000000000000000000000008152600401620000ae919062000379565b60405180910390fd5b620000c881620001f360201b60201c565b50600073ffffffffffffffffffffffffffffffffffffffff168273ffffffffffffffffffffffffffffffffffffffff161480620001315750600073ffffffffffffffffffffffffffffffffffffffff168173ffffffffffffffffffffffffffffffffffffffff16145b1562000169576040517fd92e233d00000000000000000000000000000000000000000000000000000000815260040160405180910390fd5b81600160006101000a81548173ffffffffffffffffffffffffffffffffffffffff021916908373ffffffffffffffffffffffffffffffffffffffff16021790555080600260006101000a81548173ffffffffffffffffffffffffffffffffffffffff021916908373ffffffffffffffffffffffffffffffffffffffff160217905550505062000396565b60008060009054906101000a900473ffffffffffffffffffffffffffffffffffffffff169050816000806101000a81548173ffffffffffffffffffffffffffffffffffffffff021916908373ffffffffffffffffffffffffffffffffffffffff1602179055508173ffffffffffffffffffffffffffffffffffffffff168173ffffffffffffffffffffffffffffffffffffffff167f8be0079c531659141344cd1fd0a4f28419497f9722a3daafe3b4186f6b6457e060405160405180910390a35050565b600080fd5b600073ffffffffffffffffffffffffffffffffffffffff82169050919050565b6000620002e982620002bc565b9050919050565b620002fb81620002dc565b81146200030757600080fd5b50565b6000815190506200031b81620002f0565b92915050565b600080604083850312156200033b576200033a620002b7565b5b60006200034b858286016200030a565b92505060206200035e858286016200030a565b9150509250929050565b6200037381620002dc565b82525050565b600060208201905062000390600083018462000368565b92915050565b61120080620003a66000396000f3fe6080604052600436106100a05760003560e01c80638da5cb5b116100645780638da5cb5b1461016d5780638e15f4731461019857806390107afe146101c3578063a81183b5146101ec578063e7c01d8614610215578063f2fde38b14610240576100a7565b80630a861f2a146100ac57806350a3238b146100d557806352d472eb14610100578063715018a61461012b578063741bef1a14610142576100a7565b366100a757005b600080fd5b3480156100b857600080fd5b506100d360048036038101906100ce9190610b3b565b610269565b005b3480156100e157600080fd5b506100ea610305565b6040516100f79190610be7565b60405180910390f35b34801561010c57600080fd5b5061011561032b565b6040516101229190610c11565b60405180910390f35b34801561013757600080fd5b50610140610331565b005b34801561014e57600080fd5b50610157610345565b6040516101649190610c4d565b60405180910390f35b34801561017957600080fd5b5061018261036b565b60405161018f9190610c89565b60405180910390f35b3480156101a457600080fd5b506101ad610394565b6040516101ba9190610cbd565b60405180910390f35b3480156101cf57600080fd5b506101ea60048036038101906101e59190610d04565b610435565b005b3480156101f857600080fd5b50610213600480360381019061020e9190610da8565b61059a565b005b34801561022157600080fd5b5061022a610921565b6040516102379190610c11565b60405180910390f35b34801561024c57600080fd5b5061026760048036038101906102629190610e0f565b610927565b005b6102716109ad565b804710156102b4576040517f08c379a00000000000000000000000000000000000000000000000000000000081526004016102ab90610e99565b60405180910390fd5b6102bc61036b565b73ffffffffffffffffffffffffffffffffffffffff166108fc829081150290604051600060405180830381858888f19350505050158015610301573d6000803e3d6000fd5b5050565b600160009054906101000a900473ffffffffffffffffffffffffffffffffffffffff1681565b60035481565b6103396109ad565b6103436000610a34565b565b600260009054906101000a900473ffffffffffffffffffffffffffffffffffffffff1681565b60008060009054906101000a900473ffffffffffffffffffffffffffffffffffffffff16905090565b600080600260009054906101000a900473ffffffffffffffffffffffffffffffffffffffff1673ffffffffffffffffffffffffffffffffffffffff1663feaf968c6040518163ffffffff1660e01b815260040160a060405180830381865afa158015610404573d6000803e3d6000fd5b505050506040513d601f19601f820116820180604052508101906104289190610f25565b5050509150508091505090565b61043d6109ad565b600073ffffffffffffffffffffffffffffffffffffffff168273ffffffffffffffffffffffffffffffffffffffff1614806104a45750600073ffffffffffffffffffffffffffffffffffffffff168173ffffffffffffffffffffffffffffffffffffffff16145b156104db576040517fd92e233d00000000000000000000000000000000000000000000000000000000815260040160405180910390fd5b81600160006101000a81548173ffffffffffffffffffffffffffffffffffffffff021916908373ffffffffffffffffffffffffffffffffffffffff16021790555080600260006101000a81548173ffffffffffffffffffffffffffffffffffffffff021916908373ffffffffffffffffffffffffffffffffffffffff1602179055507fc651c70f44278e4b6b346230d2fcc09308ad801d6dc8b9c055f45581b3609075828260405161058e929190610fa0565b60405180910390a15050565b6105a26109ad565b600080600160009054906101000a900473ffffffffffffffffffffffffffffffffffffffff1673ffffffffffffffffffffffffffffffffffffffff1663f221ddb9876040518263ffffffff1660e01b81526004016106009190610c11565b606060405180830381865afa15801561061d573d6000803e3d6000fd5b505050506040513d601f19601f820116820180604052508101906106419190611037565b9250925050801580610660575084826bffffffffffffffffffffffff16105b8061066b5750600085145b156106a2576040517fc7fcc46100000000000000000000000000000000000000000000000000000000815260040160405180910390fd5b60006106ac610394565b9050600081136106e7576040517ebfc92100000000000000000000000000000000000000000000000000000000815260040160405180910390fd5b6000856106f6578482126106fa565b8482135b9050801561082b57600060646003548961071491906110b9565b61071e919061112a565b90508047101561075a576040517f5bc29c9a00000000000000000000000000000000000000000000000000000000815260040160405180910390fd5b600160009054906101000a900473ffffffffffffffffffffffffffffffffffffffff1673ffffffffffffffffffffffffffffffffffffffff16639d992eeb828b6040518363ffffffff1660e01b81526004016107b69190610c11565b6000604051808303818588803b1580156107cf57600080fd5b505af11580156107e3573d6000803e3d6000fd5b5050505050887fc0ef5ad693c2a94e3a1480eccf40ff4f8d061571fde27bcdfa129e63051296f68460018460405161081d9392919061116a565b60405180910390a250610917565b600060646004548961083d91906110b9565b610847919061112a565b9050600160009054906101000a900473ffffffffffffffffffffffffffffffffffffffff1673ffffffffffffffffffffffffffffffffffffffff16636c667ab18a836040518363ffffffff1660e01b81526004016108a69291906111a1565b600060405180830381600087803b1580156108c057600080fd5b505af11580156108d4573d6000803e3d6000fd5b50505050887fc0ef5ad693c2a94e3a1480eccf40ff4f8d061571fde27bcdfa129e63051296f68460008460405161090d9392919061116a565b60405180910390a2505b5050505050505050565b60045481565b61092f6109ad565b600073ffffffffffffffffffffffffffffffffffffffff168173ffffffffffffffffffffffffffffffffffffffff16036109a15760006040517f1e4fbdf70000000000000000000000000000000000000000000000000000000081526004016109989190610c89565b60405180910390fd5b6109aa81610a34565b50565b6109b5610af8565b73ffffffffffffffffffffffffffffffffffffffff166109d361036b565b73ffffffffffffffffffffffffffffffffffffffff1614610a32576109f6610af8565b6040517f118cdaa7000000000000000000000000000000000000000000000000000000008152600401610a299190610c89565b60405180910390fd5b565b60008060009054906101000a900473ffffffffffffffffffffffffffffffffffffffff169050816000806101000a81548173ffffffffffffffffffffffffffffffffffffffff021916908373ffffffffffffffffffffffffffffffffffffffff1602179055508173ffffffffffffffffffffffffffffffffffffffff168173ffffffffffffffffffffffffffffffffffffffff167f8be0079c531659141344cd1fd0a4f28419497f9722a3daafe3b4186f6b6457e060405160405180910390a35050565b600033905090565b600080fd5b6000819050919050565b610b1881610b05565b8114610b2357600080fd5b50565b600081359050610b3581610b0f565b92915050565b600060208284031215610b5157610b50610b00565b5b6000610b5f84828501610b26565b91505092915050565b600073ffffffffffffffffffffffffffffffffffffffff82169050919050565b6000819050919050565b6000610bad610ba8610ba384610b68565b610b88565b610b68565b9050919050565b6000610bbf82610b92565b9050919050565b6000610bd182610bb4565b9050919050565b610be181610bc6565b82525050565b6000602082019050610bfc6000830184610bd8565b92915050565b610c0b81610b05565b82525050565b6000602082019050610c266000830184610c02565b92915050565b6000610c3782610bb4565b9050919050565b610c4781610c2c565b82525050565b6000602082019050610c626000830184610c3e565b92915050565b6000610c7382610b68565b9050919050565b610c8381610c68565b82525050565b6000602082019050610c9e6000830184610c7a565b92915050565b6000819050919050565b610cb781610ca4565b82525050565b6000602082019050610cd26000830184610cae565b92915050565b610ce181610c68565b8114610cec57600080fd5b50565b600081359050610cfe81610cd8565b92915050565b60008060408385031215610d1b57610d1a610b00565b5b6000610d2985828601610cef565b9250506020610d3a85828601610cef565b9150509250929050565b60008115159050919050565b610d5981610d44565b8114610d6457600080fd5b50565b600081359050610d7681610d50565b92915050565b610d8581610ca4565b8114610d9057600080fd5b50565b600081359050610da281610d7c565b92915050565b60008060008060808587031215610dc257610dc1610b00565b5b6000610dd087828801610b26565b9450506020610de187828801610b26565b9350506040610df287828801610d67565b9250506060610e0387828801610d93565b91505092959194509250565b600060208284031215610e2557610e24610b00565b5b6000610e3384828501610cef565b91505092915050565b600082825260208201905092915050565b7f53616c646f20696e737566696369656e74650000000000000000000000000000600082015250565b6000610e83601283610e3c565b9150610e8e82610e4d565b602082019050919050565b60006020820190508181036000830152610eb281610e76565b9050919050565b600069ffffffffffffffffffff82169050919050565b610ed881610eb9565b8114610ee357600080fd5b50565b600081519050610ef581610ecf565b92915050565b600081519050610f0a81610d7c565b92915050565b600081519050610f1f81610b0f565b92915050565b600080600080600060a08688031215610f4157610f40610b00565b5b6000610f4f88828901610ee6565b9550506020610f6088828901610efb565b9450506040610f7188828901610f10565b9350506060610f8288828901610f10565b9250506080610f9388828901610ee6565b9150509295509295909350565b6000604082019050610fb56000830185610c7a565b610fc26020830184610c7a565b9392505050565b600081519050610fd881610cd8565b92915050565b60006bffffffffffffffffffffffff82169050919050565b610fff81610fde565b811461100a57600080fd5b50565b60008151905061101c81610ff6565b92915050565b60008151905061103181610d50565b92915050565b6000806000606084860312156110505761104f610b00565b5b600061105e86828701610fc9565b935050602061106f8682870161100d565b925050604061108086828701611022565b9150509250925092565b7f4e487b7100000000000000000000000000000000000000000000000000000000600052601160045260246000fd5b60006110c482610b05565b91506110cf83610b05565b92508282026110dd81610b05565b915082820484148315176110f4576110f361108a565b5b5092915050565b7f4e487b7100000000000000000000000000000000000000000000000000000000600052601260045260246000fd5b600061113582610b05565b915061114083610b05565b9250826111505761114f6110fb565b5b828204905092915050565b61116481610d44565b82525050565b600060608201905061117f6000830186610cae565b61118c602083018561115b565b6111996040830184610c02565b949350505050565b60006040820190506111b66000830185610c02565b6111c36020830184610c02565b939250505056fea26469706673582212205c8667c9d71d4df5a5124bf4b095c3d287231a26e50a235c717d39aadda463ce64736f6c63430008180033",
  "linkReferences": {},
  "deployedLinkReferences": {}
}